:020000040800F2
:10000000504F0020D9020008C5440008F93C000800
:10001000C1440008FD210008D9500008000000007C
:100020000000000000000000000000004102000885
:1000300099260008000000008502000871500008A1
:10004000F3020008F3020008F3020008F3020008BC
:10005000F3020008F3020008F3020008F3020008AC
:10006000F3020008F3020008F3020008F30200089C
:10007000F3020008F3020008F3020008F30200088C
:10008000F3020008F3020008F3020008F30200087C
:10009000F3020008F3020008F30200089D2600089E
:1000A000F3020008F3020008F3020008F30200085C
:1000B000F3020008F3020008F3020008F30200084C
:1000C000F3020008F3020008F3020008F30200083C
:1000D000F3020008F3020008F3020008F30200082C
:1000E000F3020008F3020008F3020008F30200081C
:1000F000F3020008F3020008F3020008F30200080C
:10010000F3020008F3020008F3020008F3020008FB
:10011000F3020008F3020008F3020008F3020008EB
:10012000F3020008F3020008F3020008F3020008DB
:1001300000F002F800F074F80AA090E8000C824485
:100140008344AAF10107DA4501D100F069F8AFF262
:10015000090EBAE80F0013F0010F18BFFB1A43F0A5
:1001600001031847B0F80000D0F800000A444FF02F
:10017000000C10F8013B13F0070408BF10F8014B06
:100180001D1108BF10F8015B641E05D010F8016B4B
:10019000641E01F8016BF9D113F0080F1EBF10F8AF
:1001A000014BAD1C0C1B09D16D1E58BF01F801CBD2
:1001B000FAD505E014F8016B01F8016B6D1EF9D555
:1001C0009142D6D37047000000230024002500266A
:1001D000103A28BF78C1FBD8520728BF30C148BFAA
:1001E0000B60704766290FF07680642900F00E815D
:1001F000002070471FB59DE8030000F0C7FB00F02A
:10020000A9FB0400002000210EF04AFA401C6060A7
:10021000002000210EF05AFAE0601FBD10B510BD9D
:1002200000F0E8FF1146FFF7E5FF0BF041FD01F09C
:1002300006F803B4FFF7F2FF03BC01F037F8000043
:10024000224B19680868B0E8F00F80F30988BFF303
:100250006F8F4FF0000080F311884EF00D0E704745
:100260000000000006480068006880F3088862B655
:1002700061B6BFF34F8FBFF36F8F00DF00BF00BFCA
:1002800008ED00E0EFF30980BFF36F8F0F4B1A68A2
:1002900020E9F00F106008B54FF0500080F311888E
:1002A000BFF34F8FBFF36F8F0DF08EFA4FF000004A
:1002B00080F31188BDE8084019680868B0E8F00FBD
:1002C00080F30988BFF36F8F704700BF780000206C
:1002D000EFF3058070470000094880470948004750
:1002E000FEE7FEE7FEE7FEE7FEE7FEE7FEE7FEE7E6
:1002F000FEE7FEE704480549054A064B7047000043
:100300007950000831010008503B0020504F002078
:10031000504B0020504B002010B500F01BFB001D7F
:1003200010BD00BF7DE3000070B5064600F00EFB77
:10033000056806F10B0020F00704B4429CBF0020C2
:1003400070BD2B466A68BAB11068A04210D304F1A0
:10035000080188423CBF5068586007D351681019A3
:1003600041601168091B016058601460101D70BD68
:1003700013465268002AE7D12146284600F0F2FAD7
:100380000028DED170BD70B50446051F00F0DEFA0E
:100390000068002C14BF446870BD002C18BFAC422C
:1003A0003CBF20466468F8D301680A18AA4218BF07
:1003B000456003D12A680546114401602868411947
:1003C000A1421CBF6C6070BD61686960216808440F
:1003D000286070BD0FB47CB50C0009AA009001D054
:1003E0002044401E084B7B4469460190089800F069
:1003F0007CFD05461CB10020694600F089FD2846B9
:100400007CBC5DF814FB0000310B00002DE9F041CD
:100410000646002410687529314616A510D0AFF3A2
:100420000080002802DA404213A507E031688A07FD
:1004300001D512A502E0490704D511A5012401E068
:10044000AFF3008000210A2206F1240709E0B0FB87
:10045000F2FCB0FBF2F302FB1C003030785418467B
:10046000491C0028F3D123462A463046BDE8F04116
:1004700000F0CDBA000000002D0000002B000000AD
:10048000200000002DE9F05F894604464FF0000A85
:10049000DFF874B1FB44C0F820A02046E16888472B
:1004A000002874D0252806D0D4E901219047206A7D
:1004B000401C2062F1E700265F462046E16888473D
:1004C0002028054607DB312D05D2781910F8200CBD
:1004D00008B10643F1E7B00701D526F00406C4F8D9
:1004E0001CA00027C4F818A02A2D09D028460BF01C
:1004F000BDF838B304EB8708303DC8F8185019E050
:1005000059F8041B204604EB87029161E168884793
:10051000012F054618D1E069002820DA26F02006D0
:100520001DE0D8F8180000EB800005EB40003038E3
:10053000C8F818002046E168884705460BF096F891
:100540000028EED1012F0AD02E2D08D12046E168D7
:1005500088477F1C0546022F46F02006C4DBA069B1
:10056000002803DA404246F00106A061F00701D0FE
:1005700026F010066C2D0BD0682D09D04C2D39D0EB
:100580006A2D35D0742D35D07A2D33D016E038E071
:10059000E1682F4620468847B842054609D16C2FAE
:1005A00026D04FF48060E168064320468847054620
:1005B00004E06C2F1AD04FF4807006430DB3A5F100
:1005C0004100192802D8203546F400664A462946DB
:1005D000204626604E46FFF705FE80B101280BD06D
:1005E000F61D26F0070000F1080956E74020E4E771
:1005F0008020D8E70020D6E706F104094DE7284619
:1006000052E7206ABDE8F09FB4F4000010B5431C27
:1006100002E010F8011B71B18107FAD14FF00132ED
:1006200002C88C1A8C4314EAC211F9D0C01A0A0607
:1006300003D0C01E10BDC01A10BD0A0401D0801E18
:1006400010BD0902FCD0401E10BD032A40F23080CC
:1006500010F0030C00F0158011F8013BBCF1020F03
:10066000624498BF11F801CB00F8013B38BF11F884
:10067000013BA2F1040298BF00F801CB38BF00F89B
:10068000013B11F0030300F06780083AC0F00880D6
:1006900051F8043B083A51F804CBA0E80810F5E7FC
:1006A000121D5CBF51F8043B40F8043BAFF30080DF
:1006B000D20724BF11F8013B11F801CB48BF11F854
:1006C000012B24BF00F8013B00F801CB48BF00F824
:1006D000012B7047431A28BF9A427FF6B6AF032A10
:1006E0001044114440F2268010F0030F1EBF11F891
:1006F000013D521E00F8013D10F0030F7FF4F6AFEC
:1007000011F0030300F06D80083AC0F00B8051F83F
:10071000043D083A51F804CD40F8043D40F804CDBA
:10072000FFF7F3BF121D5CBF51F8043D40F8043DD4
:10073000AFF30080D20724BF11F8013D11F801CDBD
:1007400048BF11F8012C24BF00F8013D00F801CD8D
:1007500048BF00F8012C704710B5203AC0F00B805C
:10076000B1E81850203AA0E81850B1E81850A0E8B5
:100770001850BFF4F5AF5FEA027C24BFB1E818500F
:10078000A0E8185044BF18C918C0BDE810405FEA7F
:10079000827C24BF51F8043B40F8043B08BF7047FB
:1007A000D20728BF31F8023B48BF11F8012B28BF00
:1007B00020F8023B48BF00F8012B7047431A28BFBE
:1007C0009A427FF6C9AF104410F0030F11441EBFC8
:1007D00011F8013D521E00F8013D10F0030F7FF4A7
:1007E000F6AF103AC0F00A8010B531E91850103A4F
:1007F00020E91850BFF4F9AFBDE81040530724BFFB
:1008000031E9081020E9081044BF51F8043D40F8D0
:10081000043D12F0030F08BF7047D20728BF31F81C
:10082000023D48BF11F8012C28BF20F8023D48BF07
:1008300000F8012C704701F0FF03114601B543EAAF
:10084000032242EA024200F00BF801BD02F0FF036E
:1008500043EA032242EA024200F002B84FF00002EB
:100860000429C0F0128010F0030C00F01B80CCF1C2
:10087000040CBCF1020F18BF00F8012BA8BF20F830
:10088000022BA1EB0C0100F00DB85FEAC17C24BF84
:1008900000F8012B00F8012B48BF00F8012B70472E
:1008A0004FF0000200B5134694469646203922BF09
:1008B000A0E80C50A0E80C50B1F12001BFF4F7AF54
:1008C000090728BFA0E80C5048BF0CC05DF804EB36
:1008D000890028BF40F8042B08BF704748BF20F8A4
:1008E000022B11F0804F18BF00F8012B704710B594
:1008F000044610F0030F08BF11F0030F40F01580FD
:100900004FF0013E121FC0F20E8051F8043BA3EBE2
:100910000E0C2CEA030C1CEACE1C08BF40F8043B6A
:10092000F0D0A1F1040102F10402521E08DB11F81B
:10093000013B002B00F8013BF7D11146FFF78EFF7A
:10094000204610BD70477047704700000048704750
:10095000F83A002000487047103B0020704770476D
:100960007047704738B504460A4600206946AFF321
:100970000080002808BF38BD02460099204600F0DC
:10098000DFFA012038BD012000F0ECBBF8B5AFF371
:100990000080054600200C46102000BF0646A8191E
:1009A000A0420DD9324669460020AFF3008007000F
:1009B00008BF00F0D7FB0098A04218BF0546C41935
:1009C000FFF7C4FF05600746F01D20F00700461939
:1009D000284600F00AF8B44208BFF8BDA21B314611
:1009E0003868BDE8F84000F0ABBA00210160C0E90A
:1009F000011070471020704710B500F09DFA006894
:100A000010BD10B5044600F097FA046010BD2DE942
:100A1000F0470D4699469246044600F124080168C5
:100A2000880604D5E06921F01001216000E0012072
:100A3000A84201DD471B00E00027A1697A1902EBFB
:100A40000900081AA0612078C00602D42046AFF33E
:100A50000080002608E0D4E901211AF8060090473A
:100A6000206A401C761C20624E45F4DB2078C006CC
:100A70000AD52046AFF3008006E0D4E901213020FA
:100A80009047206A401C2062381EA7F10107F4DC61
:100A900007E0D4E9012118F805009047206A401CBE
:100AA0002062281EA5F10105F3DC2046AFF300808B
:100AB0002078000602D50220BDE8F0870120FBE780
:100AC00070472DE9FF4F0C461E464FF0FF378BB0A5
:100AD000D2E90001DDF860800A908A46C1F30A5528
:100AE00005B93D46002108464FF00000BAF1000F5D
:100AF00000F4400005DA00EB80004FF4400101EA09
:100B000050004FEA9059B9F1010F00DDB9460A983B
:100B100050EA4A000ED044F61050A5F2FF35454386
:100B20002F14B8F1000F1ED07542291E1EDDC9F129
:100B300000021CE0B8F1010F4FF0000001D030219D
:100B400003E0F24305E02154401CB042FBDB304699
:100B50000022002121540B99C1F80880C1E900202E
:100B60000FB0BDE8F08FBD1B6D1CDEE74A4600DA12
:100B7000694206A800F084FA06AB93E8070003ABCD
:100B800083E8070050460A9900F0B6FB8DE807009D
:100B9000A0F500501F3800900398002D0ADD42F2A6
:100BA0001F014A460844002303A90390684600F049
:100BB0001FFE09E0A0F500504A461F38002303A994
:100BC0000390684600F029FE8DE807000004000C41
:100BD00003D04FF0FF30410800E01046B8F1000F9D
:100BE00003D00022009215461EE0751E05D400F0C9
:100BF000C1F9303262556D1EF9D5B3460122084362
:100C000002D000227F1C04E02078302801D100228D
:100C10007F1E002A099784D01DE0112D07DA00F00D
:100C2000A9F9303262556D1C50EA0102F5D1084332
:100C300002D00098C8B10EE00021681E05E0235CD8
:100C4000625C63542254401E491C8142F7DBAB4670
:100C5000A81B401E0990002004F80B000B98099A6D
:100C6000C0F80880C0E9002B7AE711264FF0000891
:100C700057E72DE9F04F88460446D21D22F00701C0
:100C800091B0D1E90001CDE90A0104F027FA02464A
:100C90000B98C00F01D02D2007E02068810701D5F7
:100CA0002B2002E0202101EAC000032A099001D094
:100CB000072A05DB03464146204600F0A1F90BE177
:100CC0002078800601D5E06900E00620B8F1650FC4
:100CD000814606D0B8F1660F18D0B8F1670F70D111
:100CE00031E00020B9F1110F009001DB112301E088
:100CF00009F101030AAA01A90CA8FFF7E2FEDDE948
:100D00000C70002609F10105834647E001204B469F
:100D100000904FF000470AAA01A90CA8FFF7D1FEE6
:100D2000DDE90DB00C995D46002610B909F101000E
:100D30000D18B9EB050003D4C0F1FF3609F1010528
:100D4000A5EB09002BE0B9F1010F01DA4FF0010921
:100D50000020B9F1110F0090484601DD112300E099
:100D600003460AAA01A90CA8FFF7ABFEDDE90C7047
:100D70004D4600268346207800070AD4AB4500DAAA
:100D80005D4601A8012D04DD411911F8011C30292F
:100D900007D04F4502DA17F1040F04DA012082462A
:100DA0000FE06D1EEEE7002F02DCED1B3E4403E07A
:100DB000781CA84200DD7D1CB81B00F1010A4FF031
:100DC00000472078000703D4AA4501DB4FF0FF3A23
:100DD0000021B7F1004F0DF143088DF8431024D0E6
:100DE00002202B23002F01DA7F422D230A21021E2D
:100DF000A0F1010000DC5FB197FBF1FC97FBF1F281
:100E000001FB1C7C17460CF1300C08F801CDEEE715
:100E1000A8F1010003702188090501D5452100E0F2
:100E20006521A0F1010800F8011C09980FA9A1EBA8
:100E30000807FF1D00B10120411901EBEA70A1690B
:100E40003844081A401EA0612078C00602D420460B
:100E5000AFF30080099828B1D4E901219047206AB6
:100E6000401C20622078C00622D52046AFF30080C7
:100E70001EE0002E04DBB34502DD01A8805D00E02A
:100E80003020D4E901219047206A401C2062761C62
:100E9000AAF101005FEA000A0AD1FFF75BFDC06812
:100EA0000168405CD4E901219047206A401C20621F
:100EB000281EA5F10105DCDC07E0D4E9012118F8C2
:100EC000010B9047206A401C2062381EA7F10107E1
:100ED000F3DC2046AFF30080032011B041E60000B0
:100EE00001694A1C02610878704700B58FB0CDE9EE
:100EF00001310021059105497944CDE903101146DE
:100F00006846FFF7BFFA0FB000BD0000E5FFFFFF26
:100F10000A6802F8010B0A607047D1E900239A427F
:100F200002D2531C0B6010707047000000487047DD
:100F3000F03A00207047000000487047F03A002067
:100F4000034640688C46002818BF88423CBF0346D1
:100F50004068F8D318681844884207D00CF10300A1
:100F600020F00700001D411A521A0146081D0A60B0
:100F7000FFF709BA30B5B0F10A024FEA900E71F1ED
:100F800000034EEA817EB0EB0E0061EB91014FEA67
:100F9000101E4EEA017E10EB0E0041EB11114FEADC
:100FA000102E4EEA016E10EB0E0041EB11214FEABC
:100FB000104E4EEA014E10EB0E0041EB114140186D
:100FC00041F100014FEAD00040EA41704FEAD101FF
:100FD00010EB80054FEA810444EA907444EB01046D
:100FE0006D1944EB0404521BA3414FF0000348BFAA
:100FF0000A3200D530BD401C41F1000130BD000077
:101000002DE9F0411F46044603260168072A01F432
:10101000006004DB08B116A505E016A503E008B1E1
:1010200015A500E015A521F010002060A069C01EE4
:10103000A0610FB1401EA0612046AFF300804FB108
:10104000D4E9012138469047206A401C2062C01C28
:10105000206206E0206AFAE7D4E9012115F8010BC5
:101060009047761EF8D22046AFF30080BDE8F081AD
:101070004E414E006E616E00494E4600696E66003C
:101080002DE9F047814616468AB0354878440DC8A8
:101090008DE80D0032487844801C03AC0DC884E80C
:1010A0000D0041F69B300844372190FBF1F290FB94
:1010B000F1F5A5F1800501FB12041B3C02D5644249
:1010C000012000E00020DFF898A080460027FA44C5
:1010D000AAF1BE0A0EE0E0070AD03246684607EBE6
:1010E000470101230AEB810100F097FB8DE807001F
:1010F00064107F1C002CEED1194F7F44AE3F19E0E5
:10110000E80715D007EB04100DF1180A90E80E005F
:101110008AE80E00C068F04201D198190890324662
:10112000012306A903A800F078FB03AB83E80700BE
:101130006D10641C002DE3D14FF001033246694667
:10114000B8F1000F03A802D000F052FB01E000F05C
:1011500064FBC9E90001C9F808200AB0BDE8F087BE
:101160006CE9000010B500F079F8BDE8104000F01F
:101170006FB800004FF0013C50F8042B51F8043BCD
:101180009A4221D1A2EB0C03934313EACC1317D15B
:1011900050F8042B51F8043B9A4215D1A2EB0C03F2
:1011A000934313EACC130BD150F8042B51F8043BB2
:1011B0009A4209D1A2EB0C03934313EACC13DBD080
:1011C0004FF00000704700BFD01A01BAB1FA81F1A8
:1011D00001F0180122FA01F0CB40C1F12001DBB28D
:1011E000C0B2C01A2CFA01F3D11A914311EAC3110B
:1011F000E6D170477546FFF799FEAE460500694691
:10120000534620F00700854618B020B5FFF772F866
:10121000BDE820404FF000064FF000074FF00008F7
:101220004FF0000B21F00701AC46ACE8C009ACE878
:10123000C009ACE8C009ACE8C0098D46704710B5DC
:101240000446AFF300802046BDE81040FEF7F1BF32
:10125000002801D000F02AB87047000010B501281E
:1012600005D0002103A000F027F8012010BD09A13E
:10127000F8E7000053494752544D454D3A204F7509
:1012800074206F662068656170206D656D6F72797E
:10129000000000003A2048656170206D656D6F7236
:1012A0007920636F7272757074656400014918204B
:1012B000ABBEFEE72600020070B505460C460A20CC
:1012C00000E06D1C00F011F835B128780028F8D145
:1012D00002E0641C00F009F814B120780028F8D16D
:1012E000BDE870400A20AFF3008008B569468DF86C
:1012F00000000320ABBE08BD5FEA400C08BF91F0C0
:10130000000F4FEA8C234FEAC12243EA51514FEAC2
:101310001C5018BF00F5F0404FEA300018BF41F0F4
:1013200000415FEA6C5C00F02980BCF1FF3F08BF20
:1013300040F080407047130C06BF12044FF0100CB1
:101340004FF0000C130E04BF12020CF1080C130F27
:1013500004BF12010CF1040C930F04BF92000CF1B6
:10136000020CD30F04BF52000CF1010C11464FF0D8
:101370000002A0F11F00A0EB0C00704711F0004F1D
:1013800008BF704731F000413FF4D5AF0B0C06BFEA
:1013900009044FF0100C4FF0000C0B0E04BF0902B3
:1013A0000CF1080C0B0F04BF09010CF1040C8B0F9E
:1013B00004BF89000CF1020CCB0F04BF49000CF1F3
:1013C000010CCCF12003A0EB0C0022FA03F302FA8B
:1013D0000CF241EA030100F10100704720F07F4C5C
:1013E00080EA030023F07F47ACEB070303F57C534F
:1013F00000F0004003F1FF032DE980494FEA154B4F
:1014000009B44FEA144325EA0B4E24EA03480FF2CD
:10141000042606EB132749083E785FEA320203FBF5
:101420000667C7F5000707FB06F64FEA54374FEA91
:10143000D64606F1020607FB066CCCF1005C4FEACB
:101440001C472CEA074C07FB06F40CFB06F504EBE3
:1014500015464FEA961634BF00204FF000404FEA81
:10146000D13706FB07FC4FEA1C4C0CFB0BF7D21BD9
:1014700003FB0CF761EB07010CFB0EF7B0EB074029
:1014800072EB17420CFB08F734BFA2EB0742B2EB3A
:10149000074261EB17414FEA0C444FEA910706FB04
:1014A00007FC4FEA1C4C0CFB0BF7B0EBC74072EB90
:1014B000573203FB0CF734BFA2EBC742B2EBC74273
:1014C00061EB57310CFB0EF7B0EBC70072EB5772B4
:1014D0000CFB08F734BFA2EBC702B2EBC70261EB0B
:1014E0005771039F4FEA816141EA921104EBCC04EA
:1014F0004FEAD1374FEA826206FB07FC42EA9012BC
:101500004FEA80604FEA1C4C0CFB0BF7D21B03FB2D
:101510000CF761EB07010CFB0EF7B0EB074072EB29
:1015200017420CFB08F734BFA2EB0742B2EB0742AD
:1015300061EB17414FEA8C554FEA910704EB9C246D
:1015400006FB07FC4FEA1C4C0CFB0BF7B0EBC7404B
:1015500072EB573203FB0CF734BFA2EBC742B2EB7E
:10156000C74261EB57310CFB0EF7B0EBC70072EBD3
:1015700057720CFB08F734BFA2EBC702B2EBC702ED
:1015800061EB577115EB4C254FEA816141EA9211ED
:101590004FEA82624FEAD13742EA901206FB07FC1B
:1015A00044F100044FEA80604FEA1C4C0CFB0BF73F
:1015B000D21B03FB0CF761EB07010CFB0EF7B0EB42
:1015C000074072EB17420CFB08F734BFA2EB07424F
:1015D000B2EB074261EB174115EB1C154FEA813165
:1015E00041EA92414FEA823242EA90424FEA803029
:1015F0004FEA0C7644F1000448EA03434EEA0B48F4
:101600004FF0000EB2EB080C71EB030724BF6246EB
:1016100039464EEB0E0E4FF0000B00185241494177
:101620004BEB0B0BB2EB080C71EB03077BF1000BE0
:1016300024BF624639464EEB0E0E4FF0000B0018E9
:10164000524149414BEB0B0BB2EB080C71EB03071A
:101650007BF1000B24BF624639464EEB0E0E51EA79
:10166000020718BF46F0010616EB0E7655F1000290
:1016700054F1000103D5BDE88901BDE80088BDE84B
:101680008901BDE80048B619524141EB0101A3F1BF
:101690000103704780807F7E7D7C7B7A79787776C6
:1016A00076757473727171706F6E6E6D6C6C6B6A3F
:1016B0006A696868676666656464636362616160DD
:1016C000605F5F5E5E5D5D5C5C5B5B5A5A5959585A
:1016D00058575756565555555454535352525251C4
:1016E000515050504F4F4F4E4E4D4D4D4C4C4C4B1A
:1016F0004B4B4A4A4A494949484848474747474661
:10170000464645454544444444434343434242429C
:1017100042414141002B9C4630D477002BD01CB570
:101720004FEA370703B44FF010004FF01001BAF141
:10173000000F06D0BCF1000FDCBF40F0080040F005
:1017400008014FF000000FBCBDE810400BF1010B89
:10175000BBF1010F08BF5FEA170722BF12F10102B8
:1017600011F101014FF0004143F1000300F000408E
:1017700043EA00007047F9D35708D0E746EA064627
:1017800013F1400F4FEA16461FDD13F1200FDFBFA4
:1017900016430A46002120335B42BED0C3F1200726
:1017A00046EA064602FA07F74FEA164646EA0706F1
:1017B000C3F1200722FA03F201FA07F721FA03F135
:1017C0004FF0000342EA0702A7E746EA020646EAAC
:1017D00006464FEA164646EA0106BCBF46EA0646FA
:1017E000360C4FF000034FF000024FF0000194E779
:1017F0002DE9804C9A46934670B491E8380007C8AA
:1018000031EA400C48BF34EA430C03D5FFF7E6FD4C
:10181000FFF780FFF0BCBDE8008C2DE9804C9A46B4
:10182000934670B491E8380007C810F0804F08BFA5
:1018300013F0804F03D100F005F8FFF76BFFF0BC09
:10184000BDE8008C20F07F4780EA030023F07F4C46
:1018500007EB0C03A3F57C5300F00040A3F1FE035B
:1018600092F0000F00F0B38095F0000F00F0778049
:101870002DE901494FEA11404FEA144621EA004898
:1018800000FB06FC24EA064708FB06F607FB08F8FF
:1018900000FB07F718EB06484CEB164C4FEA124BCF
:1018A00018EB07484FEA15464CEB174022EA0B4E5F
:1018B0000BFB06FC25EA06470EFB06F607FB0EFEB1
:1018C0000BFB07F71EEB064E4CEB164C4FF00006D9
:1018D0001EEB074E4CEB174B18EB0B0840F10000CA
:1018E00018EB0E0B58EB000840F100008F1A4FF078
:1018F00000013CBFC943661B14BFB5EB040C0021BB
:101900003CBFC943F61B4FEA17444EEA8E0E27EA46
:1019100004454FEA1C4704FB07622CEA074C05FB11
:1019200007F70CFB05F604FB0CFC16EB074642EB35
:10193000174216EB0C4642EB1C421BEB060658EB1B
:101940000202414146EA9E0601D5BDE80189B61969
:10195000524141EB0101A3F10103BDE801894FEAC6
:1019600014454FEA114724EA054621EA074C05FBD6
:1019700007F406FB07F70CFB06F105FB0CFC11EB6B
:10198000074144EB17444FEA124711EB0C4144EB7B
:101990001C4422EA074C05FB07F206FB07F70CFB89
:1019A00006F605FB0CFC16EB074642EB174216EB5E
:1019B0000C4642EB1C456A1854F1000148BF7047C1
:1019C000B619524141EB0101A3F10103704795F0B3
:1019D000000F37D04FEA11424FEA144721EA02467E
:1019E00024EA074C02FB07F106FB07F70CFB06F4A1
:1019F00002FB0CFC14EB074441EB17414FEA15477F
:101A000014EB0C4441EB1C4125EA074C02FB07F5A3
:101A100006FB07F70CFB06F602FB0CFC16EB074671
:101A200045EB174516EB0C4645EB1C42121951F1DC
:101A3000000148BF7047B619524141EB0101A3F1C3
:101A4000010370474FEA14454FEA114724EA05465F
:101A500021EA074C05FB07F106FB07F70CFB06F232
:101A60004FF0000605FB0CFC12EB074241EB17415F
:101A700012EB0C4251EB1C4148BF7047921841EBEE
:101A80000101A3F10103704770B504460D461148EA
:101A9000844205D01048844202D01048844200D1CC
:101AA00004E040F22D110EA009F0E7FD0DB1012D6B
:101AB00000D104E04FF4977109A009F0DEFD25B1D3
:101AC000A06840F00100A06003E0A06820F00100E1
:101AD000A06070BD0024014000280140003C01408E
:101AE0002E2E5C4C69627261726965735C53544D51
:101AF0003332463130785F53746450657269706870
:101B00005F4472697665725C7372635C73746D3383
:101B100032663130785F6164632E630070B50446CD
:101B20000D461048844202D00F48844200D104E0A0
:101B30004FF4A3710DA009F0A0FD0DB1012D00D14E
:101B400004E040F2471109A009F097FD25B1A06813
:101B500040F48070A06003E0A06820F48070A06072
:101B600070BD000000240140003C01402E2E5C4C62
:101B700069627261726965735C53544D33324631E8
:101B800030785F5374645065726970685F4472693D
:101B90007665725C7372635C73746D333266313078
:101BA000785F6164632E630070B5044600250C48BD
:101BB000844205D00B48844202D00B48844200D1B5
:101BC00004E040F2B11109A009F057FDA06800F04F
:101BD000040008B1012500E00025284670BD000082
:101BE0000024014000280140003C01402E2E5C4CA6
:101BF00069627261726965735C53544D3332463168
:101C000030785F5374645065726970685F447269BC
:101C10007665725C7372635C73746D3332663130F7
:101C2000785F6164632E630070B5044600250C483C
:101C3000844205D00B48844202D00B48844200D134
:101C400004E040F28B1109A009F017FDA06800F034
:101C5000080008B1012500E00025284670BD0000FD
:101C60000024014000280140003C01402E2E5C4C25
:101C700069627261726965735C53544D33324631E7
:101C800030785F5374645065726970685F4472693C
:101C90007665725C7372635C73746D333266313077
:101CA000785F6164632E63002DE9F04105460C46C0
:101CB000002600275D48854205D05D48854202D058
:101CC0005C48854200D103E0DE215BA009F0D5FC31
:101CD000206818B32068B0F5803F1FD02068B0F5A9
:101CE000003F1BD02068B0F5403F17D02068B0F50A
:101CF000802F13D02068B0F5A02F0FD02068B0F54A
:101D0000C02F0BD02068B0F5E02F07D02068B0F5C9
:101D1000002F03D02068B0F5102F00D103E0DF21A1
:101D200045A009F0AAFC207910B12079012800D142
:101D300003E0E02140A009F0A0FC607910B16079D7
:101D4000012800D103E0E1213BA009F096FCA06846
:101D500088B3A068B0F5003F2DD0A068B0F5802F03
:101D600029D0A068B0F5C02F25D0A068B0F5002F0D
:101D700021D0A068B0F5202F1DD0A068B0F5402F6D
:101D800019D0A068B0F5602F15D0A06898B1A068F0
:101D9000B0F5003F0FD0A068B0F5C02F0BD0A06801
:101DA000B0F5002F07D0A068B0F5202F03D0A068B1
:101DB000B0F5402F00D103E0E2211FA009F05DFC47
:101DC000E06818B1E068B0F5006F00D103E0E321EE
:101DD00019A009F052FC207C012803DB207C10288C
:101DE00000DC03E0E42114A009F047FC6E68214800
:101DF00006402179206840EA012006436E60AE6803
:101E00001D480640D4E902100843617940EA4100C8
:101E10000643AE60EE6A26F47006207C401EC0B217
:101E2000074346EA0756EE62BDE8F0810024014010
:101E300000280140003C01402E2E5C4C696272611A
:101E4000726965735C53544D3332463130785F5359
:101E500074645065726970685F4472697665725C1B
:101E60007372635C73746D3332663130785F6164B2
:101E7000632E6300FFFEF0FFFDF7F1FF2DE9F04751
:101E800006460C46174698460025A94660488642F5
:101E900005D06048864202D05F48864200D104E007
:101EA00040F251215DA009F0E8FB0CB3012C1FD0DA
:101EB000022C1DD0032C1BD0042C19D0052C17D0BC
:101EC000062C15D0072C13D0082C11D0092C0FD0BC
:101ED0000A2C0DD00B2C0BD00C2C09D00D2C07D0BC
:101EE0000E2C05D00F2C03D0102C01D0112C00D1BA
:101EF00004E040F2522149A009F0BFFB012F02DBB0
:101F0000102F00DC04E040F2532144A009F0B5FB9F
:101F1000B8F1000F14D0B8F1010F11D0B8F1020FD1
:101F20000ED0B8F1030F0BD0B8F1040F08D0B8F100
:101F3000050F05D0B8F1060F02D0B8F1070F00D198
:101F400004E04FF4157135A009F097FB092C13DD5F
:101F5000F568A4F10A0000EB4001072000FA01F93E
:101F600025EA0905A4F10A0000EB400008FA00F98F
:101F700045EA0905F5600EE0356904EB44010720E8
:101F800000FA01F925EA090504EB440008FA00F912
:101F900045EA09053561072F11DA756B781E00EBEC
:101FA00080011F2000FA01F925EA0905781E00EBDF
:101FB000800004FA00F945EA0905756326E00D2F53
:101FC00011DA356BF81F00EB80011F2000FA01F9D0
:101FD00025EA0905F81F00EB800004FA00F945EA3C
:101FE0000905356312E0F56AA7F10D0000EB8001E9
:101FF0001F2000FA01F925EA0905A7F10D0000EB01
:10200000800004FA00F945EA0905F562BDE8F087A9
:102010000024014000280140003C01402E2E5C4C71
:1020200069627261726965735C53544D3332463133
:1020300030785F5374645065726970685F44726988
:102040007665725C7372635C73746D3332663130C3
:10205000785F6164632E630010B5044609488442CA
:1020600005D00948844202D00848844200D104E0E7
:1020700040F27D1106A009F000FBA06840F00800C6
:10208000A06010BD0024014000280140003C014038
:102090002E2E5C4C69627261726965735C53544D9B
:1020A0003332463130785F537464506572697068BA
:1020B0005F4472697665725C7372635C73746D33CE
:1020C00032663130785F6164632E630070B5044618
:1020D0000D461148844205D01048844202D0104871
:1020E000844200D104E040F2CB110EA009F0C5FA01
:1020F0000DB1012D00D104E04FF4E67109A009F003
:10210000BCFA25B1A06840F4A000A06003E0A0687C
:1021100020F4A000A06070BD002401400028014010
:10212000003C01402E2E5C4C6962726172696573DD
:102130005C53544D3332463130785F53746450658C
:10214000726970685F4472697665725C7372635C11
:1021500073746D3332663130785F6164632E63006F
:1021600010B504460948844205D00948844202D08B
:102170000848844200D104E040F2A31106A009F00F
:102180007CFAA06840F00400A06010BD002401406B
:1021900000280140003C01402E2E5C4C69627261B7
:1021A000726965735C53544D3332463130785F53F6
:1021B00074645065726970685F4472697665725CB8
:1021C0007372635C73746D3332663130785F61644F
:1021D000632E630010B505F0FFFC10BD10B504467A
:1021E00024B10421044800F09DFE03E004210248CC
:1021F00000F040FE10BD00000008014000BFFEE7F7
:1022000070B504460D46244884422AD02248143032
:10221000844226D020482830844222D01E483C30B8
:1022200084421ED01C48503084421AD01A48643070
:10223000844216D018487830844212D0174884421D
:102240000FD01648143084420BD0144828308442F2
:1022500007D012483C30844203D0104850308442AA
:1022600000D104E04FF494710DA009F006FA0DB10D
:10227000012D00D104E040F2291109A009F0FDF977
:1022800025B1206840F00100206004E020684FF68E
:10229000FE710840206070BD080002400804024042
:1022A0002E2E5C4C69627261726965735C53544D89
:1022B0003332463130785F537464506572697068A8
:1022C0005F4472697665725C7372635C73746D33BC
:1022D00032663130785F646D612E630010B504465C
:1022E0006A4884422AD069481430844226D067481C
:1022F0002830844222D065483C3084421ED0634856
:10230000503084421AD061486430844216D05F480D
:102310007830844212D05E4884420FD05C4814303A
:1023200084420BD05A482830844207D058483C3069
:10233000844203D056485030844200D103E06E21DD
:1023400054A009F09AF920684FF6FE710840206009
:10235000002020606060A060E0604C48844208D1AA
:102360004A480838406840F00F004849083948603A
:102370008AE046481430844208D14448083840680E
:1023800040F0F0004149083948607DE03F4828307E
:10239000844208D13D480838406840F470603B49A9
:1023A0000839486070E039483C30844208D13748E9
:1023B0000838406840F4704034490839486063E0A8
:1023C00032485030844208D130480838406840F4E0
:1023D00070202E490839486056E02C486430844209
:1023E00008D12A480838406840F470002749083965
:1023F000486049E025487830844208D123480838AD
:10240000406840F070602149083948603CE020484D
:10241000844206D1001F006840F00F00211F0860B1
:1024200032E01B481430844208D11948001F00686C
:1024300040F0F0001649091F086025E014482830D4
:10244000844208D11248001F006840F470601049AF
:10245000091F086018E00E483C30844208D10C483F
:10246000001F006840F470400949091F08600BE034
:1024700007485030844207D10548001F006840F4E7
:1024800070200349091F086010BD000008000240C9
:10249000080402402E2E5C4C696272617269657399
:1024A0005C53544D3332463130785F537464506519
:1024B000726970685F4472697665725C7372635C9E
:1024C00073746D3332663130785F646D612E6300F2
:1024D00070B505460C4600265E4885422AD05D4808
:1024E0001430854226D05B482830854222D0594896
:1024F0003C3085421ED05748503085421AD055484E
:102500006430854216D053487830854212D0524804
:1025100085420FD05048143085420BD04E482830A9
:10252000854207D04C483C30854203D04A48503061
:10253000854200D103E0CE2148A009F09EF8A068B2
:10254000102801D0A06800B903E0CF2143A009F012
:1025500094F8E06820B1E068B0F5803F00D203E075
:10256000D0213EA009F089F82069402801D02069D7
:1025700000B903E0D12139A009F07FF86069802813
:1025800001D0606900B903E0D22134A009F075F8E8
:10259000A06938B1A069B0F5807F03D0A069B0F51B
:1025A000007F00D103E0D3212CA009F066F8E06998
:1025B00038B1E069B0F5806F03D0E069B0F5006F25
:1025C00000D103E0D42125A009F057F8206A202883
:1025D00001D0206A00B903E0D52120A009F04DF810
:1025E000606AB0F5405F09D0606AB0F5005F05D061
:1025F000606AB0F5805F01D0606A00B903E0D6215F
:1026000016A009F03AF8A06AB0F5804F01D0A06A90
:1026100000B903E0D72111A009F02FF82E6847F682
:10262000F0708643216AA068084321690843616904
:102630000843A1690843E1690843616A0843A16A44
:10264000084306432E60E06868602068A860606800
:10265000E86070BD08000240080402402E2E5C4C69
:1026600069627261726965735C53544D33324631ED
:1026700030785F5374645065726970685F44726942
:102680007665725C7372635C73746D33326631307D
:10269000785F646D612E63007047000038B50020DC
:1026A0000090802000F04EF890B16B4601220A485D
:1026B00001680A480BF0DAFF04464CB1009838B1C3
:1026C0004FF0805006490860BFF34F8FBFF36F8F04
:1026D000802000F007F838BDF800002031CE000857
:1026E00004ED00E010B50446200D000508B904B162
:1026F00003E0FB2102A008F0C0FF1148046010BDF8
:102700002E2E5C4C69627261726965735C53544D24
:102710003332463130785F53746450657269706843
:102720005F4472697665725C7372635C73746D3357
:1027300032663130785F657874692E63000000007E
:102740001404014070B5044600250026012C31D048
:10275000022C2FD0042C2DD0082C2BD0102C29D0BB
:10276000202C27D0402C25D0802C23D0B4F5807F7E
:1027700020D0B4F5007F1DD0B4F5806F1AD0B4F529
:10278000006F17D0B4F5805F14D0B4F5005F11D09E
:10279000B4F5804F0ED0B4F5004F0BD0B4F5803FA8
:1027A00008D0B4F5003F05D0B4F5802F02D0B4F5C1
:1027B000002F00D103E0E42108A008F05EFF1748D5
:1027C000006800EA0406154814300068204010B183
:1027D0000EB1012500E00025284670BD2E2E5C4C70
:1027E00069627261726965735C53544D333246316C
:1027F00030785F5374645065726970685F447269C1
:102800007665725C7372635C73746D3332663130FB
:10281000785F657874692E63000000000004014051
:1028200070B504460025207910B12079042800D124
:1028300003E0692135A008F020FF6079082805D061
:1028400060790C2802D06079102800D103E06A2159
:102850002EA008F012FF20686FF3130010B9206853
:1028600000B103E06B2129A008F007FFA07910B1A7
:10287000A079012800D103E06C2124A008F0FDFE1E
:10288000324DA07990B328460068216888432946D4
:102890000860081D006821688843291D08602079A8
:1028A00005442868216808432860284808300068E3
:1028B00021688843254908310860081D006821689F
:1028C000884322490C310860607910280FD1081F15
:1028D0000068216808431D4908310860081D006828
:1028E0002168084319490C3108600EE007E0174DD4
:1028F00060790544286821680843286005E020794C
:102900000544286821688843286070BD2E2E5C4CE1
:1029100069627261726965735C53544D333246313A
:1029200030785F5374645065726970685F4472698F
:102930007665725C7372635C73746D3332663130CA
:10294000785F657874692E63000000000004014020
:1029500070B505460C4600265DB1012D09D0022D4B
:1029600007D0032D05D0042D03D0052D01D0062D51
:1029700000D104E040F2622121A008F07EFEECB11B
:10298000012C1BD0022C19D0032C17D0042C15D0ED
:10299000052C13D0062C11D0072C0FD0082C0DD0ED
:1029A000092C0BD00A2C09D00B2C07D00C2C05D0ED
:1029B0000D2C03D00E2C01D00F2C00D104E040F2DE
:1029C00063210FA008F059FEA007010F0F2000FAA5
:1029D00001F61B48A11050F82100B0431849A2107D
:1029E00041F822000846A11050F82100A107090F64
:1029F00005FA01F108431249A21041F8220070BD06
:102A00002E2E5C4C69627261726965735C53544D21
:102A10003332463130785F53746450657269706840
:102A20005F4472697665725C7372635C73746D3354
:102A300032663130785F6770696F2E630000000086
:102A4000080001402DE9F05F05460C464FF00009F3
:102A5000CA4600260027B046B3465948854211D0E1
:102A6000584885420ED0584885420BD05748854279
:102A700008D05748854205D05648854202D056486E
:102A8000854200D103E0B12154A008F0F6FDE078C2
:102A9000A0B1E078042811D0E07828280ED0E078A2
:102AA00048280BD0E078142808D0E078102805D00A
:102AB000E0781C2802D0E078182800D103E0B22189
:102AC00046A008F0DAFD002010B9208800B103E02C
:102AD000B32142A008F0D1FDE07800F00F09E078C2
:102AE00000F0100080B1A078012805D0A07802285D
:102AF00002D0A078032800D103E0BA2137A008F063
:102B0000BCFDA07840EA0909207838B3D5F80080E8
:102B100000261FE0012000FA06F7208800EA070AD5
:102B2000BA4516D1B7000F2000FA07FB28EA0B08B8
:102B300009FA07F040EA0808E078282803D10120C4
:102B4000B040686105E0E078482802D10120B0403B
:102B50002861761C082EDDD3C5F800802088FF2868
:102B60002BDDD5F80480002623E006F108000121C2
:102B700001FA00F7208800EA070ABA4518D1B70021
:102B80000F2000FA07FB28EA0B0809FA07F040EAD1
:102B90000808E078282803D106F10800814069611F
:102BA000E078482804D106F108000121814029611C
:102BB000761C082ED9D3C5F80480BDE8F09F00002C
:102BC00000080140000C01400010014000140140C9
:102BD00000180140001C0140002001402E2E5C4CDA
:102BE00069627261726965735C53544D3332463168
:102BF00030785F5374645065726970685F447269BD
:102C00007665725C7372635C73746D3332663130F7
:102C1000785F6770696F2E63000000002DE9F04750
:102C200004460E460027B8460025A946012C7DD053
:102C3000022C7BD0042C79D0082C77D069488442B0
:102C40007FD06848203084427BD06748844278D067
:102C500065488030844274D06448844271D06448AE
:102C600084426ED0634884426BD06348844268D00B
:102C70006248844265D0B4F5805F62D0B4F5EA1F43
:102C80005FD0B4F5EB1F5CD0B4F5004F59D05C4871
:102C9000844256D0401C844253D0801C844250D081
:102CA000001D84424DD056480F30844249D0B4F1C3
:102CB000201F46D04FEAF030844242D0514884422F
:102CC0003FD0514884423CD05048844239D050488B
:102CD000844236D04F48844233D0B4F5011F30D0FF
:102CE0004D4884422DD0401C84422AD0801C84420E
:102CF00027D0001D844224D047480F30844220D082
:102D000045481F3084421CD043483F30844218D08D
:102D100041487F30844214D03F48FF30844210D075
:102D20003E4884420DD03E48844200E009E008D08D
:102D30003C48844205D03C48844202D03B4884420F
:102D400000D104E040F2272139A008F096FC0EB132
:102D5000012E00D104E04FF40A7135A008F08DFC7B
:102D600004F00040B0F1004F02D14148C56901E0D4
:102D70003F484568C4F30349A7B204F44010B0F5D6
:102D8000401F08D125F070653948406820F0706018
:102D90003749486013E004F48010B0F5801F07D174
:102DA000032000FA09F825EA080545F0706506E0F9
:102DB000600D000107FA00F0854345F0706526B10B
:102DC000600D010107FA01F0054304F00040B0F185
:102DD000004F02D12648C56101E025484560BDE8A5
:102DE000F0870000100014004000160000011800D9
:102DF000000218000003180000081A00000C1A0056
:102E0000010020000001300000023000000430000A
:102E1000001020000020200001000080000200803F
:102E20000004008000080080001000800020008066
:102E30002E2E5C4C69627261726965735C53544DED
:102E40003332463130785F5374645065726970680C
:102E50005F4472697665725C7372635C73746D3320
:102E600032663130785F6770696F2E630000000052
:102E70000000014070B504460D461348844211D04D
:102E8000124884420ED0124884420BD0114884422A
:102E900008D01148844205D01048844202D010481E
:102EA000844200D104E04FF4BC710EA008F0E5FBB1
:102EB000002008B905B104E040F2791109A008F03A
:102EC000DCFB656170BD000000080140000C0140A2
:102ED000001001400014014000180140001C014096
:102EE000002001402E2E5C4C69627261726965732C
:102EF0005C53544D3332463130785F5374645065BF
:102F0000726970685F4472697665725C7372635C43
:102F100073746D3332663130785F6770696F2E631A
:102F20000000000070B504460D461348844211D0DD
:102F3000124884420ED0124884420BD01148844279
:102F400008D01148844205D01048844202D010486D
:102F5000844200D104E04FF4B4710EA008F08DFB60
:102F6000002008B905B104E040F2691109A008F099
:102F700084FB256170BD000000080140000C014089
:102F8000001001400014014000180140001C0140E5
:102F9000002001402E2E5C4C69627261726965737B
:102FA0005C53544D3332463130785F53746450650E
:102FB000726970685F4472697665725C7372635C93
:102FC00073746D3332663130785F6770696F2E636A
:102FD0000000000070B505460C4616462B48854299
:102FE00011D02B4885420ED02A4885420BD02A4862
:102FF000854208D02948854205D02948854202D01B
:103000002848854200D104E04FF4C67126A008F09C
:1030100034FB012C25D0022C23D0042C21D0082CE9
:103020001FD0102C1DD0202C1BD0402C19D0802C50
:1030300017D0B4F5807F14D0B4F5007F11D0B4F56B
:10304000806F0ED0B4F5006F0BD0B4F5805F08D060
:10305000B4F5005F05D0B4F5804F02D0B4F5004F51
:1030600000D104E040F28D110FA008F006FB0EB174
:10307000012E00D104E04FF4C7710BA008F0FDFA57
:103080000EB12C6100E06C6170BD000000080140D1
:10309000000C0140001001400014014000180140E4
:1030A000001C0140002001402E2E5C4C69627261C0
:1030B000726965735C53544D3332463130785F53D7
:1030C00074645065726970685F4472697665725C99
:1030D0007372635C73746D3332663130785F67701E
:1030E000696F2E63000000000148024908607047C4
:1030F000394D00083C0000202DE9F04705460E46FA
:10310000174698461C48D0F81100B0F5005F14D35C
:103110004FF0000908E01849D1F8090003F00AFF50
:103120008146484609F036FF1349D1F8090003F0FB
:10313000DBFE0028EFD0BDE8F087102009F01AFB75
:10314000044625606660781B401CA060A8EB060062
:10315000401CE0600848D0F81100D4E9021201FBDD
:1031600002000549C1F81100D1F80900214603F019
:1031700013FF00BFDFE700003C05002070474FF45D
:103180007A71484300BF011EA0F10100FBD17047D6
:1031900010B5029C10BD704710B511481149086068
:1031A00008460068104908600E4908684FF48061BD
:1031B000FDF754FB00200B490872486003F070FED5
:1031C0000849C1F809000020C1F80D00C1F811003C
:1031D000C1F8150003F048FA02F0BEFB10BD000074
:1031E0003C0100203C0500204C00002038B50024A4
:1031F0000D4800683F237F220021009008460B4DB8
:103200002D68A84708E00849D1F8090003F092FEAC
:103210000446204609F0BEFE0349D1F8090003F038
:1032200063FE0028EFD038BD3C0500203C000020A4
:1032300070B52348D0F8090000B970BD00242048BB
:10324000D0F81100B0F5005F17D33F237F22002193
:10325000084600F037F808E01949D1F8090003F0F2
:1032600069FE0446204609F095FE1549D1F809008B
:1032700003F03AFE0028EFD01CE014E01049D1F82A
:10328000090003F057FE0446E668656835446B1E86
:10329000A668256835446A1ED4E9000100F012F8DA
:1032A000204609F077FE0649D1F8090003F01CFE1C
:1032B0000028E3D000200249C1F8110000BFBCE79C
:1032C0003C0500202DE9F04F87B00446884615469E
:1032D00099462248006848B3281B00F1010A4FEACA
:1032E000E8064FEAE907B81B401C0690069A0AFB5D
:1032F00002F009F03FFA05901948CDE90257CDE9EF
:103300000046016880230122059807F04FF88346A4
:103310004B462A46414600902046DFF840C0DCF884
:1033200000C0E047059809F035FE14E0464610E07D
:1033300027460BE00A480068F11000EBC110C25D9F
:1033400031463846074B1B6898477F1CAF42F1DD7A
:10335000761C4E45ECDD07B0BDE8F08F3C00002048
:103360003C050020400000200348007A012800D1DD
:1033700070470020FCE700003C05002070B50446C3
:103380002C2009F0F7F9054605B104E04FF4EF7180
:103390000FA008F072F904B104E040F2DF110CA0B4
:1033A00008F06BF92C2221462846FDF707FA94F91C
:1033B0001C10880009F0DEF9286294F91C309A008C
:1033C000216A286AFDF7FAF90020A862284670BD34
:1033D0002E2E5C2E2E5C636F72655C476C75636F7E
:1033E0006F5C6D656E755C474C555F6D656E752ED7
:1033F000630000002DE9FC4105462C46A06A09F057
:10340000C9FD206A09F0C6FD0020A06202F0E2FBBF
:10341000A07903F01DFD02201949CDE900102769AC
:10342000A6693E44731EE76866693E44721E3846CC
:10343000216903F02DF9FFF797FF60B12769A669AD
:103440003E44731EE76866693E44721E3846216931
:10345000FFF738FF0BE02769A6693E44731EE76853
:1034600066693E44721E38462169FFF745FE2046D4
:1034700009F090FD03F0A0FA0020BDE8FC810000F7
:103480004C0000202DE9FC4105460E4605B104E044
:103490004FF4097110A008F0F0F82C4602F09AFBE6
:1034A00002F0F6F88EB102201449CDE90010D4F8EC
:1034B00010C0A76967447B1ED4F80CC067696744D5
:1034C0007A1E6046216903F031FA03F075FA02F0C2
:1034D000A9FA0020BDE8FC812E2E5C2E2E5C636FC5
:1034E00072655C476C75636F6F5C6D656E755C478C
:1034F0004C555F6D656E752E630000004C0000201A
:103500002DE9F04106463446A56A02F063FB02F05D
:10351000BFF8607A02F0FCFA002D26D1072009F0EE
:1035200029F9054605B104E04FF4007125A008F023
:10353000A4F8A5620C20A870E8700020287095F906
:103540000210A069B0FBF1F040B2A8710820287108
:10355000687195F90310A069401A95F90210B0FB43
:10356000F1F040B2A87100206870204604F0BAFD66
:10357000204604F055FC03F01FFA02F053FAFFF75F
:10358000F3FE70B1D4F810C0A76967447B1ED4F86D
:103590000CC0676967447A1E60462169FFF792FE96
:1035A0000DE0D4F810C0A76967447B1ED4F80CC0A6
:1035B000676967447A1E60462169FFF79DFD002018
:1035C000BDE8F0812E2E5C2E2E5C636F72655C4729
:1035D0006C75636F6F5C6D656E755C474C555F6DA8
:1035E000656E752E630000002DE9F04105460E461C
:1035F0002C46A06A10B90020BDE8F08102F0EAFA7A
:1036000002F046F8B6F1FF3F05D016B1012E06D004
:1036100000BF0020F0E7204606F0F8FA03E020465D
:1036200005F0B2FF00BF00BF03F0C6F902F0FAF9DF
:10363000FFF79AFE70B1D4F810C0A76967447B1EEB
:10364000D4F80CC0676967447A1E60462169FFF7A9
:1036500039FE0DE0D4F810C0A76967447B1ED4F88A
:103660000CC0676967447A1E60462169FFF744FD14
:103670000020C1E72DE9F04105460E4617462C46CD
:1036800004B104E040F2DA311EA007F0F6FF206C2E
:1036900000B104E040F2DB311AA007F0EEFF3A4639
:1036A0003146A06BFCF7D1FF2046A16C8847FFF79D
:1036B0005BFE90B1D4F804C0D4F80C80C444ACF1E3
:1036C0000103D4F800C0D4F80880C444ACF101026E
:1036D000D4E90001FFF7F6FD11E0D4F804C0D4F8F6
:1036E0000C80C444ACF10103D4F800C0D4F80880C5
:1036F000C444ACF10102D4E90001FFF7FDFC002055
:10370000BDE8F0812E2E5C2E2E5C636F72655C47E7
:103710006C75636F6F5C6F626A6563745C474C5570
:103720005F6F626A6563742E6300000070B50546C2
:10373000502009F01FF8044604B104E040F2313192
:103740003FA007F09AFF05B104E040F232313CA0FF
:1037500007F093FF284604F017FB50222946204625
:10376000FDF72CF80020E064207C07285ED2DFE81B
:1037700000F004101C28345D40003B4820643B48A6
:1037800060643B48A0640421012008F0E4FFA063CA
:1037900052E038482064384860643848A064042106
:1037A000012008F0D8FFA06346E035482064354882
:1037B00060643548A0640421012008F0CCFFA063B8
:1037C0003AE032482064324860643248A064012103
:1037D000084608F0C0FFA0632EE02F4820642F4861
:1037E00060642F48A0640C21012008F0B4FFA0639E
:1037F00022E02C4820642C4860642C48A0641821E6
:10380000012008F0A8FFA0636420A16B88606421F8
:10381000A06BC1600020A16B08610021A06B416119
:103820003220A16B0860A16B486005E04FF459712C
:1038300003A007F022FF00BF00BF204670BD0000BC
:103840002E2E5C2E2E5C636F72655C476C75636F09
:103850006F5C6F626A6563745C474C555F6F626A48
:103860006563742E63000000598E000825940008DB
:103870007D7D0008D989000801930008657D000856
:10388000D1830008899200084D7D0008998C0008BA
:103890000D930008717D0008A18200087191000855
:1038A000417D0008DD86000895920008597D0008DA
:1038B0002DE9FC4105462C46E06C09F06BFBA06B42
:1038C00009F068FB0020E06402F084F901F0E0FEFA
:1038D000207F03F0BDFA02201A49CDE90010E76805
:1038E00066683E44731EA76826683E44721ED4E98B
:1038F000000102F0CDFEFFF737FD60B1E7686668B2
:103900003E44731EA76826683E44721ED4E9000137
:10391000FFF7D8FC0BE0E76866683E44731EA768B3
:1039200026683E44721ED4E90001FFF7E5FB2046FD
:1039300009F030FB03F040F802F074F80020BDE815
:10394000FC8100004C0000202DE9FC4105460E469C
:1039500005B104E040F2A9312CA007F08EFE2C4600
:1039600002F038F9AEB1E07E03F072FA022031497C
:10397000CDE90010D4F80CC0676867447B1ED4F80A
:1039800008C0276867447A1ED4E9000102F0CEFF20
:1039900014E0207F03F05CFA02202649CDE90010F4
:1039A000D4F80CC0676867447B1ED4F808C0276849
:1039B00067447A1ED4E9000102F0B8FF84F83C6045
:1039C00002F0FAFFFFF7D0FC70B1D4F80CC06768C2
:1039D00067447B1ED4F808C0276867447A1ED4E980
:1039E0000001FFF76FFC0DE0D4F80CC06768674476
:1039F0007B1ED4F808C0276867447A1ED4E900010A
:103A0000FFF77AFB0020BDE8FC8100002E2E5C2E23
:103A10002E5C636F72655C476C75636F6F5C6F6281
:103A20006A6563745C474C555F6F626A6563742EA8
:103A3000630000004C0000202DE9F04105462C46B3
:103A400004B104E040F2C63116A007F016FE206C67
:103A500000B104E040F2C73112A007F00EFE20468C
:103A6000216C8847FFF780FC60B1E76866683E44D8
:103A7000731EA76826683E44721ED4E90001FFF752
:103A800021FC0BE0E76866683E44731EA768266861
:103A90003E44721ED4E90001FFF72EFB0020BDE872
:103AA000F08100002E2E5C2E2E5C636F72655C47E9
:103AB0006C75636F6F5C6F626A6563745C474C55CD
:103AC0005F6F626A6563742E630000002DE9F84F32
:103AD0000446894604B104E04FF45B7177A007F017
:103AE000CCFDB9F1070F00DA04E040F26D3173A0AC
:103AF00007F0C3FD0FF2EC1A84F81090012084F84F
:103B00003C00B9F1070F73D2DFE809F0040506861F
:103B1000ADD3C10000BF00BF00202077FF20E076BA
:103B2000002060740220A07608202083C4F814A02E
:103B30005046FCF76BFDB4F918104843802801D3B8
:103B400080200EE05046FCF761FDB4F918104843A0
:103B500008B9002005E05046FCF758FDB4F91810EC
:103B60004843A060B4F91800B0EBE00F02DCB4F9F0
:103B700018000AE0B4F918000121B1EBE00F01DBF5
:103B8000012002E0B4F91800C010B4F9181001EBDC
:103B90008000402801D3402032E0B4F91800B0EB97
:103BA000E00F02DCB4F918000AE0B4F918000121B2
:103BB000B1EBE00F01DB012002E0B4F91800C01006
:103BC000B4F9181001EB8000002801DC002017E098
:103BD000B4F91800B0EBE00F02DCB4F918000BE008
:103BE000B4F918000121B1EBE00F02DB012003E082
:103BF0005FE0B4F91800C010B4F9181001EB8000B0
:103C0000E060A068C0F1800040102060E068C0F172
:103C10004000401060604DE000202077E0764FF0DB
:103C200085414FF0864007F05DFF304900900AF073
:103C30006BFF83460AF03CFF07462D4A2D4B0AF0E6
:103C40005BFD05460AF0B0FEA060A0684008E06099
:103C5000A068C0F1800040102060E068C0F1400022
:103C60004010606026E000202077FF20E0762020D2
:103C7000A060A068C008E060A068C0F180004010AB
:103C80002060E068C0F140004010606012E0002059
:103C90002077FF20E0762020E060A060A068C0F1DF
:103CA000800040102060E068C0F14000401060607B
:103CB00000E000BF00BF0020BDE8F88F2E2E5C2E74
:103CC0002E5C636F72655C476C75636F6F5C6F62CF
:103CD0006A6563745C474C555F6F626A6563742EF6
:103CE0006300000044454D4F000000000080214467
:103CF000CDCCCCCCCC4C3A4000BFFEE72DE9F04710
:103D000005460C460027B9460026B0463348854292
:103D100002D03348854200D104E040F2DF3131A0C7
:103D200007F0ABFC3E4884423DD0B4F1021F3AD0CC
:103D30003C48844237D0B4F5020F34D0B4F5901F1C
:103D400031D0394884422ED0384884422BD038486C
:103D5000844228D03248801C844224D03148001D3F
:103D6000844220D0334884421DD0102C1BD03248CE
:103D7000844218D03148844215D02F48401C8442D8
:103D800011D02D483F3084420DD02C48801C8442F5
:103D900009D0001F844206D02748C01D844202D0AB
:103DA000B4F5806F00D104E04FF478710DA007F0F6
:103DB00064FCB5F814902E8B360449EA060020F016
:103DC0007F4707EA0400A04202D14FF0010801E05A
:103DD0004FF000084046BDE8F08700000054004066
:103DE000005800402E2E5C4C6962726172696573E6
:103DF0005C53544D3332463130785F5374645065B0
:103E0000726970685F4472697665725C7372635C34
:103E100073746D3332663130785F6932632E6300BC
:103E20008200060080008600400002004000820000
:103E30004000120084001600010003008200070009
:103E400070B504460D461048844202D00F488442A3
:103E500000D104E04FF4A2710DA007F00EFC0DB1EB
:103E6000012D00D104E040F2451109A007F005FC46
:103E700025B1208840F00100208004E020884FF622
:103E8000FE710840208070BD005400400058004082
:103E90002E2E5C4C69627261726965735C53544D7D
:103EA0003332463130785F5374645065726970689C
:103EB0005F4472697665725C7372635C73746D33B0
:103EC00032663130785F6932632E630010B5044684
:103ED0001048844202D01048844200D103E0A4215B
:103EE0000EA007F0CAFB0B48844209D10121480506
:103EF00000F052FC00214FF4001000F04DFC08E0EF
:103F00000121880500F048FC00214FF4800000F0FA
:103F100043FC10BD00540040005800402E2E5C4C65
:103F200069627261726965735C53544D3332463114
:103F300030785F5374645065726970685F44726969
:103F40007665725C7372635C73746D3332663130A4
:103F5000785F6932632E630070B504460D461048E1
:103F6000844202D00F48844200D104E04FF4C6716D
:103F70000DA007F082FB0DB1012D00D104E040F24D
:103F80008D1109A007F079FB25B1208840F48070DD
:103F9000208004E020884FF6FF610840208070BD3B
:103FA00000540040005800402E2E5C4C6962726143
:103FB000726965735C53544D3332463130785F53C8
:103FC00074645065726970685F4472697665725C8A
:103FD0007372635C73746D3332663130785F69324B
:103FE000632E630070B504460D461048844202D02B
:103FF0000F48844200D104E04FF4D2710DA007F0C5
:104000003CFB0DB1012D00D104E040F2A51109A047
:1040100007F033FB25B1208840F40070208004E0D5
:1040200020884FF6FF510840208070BD00540040AA
:10403000005800402E2E5C4C696272617269657393
:104040005C53544D3332463130785F53746450655D
:10405000726970685F4472697665725C7372635CE2
:1040600073746D3332663130785F6932632E63006A
:104070007CB505460C46002600200190009036488D
:10408000854202D03548854200D104E040F24541E6
:1040900033A007F0F2FAB4F5000F3FD0B4F5800F6B
:1040A0003CD0B4F5001F39D0B4F5801F36D0B4F53C
:1040B000802F33D0B4F5003F30D0B4F5803F2DD001
:1040C000364884422AD03648844227D0B4F1102F93
:1040D00024D03448844221D0334884421ED033480F
:1040E00084421BD03248844218D031488038844200
:1040F00014D02F48C038844210D02D48F038844264
:104100000CD02B48F838844208D0001F844205D0D8
:10411000801E844202D0401E844200D104E040F25E
:1041200046410FA007F0A9FA0095200F019024F056
:104130007F44019818B100981430009003E0240CDB
:1041400000981830009000980068204008B10126BF
:1041500000E0002630467CBD00540040005800407E
:104160002E2E5C4C69627261726965735C53544DAA
:104170003332463130785F537464506572697068C9
:104180005F4472697665725C7372635C73746D33DD
:1041900032663130785F6932632E63000080001030
:1041A0000040001000080010000400100002001081
:1041B000000100102DE9F04385B005460C460026AD
:1041C000B1460427DFF870815C48854202D05C4824
:1041D000854200D103E0C5215AA007F04EFA2068BD
:1041E00020B167492068884200D803E0C62155A065
:1041F00007F043FAA08828B1A088022802D0A0883E
:104200000A2800D103E0C7214EA007F036FAE08863
:10421000B0F5804F04D0E0884BF6FF71884200D1A2
:1042200003E0C82147A007F028FA2089B0F5806F85
:1042300000DA03E0C92143A007F01FFA6089B0F556
:10424000806F01D0608900B903E0CA213DA007F06A
:1042500014FAA089B0F5804F03D0A089B0F5404F83
:1042600000D103E0CB2137A007F007FAAE884FF664
:10427000C0700640684600F01BFBDDF8088041482E
:10428000B8FBF0F01FFA80F946EA0906AE802888EC
:104290004FF6FE710840288000263B49206888427E
:1042A0000CD820684000B8FBF0F087B2042F00DA89
:1042B00004273E4309F10100288427E0E0884BF6FB
:1042C000FF71884206D1206800EB4000B8FBF0F097
:1042D00087B209E0206800EBC00101EB0010B8FBD9
:1042E000F0F087B247F48047C7F30B0008B947F0F6
:1042F000010747F4004006434FF4967009FB00F0B5
:104300004FF47A7190FBF1F0401C2884AE8328882A
:1043100040F0010028802E884FF6F5300640A08836
:104320006189084306432E80A0892189084328819A
:1043300005B0BDE8F083000000127A000054004090
:10434000005800402E2E5C4C696272617269657380
:104350005C53544D3332463130785F53746450654A
:10436000726970685F4472697665725C7372635CCF
:1043700073746D3332663130785F6932632E630057
:10438000801A060040420F00A086010070B5044666
:104390000E4615460E48844202D00E48844200D193
:1043A00004E040F25B210CA007F067F90DB1012D8C
:1043B00000D104E04FF4177107A007F05EF915B1C2
:1043C00046F0010602E04FF6FE700640268270BD00
:1043D00000540040005800402E2E5C4C696272610F
:1043E000726965735C53544D3332463130785F5394
:1043F00074645065726970685F4472697665725C56
:104400007372635C73746D3332663130785F693216
:10441000632E630070B504460D460748844202D0FF
:104420000648844200D104E04FF40F7104A007F065
:1044300024F9258270BD000000540040005800405F
:104440002E2E5C4C69627261726965735C53544DC7
:104450003332463130785F537464506572697068E6
:104460005F4472697665725C7372635C73746D33FA
:1044700032663130785F6932632E630010B503F025
:104480005FFB03F04DFB03F01DFC03F019FB03F091
:10449000CFFA10BD10B503F083FB10BD10B5044674
:1044A0002CB14FF400510548FEF7E4FC04E04FF452
:1044B00000510248FEF736FD10BD0000001001401B
:1044C00000BFFEE7704700001CB50020009001907F
:1044D000002208210D48FEF77DFD05220C49302001
:1044E00007F04EF805226946102005F093FF0021E1
:1044F00008E01DF80100064A525C904201D00020FD
:104500001CBD491C0529F4DB0120F9E7000C014022
:104510003000002010B503F079FB03F0E7FBFFF754
:10452000D3FF00B910BD00BFFCE700002DE9F0414A
:104530000446002500270F26E07810B1E078012816
:1045400000D103E0742121A007F097F860781028CB
:1045500000DA03E075211DA007F08FF8A07810287D
:1045600000DA03E0762119A007F087F8E07800B3BD
:104570002348006800F4E060C0F5E060050AC5F17A
:104580000407EE40607800FA07F5A0783040054354
:104590002D011C4822788554207800F01F0101204D
:1045A000884021784911890001F1E021C1F800011A
:1045B00009E0207800F01F0101208840124922788C
:1045C000521141F82200BDE8F08100002E2E5C4C13
:1045D00069627261726965735C53544D333246315E
:1045E00030785F5374645065726970685F447269B3
:1045F0007665725C7372635C6D6973632E63000031
:104600000CED00E000E400E080E100E010B50446BD
:10461000B4F5E06F0BD0B4F5C06F08D0B4F5A06F5F
:1046200005D0B4F5806F02D0B4F5407F00D103E02F
:10463000622104A007F021F80F4820430F490860C9
:1046400010BD00002E2E5C4C696272617269657348
:104650005C53544D3332463130785F537464506547
:10466000726970685F4472697665725C7372635CCC
:104670006D6973632E6300000000FA050CED00E025
:1046800070B504460D4640F2575024EA000008B9C0
:1046900004B104E040F22A410CA006F0EEFF0DB197
:1046A000012D00D104E040F22B4108A006F0E5FF07
:1046B0002DB11548406920431349486104E0124870
:1046C0004069A0431049486170BD00002E2E5C4C2B
:1046D00069627261726965735C53544D333246315D
:1046E00030785F5374645065726970685F447269B2
:1046F0007665725C7372635C73746D3332663130ED
:10470000785F7263632E63000010024070B5044648
:104710000D461048204008B904B104E04FF48D6103
:104720000DA006F0AAFF0DB1012D00D104E040F26A
:10473000694109A006F0A1FF2DB11648C0692043C8
:104740001449C86104E01348C069A0431149C86115
:1047500070BD0000003601812E2E5C4C69627261D2
:10476000726965735C53544D3332463130785F5310
:1047700074645065726970685F4472697665725CD2
:104780007372635C73746D3332663130785F726359
:10479000632E63000010024070B504460D461048B9
:1047A000204008B904B104E040F2C2410DA006F077
:1047B00064FF0DB1012D00D104E040F2C34109A016
:1047C00006F05BFF2DB116480069204314490861CB
:1047D00004E013480069A0431149086170BD00005E
:1047E000003601812E2E5C4C6962726172696573BC
:1047F0005C53544D3332463130785F5374645065A6
:10480000726970685F4472697665725C7372635C2A
:1048100073746D3332663130785F7263632E630078
:104820000010024070B504460D461048204008B9FB
:1048300004B104E040F249410DA006F01EFF0DB1A5
:10484000012D00D104E040F24A4109A006F015FF15
:104850002DB11648806920431449886104E013484B
:104860008069A0431149886170BD00000200C0FF4B
:104870002E2E5C4C69627261726965735C53544D93
:104880003332463130785F537464506572697068B2
:104890005F4472697665725C7372635C73746D33C6
:1048A00032663130785F7263632E6300001002401D
:1048B00030B500210022002400232D4D6D6805F045
:1048C0000C0121B1042905D0082923D105E0294D87
:1048D000056022E0274D05601FE0254D6D6805F459
:1048E0007012234D6D6805F48034022505EB924269
:1048F0001CB9214D554305600BE01D4D6D6805F455
:1049000000351DB11C4D5543056002E0194D55435E
:10491000056002E0174D056000BF00BF144D6D68D3
:1049200005F0F0010909154D6B5C0568DD40456037
:104930000F4D6D6805F4E061090A104D6B5C456828
:10494000DD4085600A4D6D6805F46051C90A0B4D64
:104950006B5C4568DD40C560054D6D6805F4404100
:10496000890B074D6B5CC568B5FBF3F5056130BD80
:104970000010024000127A0000093D0004000020EF
:104980001400002070B504460D461248844205D03C
:104990001148844202D01148844200D104E040F220
:1049A000AD110FA006F069FE0DB1012D00D104E09C
:1049B0004FF4D7710AA006F060FE25B1208840F0C0
:1049C0004000208004E020884FF6BF71084020801E
:1049D00070BD00000030014000380040003C004045
:1049E0002E2E5C4C69627261726965735C53544D22
:1049F0003332463130785F53746450657269706841
:104A00005F4472697665725C7372635C73746D3354
:104A100032663130785F7370692E630070B5054679
:104A20000C4600261648854205D01648854202D01D
:104A30001548854200D104E040F2013113A006F090
:104A40001CFE802C0DD0402C0BD0202C09D0102C1B
:104A500007D0082C05D0042C03D0022C01D0012C47
:104A600000D104E040F2023108A006F006FE2889D9
:104A7000204008B1012600E00026304670BD00004D
:104A80000030014000380040003C00402E2E5C4CBD
:104A900069627261726965735C53544D3332463199
:104AA00030785F5374645065726970685F447269EE
:104AB0007665725C7372635C73746D333266313029
:104AC000785F7370692E630010B50446084884420D
:104AD00005D00848844202D00748844200D104E04F
:104AE00040F2352105A006F0C8FDA08910BD0000E8
:104AF0000030014000380040003C00402E2E5C4C4D
:104B000069627261726965735C53544D3332463128
:104B100030785F5374645065726970685F4472697D
:104B20007665725C7372635C73746D3332663130B8
:104B3000785F7370692E630070B504460D460848AF
:104B4000844205D00748844202D00748844200D1FD
:104B500004E040F2252105A006F08FFDA58170BD7F
:104B60000030014000380040003C00402E2E5C4CDC
:104B700069627261726965735C53544D33324631B8
:104B800030785F5374645065726970685F4472690D
:104B90007665725C7372635C73746D333266313048
:104BA000785F7370692E630070B505460C46002669
:104BB0004F48854205D04F48854202D04E48854235
:104BC00000D103E0A2214DA006F057FD208858B186
:104BD0002088B0F5806F07D02088B0F5004F03D053
:104BE0002088B0F5404F00D103E0A52143A006F096
:104BF00044FD6088B0F5827F01D0608800B903E091
:104C0000A6213EA006F039FDA088B0F5006F01D0C6
:104C1000A08800B903E0A72138A006F02EFDE088A7
:104C200010B1E088022800D103E0A82133A006F0EB
:104C300024FD208910B12089012800D103E0A92199
:104C40002EA006F01AFD6089B0F5007F01D06089C2
:104C500000B903E0AA2129A006F00FFDA089A0B1A8
:104C6000A089082811D0A08910280ED0A089182862
:104C70000BD0A089202808D0A089282805D0A08999
:104C8000302802D0A089382800D103E0AB211BA036
:104C900006F0F3FCE08910B1E089802800D103E040
:104CA000AC2116A006F0E9FC208A012800DB03E015
:104CB000AD2112A006F0E1FC2E8806F441562088B2
:104CC00061880843A1880843E18808432189084393
:104CD00061890843A1890843E189084306432E807E
:104CE000A88B4FF2FF710840A883208A288270BDEC
:104CF0000030014000380040003C00402E2E5C4C4B
:104D000069627261726965735C53544D3332463126
:104D100030785F5374645065726970685F4472697B
:104D20007665725C7372635C73746D3332663130B6
:104D3000785F7370692E63002DE9FE4F04460D46BF
:104D400016461F46DDF830A0002C02DB802C00DA6E
:104D500003E0AB212EA006F090FC002E02DB802E9B
:104D600000DA03E0AC212AA006F087FC002D02DB6C
:104D7000402D00DA03E0AD2125A006F07EFC002FD7
:104D800002DB402F00DA03E0AE2121A006F075FC23
:104D9000B44201DA204600E030468046B44201DDEC
:104DA000204600E030460290BD4201DA284600E08D
:104DB00038464FEAE00BBD4201DD284600E03846A8
:104DC000C0100190D9461EE009F1B001C8B206F04A
:104DD0003FFC08F00F0006F03BFC102141EA2811CF
:104DE000C8B206F035FCCDF8008006E01AF8010BD9
:104DF00006F035FC0098401C00900299009888420B
:104E0000F4DD09F1010901988145DDDDBDE8FE8F82
:104E10002E2E5C4253505C737364313330362E63F4
:104E20000000000070B5002413E004F1B001C8B226
:104E300006F00EFC002006F00BFC102006F008FC2B
:104E4000002503E0002006F00AFC6D1C802DF9D33C
:104E5000641C082CE9D370BD10B502F007FF642074
:104E600006F01AFEAE2006F0F3FB202006F0F0FB61
:104E7000102006F0EDFBB02006F0EAFBC82006F09B
:104E8000E7FB002006F0E4FB102006F0E1FB4020E9
:104E900006F0DEFB812006F0DBFBFF2006F0D8FBEE
:104EA000A12006F0D5FBA62006F0D2FBA82006F034
:104EB000CFFB3F2006F0CCFBA42006F0C9FBD3209B
:104EC00006F0C6FB002006F0C3FBD52006F0C0FBB1
:104ED000F02006F0BDFBD92006F0BAFB222006F038
:104EE000B7FBDA2006F0B4FB122006F0B1FBDB20A2
:104EF00006F0AEFB202006F0ABFB8D2006F0A8FBF1
:104F0000142006F0A5FBAF2006F0A2FBFFF78AFFF6
:104F100010BD10B500F002F810BD00000CB5002067
:104F2000019000903348006840F4803031490860B7
:104F300000BF3048006800F4003000900198401C29
:104F40000190009818B90198B0F5A06FF1D12948E7
:104F5000006800F4003010B10120009001E0002052
:104F600000900098012843D12348006840F01000C9
:104F7000214908600846006820F0030008600846E0
:104F8000006840F0020008601A484068194948600B
:104F90000846406848600846406840F480604860C1
:104FA0000846406820F47C1048600846406840F499
:104FB000E81048600846006840F08070086000BF54
:104FC0000C48006800F000700028F9D009484068DB
:104FD00020F00300074948600846406840F002009E
:104FE000486000BF0348406800F00C000828F9D171
:104FF0000CBD0000001002400020024010B5044625
:10500000042C01D0601D00B903E0C8210BA006F0FC
:1050100034FB042C08D14FF0E020006940F004007C
:105020004FF0E021086107E04FF0E020006920F038
:1050300004004FF0E021086110BD00002E2E5C4CF2
:1050400069627261726965735C53544D33324631E3
:1050500030785F5374645065726970685F44726938
:105060007665725C7372635C6D6973632E630000B6
:1050700010B508F02BFE10BD10B51348006840F0C5
:1050800001001149086008464068104908400E496F
:105090004860084600680E4908400B490860084609
:1050A000006820F4802008600846406820F4FE0074
:1050B00048604FF41F008860FFF72BFF4FF000603F
:1050C0000449086010BD0000001002400000FFF815
:1050D000FFFFF6FE08ED00E000BFFEE7490050EAE2
:1050E000C12018BF04204A0D18BF40F0010040F253
:1050F000FF72B2EB515F08BF40F00200012808BF09
:10510000052070474100080218BF04200A0E18BF8E
:1051100040F001004FF07F4232EA010108BF40F049
:105120000200012808BF052070470000F0B50446C2
:1051300017461E685A689D68944205D2A94203D258
:10514000002C01DB002901DA0020F0BD0C48D0F86A
:1051500014C0006A081A0CFB0040DFF824C0DCF819
:105160001CC0A0EB0C00DFF818C0DCF810C01CF865
:10517000000001FB026C0CF804000020E5E70000D1
:105180000C0100202DE9F84F06460C4691461D46BD
:1051900005B103E0EC212AA006F06FFA286800B1FF
:1051A00003E0ED2126A006F068FA6F68D5F808A0A4
:1051B000BE4205D2544503D2002E01DB002C02DA98
:1051C0000120BDE8F88FE11001FB0761286810F8A5
:1051D0000180B9F1000F01D0012200E0002200920D
:1051E0002046E11704EB5171C910A4EBC10148FA44
:1051F00001F101F0010B009A82EA0B025AB9214633
:10520000E21704EB5272D210A4EBC20201239340C6
:1052100028EA03020AE02046E21704EB5272D21099
:10522000A4EBC20301229A4042EA08024FEAE40CCE
:105230000CFB076C2B6803F80C200020C1E7000072
:105240002E2E5C2E2E5C636F72655C426C61636B0C
:10525000486F7573655C424C4B5F6772617068693B
:10526000632E63002DE9F04706460C4691461D4625
:1052700005B103E06C2120A006F0FFF9286800B119
:1052800003E06D211CA006F0F8F96F68D5F808A0BE
:10529000BE4205D2544503D2002E01DB002C02DAB7
:1052A0000120BDE8F087E11001FB0761286810F8D4
:1052B0000180B9F1000F0BD12146E21704EB5272C5
:1052C000D210A4EBC20301229A4028EA02020AE0AB
:1052D0002046E21704EB5272D210A4EBC203012263
:1052E0009A4042EA08024FEAE40C0CFB076C2B6878
:1052F00003F80C200020D4E72E2E5C2E2E5C636F6A
:1053000072655C426C61636B486F7573655C424C9F
:105310004B5F677261706869632E63002DE9F84F17
:1053200005460E4691461C4604B103E09B2112A09F
:1053300006F0A3F9206800B103E09C210EA006F05E
:105340009CF9D4F800806768D4F808A0BD4205D263
:10535000564503D2002D01DB002E02DA4846BDE897
:10536000F88F06FB0780405D00909DF8000006FB6B
:10537000078148550020F2E72E2E5C2E2E5C636FCD
:1053800072655C426C61636B486F7573655C424C1F
:105390004B5F677261706869632E63002DE9F047A7
:1053A00006460C4692461D4605B103E0372117A07C
:1053B00006F063F9286800B103E0382113A006F075
:1053C0005CF9D5F800806F68D5F80890BE4205D228
:1053D0004C4503D2002E01DB002C02DA0020BDE890
:1053E000F0872046E11704EB5171C910A4EBC1020C
:1053F00001219140E21002FB0782925D1143E2100D
:1054000002FB078291550020E9E700002E2E5C2E5A
:105410002E5C636F72655C426C61636B486F757381
:10542000655C424C4B5F677261706869632E630014
:105430002DE9F84F06460C4692461D4605B103E09D
:10544000C0212BA006F019F9286800B103E0C121A2
:1054500027A006F012F9D5F800806F68D5F80890FB
:10546000BE4205D24C4503D2002E01DB002C02DAED
:105470000020BDE8F88FE01000FB0780805D009001
:105480002246E31704EB5373DB10A4EBC30C9DF827
:10549000003043FA0CF303F0010383F0010383B9F6
:1054A0002146E31704EB5373DB10A4EBC30C012379
:1054B00003FA0CF39DF800C043EA0C03DBB200933F
:1054C0000FE02046E31704EB5373DB10A4EBC30C8F
:1054D000012303FA0CF39DF800C02CEA030CCDF86D
:1054E00000C09DF8000004FB078188550020C0E73C
:1054F0002E2E5C2E2E5C636F72655C426C61636B5A
:10550000486F7573655C424C4B5F67726170686988
:10551000632E63002DE9F04706460C4692461D4671
:1055200005B103E0522117A006F0A7F8286800B1E2
:1055300003E0532113A006F0A0F8D5F800806F68AF
:10554000D5F80890BE4205D24C4503D2002E01DBAF
:10555000002C02DA0120BDE8F0872046E11704EBB9
:105560005171C910A4EBC10201219140E21002FB6C
:105570000782925D22EA0101E21002FB0782915547
:105580000020E8E72E2E5C2E2E5C636F72655C4275
:105590006C61636B486F7573655C424C4B5F6772FF
:1055A00061706869632E63002DE9F04705460E4679
:1055B00090461C4604B103E0872112A006F05DF876
:1055C000206800B103E088210EA006F056F8D4F858
:1055D0000090D4F804A0A768554505D2BE4203D276
:1055E000002D01DB002E02DA4046BDE8F08706FB05
:1055F0000790405D18B906FB079000F80580002071
:10560000F3E700002E2E5C2E2E5C636F72655C4209
:105610006C61636B486F7573655C424C4B5F67727E
:1056200061706869632E630010B50D4808F052F987
:105630000C4908600C4808F04DF90C49086009480D
:10564000006800B103E0252109A006F016F807481C
:10565000006800B103E0262105A006F00EF810BD99
:10566000FC2A0020F8000020182B0020FC0000205D
:105670002E2E5C2E2E5C636F72655C536D617274AE
:1056800050695C52485F7461736B2E6300000000C8
:1056900010B5B02203490448FBF75EF80120034926
:1056A000087010BD08060020580500207400002076
:1056B0002DE9F04F8BB082468D48006830B18C499F
:1056C000086807F067FC0020894908605046FAF72F
:1056D0009DFF06468648006A85494860002088602C
:1056E0000421304607F037F807460421304607F01A
:1056F00032F880460421304607F02DF80546042193
:10570000304607F028F88346B00007F033F80A90D7
:10571000B00007F02FF88146002486E000200990B1
:1057200008901AF904107248D0F8AC0008AB09AA26
:10573000D0F80CC06E482830E04700200790069053
:105740000590049004A805A906AA07ABCDE900328C
:10575000CDE902106648436A1AF90410426AD0F88B
:10576000AC00D0F810C062482830E047079905988F
:10577000401A45F8240006990498401A4BF8240072
:1057800055F82400B8B904A805A906AA07ABCDE9C5
:105790000032CDE902105648436A426AD0F8AC00A4
:1057A0006821D0F810C052482830E0470799059882
:1057B000401A45F82400099809F0F8FA01904C487D
:1057C000416A019809F052FB029007F0E3F9039057
:1057D00009F0D0FA0A9941F82400089809F0E6FA8D
:1057E00001904348416A019809F040FB029007F09C
:1057F000D1F9039009F0BEFA49F824003C488068CA
:1058000055F8241008443A4988603CB1601E57F8A6
:10581000201055F82000084447F824003448006957
:105820000699084448F82400641CB442FFF476AF9B
:105830002F4989682E4A526801FB02F0012106F0C7
:105840008AFF2B49086000243AE00020099064B1E7
:1058500059F8240058F82410254A926801FB0200E8
:1058600057F82410084409900BE059F8240058F820
:1058700024101F4A926801FB020057F824100844C4
:1058800009901AF904101A48406A194A526A184BCA
:105890009B68CDE90032CDE902015BF8243055F870
:1058A00024201348D0F800E009980EEB00011048BE
:1058B000D0F8AC00D0F814C00D482830E047641C84
:1058C000B442C2D3384607F065FB404607F062FB9E
:1058D000284607F05FFB584607F05CFB0A9807F084
:1058E00059FB484607F056FB01480BB0BDE8F08F66
:1058F000080600202DE9F04188B005460E46002438
:10590000002700BF04A805A906AA07ABCDE900320D
:10591000CDE902100F48436A426A2046641C3156A2
:105920000C48D0F8AC00D0F810C00A482830E04746
:1059300007990598401A07443046FAF767FEA042D7
:1059400001D9AF42DED3AF4200D3641E204608B077
:10595000BDE8F0810806002070B500202D490877C9
:10596000182008622C48C1F8AC000846007F2B497B
:1059700051F820002749C1F8A8000846D0F8A8101F
:10598000D0F8AC000022036822482830984721490B
:10599000086A09F023FA04461E48D0F8AC002146F4
:1059A00042681C48283090471A4948620846D0F897
:1059B000AC0001F118031A1F1031846801F11800BE
:1059C000A0471449086909F0F1F906461148416AEF
:1059D000304609F04BFA054607F0DCF8044609F0BA
:1059E000C9F90C490861486909F0E0F90646094817
:1059F000416A304609F03AFA054607F0CBF804460A
:105A000009F0B8F903494861B0220548FAF7A4FE45
:105A100070BD000008060020580000207000002023
:105A20005805002010B50F480078C8B10E4800682E
:105A300030B10D49086807F0ADFA00200A49086046
:105A4000B0220A490848FAF787FE0749087F00F0A4
:105A50005FF80549086A00F00BF80020014908705A
:105A600010BD00007400002008060020580500202A
:105A70002DE9F04106460820234908622348C1F871
:105A8000AC00087F00F044F81F49086A09F0A6F945
:105A900004461D48D0F8AC00214642681A48283018
:105AA0009047194948620846D0F8AC0001F1180344
:105AB0001A1F1031846801F11800A04712490869C3
:105AC00009F074F907461048416A384609F0CEF9E2
:105AD000054607F05FF8044609F04CF90A490861E9
