:020000040800F2
:10000000384E00207502000875260008A91E000859
:1000100071260008550E0008712E0008000000002F
:10002000000000000000000000000000DD010008EA
:10003000F11200080000000021020008092E00084B
:100040008F0200088F0200088F0200088F0200084C
:100050008F0200088F0200088F0200088F0200083C
:100060008F0200088F0200088F0200088F0200082C
:100070008F0200088F0200088F0200088F0200081C
:100080008F0200088F0200088F0200088F0200080C
:100090008F0200088F0200088F020008F512000886
:1000A0008F0200088F0200088F0200088F020008EC
:1000B0008F0200088F0200088F0200088F020008DC
:1000C0008F0200088F0200088F0200088F020008CC
:1000D0008F0200088F0200088F0200088F020008BC
:1000E0008F0200088F0200088F0200088F020008AC
:1000F0008F0200088F0200088F0200088F0200089C
:100100008F0200088F0200088F0200088F0200088B
:100110008F0200088F0200088F0200088F0200087B
:100120008F0200088F0200088F0200088F0200086B
:1001300000F002F800F043F80AA090E8000C8244B6
:100140008344AAF10107DA4501D100F038F8AFF293
:10015000090EBAE80F0013F0010F18BFFB1A43F0A5
:1001600001031847BC850000DC850000103A24BF5D
:1001700078C878C1FAD8520724BF30C830C144BF0C
:1001800004680C607047000000230024002500264E
:10019000103A28BF78C1FBD8520728BF30C148BFEA
:1001A0000B6070471FB500F02DFA040000200021FD
:1001B00007F0A4FD401C60601FBD10B510BD00F02D
:1001C0006BFA1146FFF7EEFF05F0A8FA00F089FA86
:1001D00003B4FFF7F2FF03BC00F08CFA224B19685E
:1001E0000868B0E8F00F80F30988BFF36F8F4FF015
:1001F000000080F311884EF00D0E704700000000E3
:1002000006480068006880F3088862B661B6BFF3EC
:100210004F8FBFF36F8F00DF00BF00BF08ED00E01E
:10022000EFF30980BFF36F8F0F4B1A6820E9F00FCF
:10023000106008B54FF0500080F31188BFF34F8F66
:10024000BFF36F8F06F0EEFD4FF0000080F31188D2
:10025000BDE8084019680868B0E8F00F80F3098825
:10026000BFF36F8F704700BF9C000020EFF3058045
:10027000704700000948804709480047FEE7FEE74D
:10028000FEE7FEE7FEE7FEE7FEE7FEE7FEE7FEE746
:1002900004480549054A064B70470000112E000826
:1002A00031010008383A0020384E0020384A00203A
:1002B000384A002010B500F0A5F9001D10BD00BFA0
:1002C0003D7A000010B5431C02E010F8011B71B12B
:1002D0008107FAD14FF0013202C88C1A8C4314EA1C
:1002E000C211F9D0C01A0A0603D0C01E10BDC01A30
:1002F00010BD0A0401D0801E10BD0902FCD0401EB2
:1003000010BD032A40F2308010F0030C00F015807D
:1003100011F8013BBCF1020F624498BF11F801CB08
:1003200000F8013B38BF11F8013BA2F1040298BF6D
:1003300000F801CB38BF00F8013B11F0030300F0D7
:100340006780083AC0F0088051F8043B083A51F839
:1003500004CBA0E80810F5E7121D5CBF51F8043B80
:1003600040F8043BAFF30080D20724BF11F8013BF3
:1003700011F801CB48BF11F8012B24BF00F8013B55
:1003800000F801CB48BF00F8012B7047431A28BF83
:100390009A427FF6B6AF032A1044114440F22680F9
:1003A00010F0030F1EBF11F8013D521E00F8013D71
:1003B00010F0030F7FF4F6AF11F0030300F06D802F
:1003C000083AC0F00B8051F8043D083A51F804CDCA
:1003D00040F8043D40F804CDFFF7F3BF121D5CBFA9
:1003E00051F8043D40F8043DAFF30080D20724BF2C
:1003F00011F8013D11F801CD48BF11F8012C24BFBF
:1004000000F8013D00F801CD48BF00F8012C70470D
:1004100010B5203AC0F00B80B1E81850203AA0E89F
:100420001850B1E81850A0E81850BFF4F5AF5FEAD3
:10043000027C24BFB1E81850A0E8185044BF18C986
:1004400018C0BDE810405FEA827C24BF51F8043B2D
:1004500040F8043B08BF7047D20728BF31F8023B81
:1004600048BF11F8012B28BF20F8023B48BF00F815
:10047000012B7047431A28BF9A427FF6C9AF104438
:1004800010F0030F11441EBF11F8013D521E00F879
:10049000013D10F0030F7FF4F6AF103AC0F00A8070
:1004A00010B531E91850103A20E91850BFF4F9AFEF
:1004B000BDE81040530724BF31E9081020E90810B7
:1004C00044BF51F8043D40F8043D12F0030F08BF4B
:1004D0007047D20728BF31F8023D48BF11F8012C00
:1004E00028BF20F8023D48BF00F8012C704701F0FA
:1004F000FF03114601B543EA032242EA024200F03B
:100500000BF801BD02F0FF0343EA032242EA024274
:1005100000F002B84FF000020429C0F0128010F081
:10052000030C00F01B80CCF1040CBCF1020F18BFCF
:1005300000F8012BA8BF20F8022BA1EB0C0100F062
:100540000DB85FEAC17C24BF00F8012B00F8012B35
:1005500048BF00F8012B70474FF0000200B513466A
:1005600094469646203922BFA0E80C50A0E80C50D3
:10057000B1F12001BFF4F7AF090728BFA0E80C5084
:1005800048BF0CC05DF804EB890028BF40F8042B7D
:1005900008BF704748BF20F8022B11F0804F18BFEA
:1005A00000F8012B704710B5044610F0030F08BF88
:1005B00011F0030F40F015804FF0013E121FC0F202
:1005C0000E8051F8043BA3EB0E0C2CEA030C1CEA42
:1005D000CE1C08BF40F8043BF0D0A1F1040102F1A9
:1005E0000402521E08DB11F8013B002B00F8013B0E
:1005F000F7D11146FFF78EFF204610BD70477047B8
:100600007047000000487047F439002000487047E8
:10061000D4390020704700004FF0013C50F8042B03
:1006200051F8043B9A4221D1A2EB0C03934313EA05
:10063000CC1317D150F8042B51F8043B9A4215D132
:10064000A2EB0C03934313EACC130BD150F8042B09
:1006500051F8043B9A4209D1A2EB0C03934313EAED
:10066000CC13DBD04FF00000704700BFD01A01BAA6
:10067000B1FA81F101F0180122FA01F0CB40C1F189
:100680002001DBB2C0B2C01A2CFA01F3D11A914397
:1006900011EAC311E6D170477546FFF7B7FFAE46C2
:1006A00005006946534620F00700854618B020B57E
:1006B000FFF7EEFDBDE820404FF000064FF00007C9
:1006C0004FF000084FF0000B21F00701AC46ACE8FA
:1006D000C009ACE8C009ACE8C009ACE8C0098D4667
:1006E000704710B50446AFF300802046BDE81040C7
:1006F000FFF76EBD01491820ABBEFEE726000200E1
:1007000070B504460D461148844205D01048844215
:1007100002D01048844200D104E040F22D110EA016
:1007200004F0B4FF0DB1012D00D104E04FF4977136
:1007300009A004F0ABFF25B1A06840F00100A06063
:1007400003E0A06820F00100A06070BD002401401B
:1007500000280140003C01402E2E5C4C6962726111
:10076000726965735C53544D3332463130785F5350
:1007700074645065726970685F4472697665725C12
:100780007372635C73746D3332663130785F6164A9
:10079000632E630070B504460D461048844202D0B3
:1007A0000F48844200D104E04FF4A3710DA004F07F
:1007B0006DFF0DB1012D00D104E040F2471109A0F9
:1007C00004F064FF25B1A06840F48070A06003E0ED
:1007D000A06820F48070A06070BD0000002401407B
:1007E000003C01402E2E5C4C696272617269657337
:1007F0005C53544D3332463130785F5374645065E6
:10080000726970685F4472697665725C7372635C6A
:1008100073746D3332663130785F6164632E6300C8
:1008200070B5044600250C48844205D00B4884422C
:1008300002D00B48844200D104E040F2B11109A07B
:1008400004F024FFA06800F0040008B1012500E0D6
:100850000025284670BD000000240140002801400A
:10086000003C01402E2E5C4C6962726172696573B6
:100870005C53544D3332463130785F537464506565
:10088000726970685F4472697665725C7372635CEA
:1008900073746D3332663130785F6164632E630048
:1008A00070B5044600250C48844205D00B488442AC
:1008B00002D00B48844200D104E040F28B1109A021
:1008C00004F0E4FEA06800F0080008B1012500E093
:1008D0000025284670BD000000240140002801408A
:1008E000003C01402E2E5C4C696272617269657336
:1008F0005C53544D3332463130785F5374645065E5
:10090000726970685F4472697665725C7372635C69
:1009100073746D3332663130785F6164632E6300C7
:100920002DE9F04105460C46002600275D4885422A
:1009300005D05D48854202D05C48854200D103E085
:10094000DE215BA004F0A2FE206818B32068B0F599
:10095000803F1FD02068B0F5003F1BD02068B0F565
:10096000403F17D02068B0F5802F13D02068B0F535
:10097000A02F0FD02068B0F5C02F0BD02068B0F5A5
:10098000E02F07D02068B0F5002F03D02068B0F525
:10099000102F00D103E0DF2145A004F077FE20797D
:1009A00010B12079012800D103E0E02140A004F03B
:1009B0006DFE607910B16079012800D103E0E1217A
:1009C0003BA004F063FEA06888B3A068B0F5003FC8
:1009D0002DD0A068B0F5802F29D0A068B0F5C02F29
:1009E00025D0A068B0F5002F21D0A068B0F5202F49
:1009F0001DD0A068B0F5402F19D0A068B0F5602FC9
:100A000015D0A06898B1A068B0F5003F0FD0A068DD
:100A1000B0F5C02F0BD0A068B0F5002F07D0A068AC
:100A2000B0F5202F03D0A068B0F5402F00D103E02F
:100A3000E2211FA004F02AFEE06818B1E068B0F5DA
:100A4000006F00D103E0E32119A004F01FFE207C19
:100A5000012803DB207C102800DC03E0E42114A043
:100A600004F014FE6E68214806402179206840EAAF
:100A7000012006436E60AE681D480640D4E90210AE
:100A80000843617940EA41000643AE60EE6A26F40D
:100A90007006207C401EC0B2074346EA0756EE624D
:100AA000BDE8F0810024014000280140003C0140E5
:100AB0002E2E5C4C69627261726965735C53544D91
:100AC0003332463130785F537464506572697068B0
:100AD0005F4472697665725C7372635C73746D33C4
:100AE00032663130785F6164632E6300FFFEF0FF91
:100AF000FDF7F1FF2DE9F04706460C4617469846EC
:100B00000025A9466048864205D06048864202D04A
:100B10005F48864200D104E040F251215DA004F01C
:100B2000B5FD0CB3012C1FD0022C1DD0032C1BD003
:100B3000042C19D0052C17D0062C15D0072C13D057
:100B4000082C11D0092C0FD00A2C0DD00B2C0BD057
:100B50000C2C09D00D2C07D00E2C05D00F2C03D057
:100B6000102C01D0112C00D104E040F2522149A0F8
:100B700004F08CFD012F02DB102F00DC04E040F2BA
:100B8000532144A004F082FDB8F1000F14D0B8F155
:100B9000010F11D0B8F1020F0ED0B8F1030F0BD036
:100BA000B8F1040F08D0B8F1050F05D0B8F1060F61
:100BB00002D0B8F1070F00D104E04FF4157135A051
:100BC00004F064FD092C13DDF568A4F10A0000EBC4
:100BD0004001072000FA01F925EA0905A4F10A00FD
:100BE00000EB400008FA00F945EA0905F5600EE05F
:100BF000356904EB4401072000FA01F925EA0905EB
:100C000004EB440008FA00F945EA09053561072FAD
:100C100011DA756B781E00EB80011F2000FA01F9D4
:100C200025EA0905781E00EB800004FA00F945EA80
:100C30000905756326E00D2F11DA356BF81F00EBFF
:100C400080011F2000FA01F925EA0905F81F00EBD1
:100C5000800004FA00F945EA0905356312E0F56AF7
:100C6000A7F10D0000EB80011F2000FA01F925EA31
:100C70000905A7F10D0000EB800004FA00F945EA30
:100C80000905F562BDE8F087002401400028014015
:100C9000003C01402E2E5C4C696272617269657382
:100CA0005C53544D3332463130785F537464506531
:100CB000726970685F4472697665725C7372635CB6
:100CC00073746D3332663130785F6164632E630014
:100CD00010B504460948844205D00948844202D030
:100CE0000848844200D104E040F27D1106A004F0DF
:100CF000CDFCA06840F00800A06010BD00240140B9
:100D000000280140003C01402E2E5C4C696272615B
:100D1000726965735C53544D3332463130785F539A
:100D200074645065726970685F4472697665725C5C
:100D30007372635C73746D3332663130785F6164F3
:100D4000632E630070B504460D461148844205D0F9
:100D50001048844202D01048844200D104E040F29E
:100D6000CB110EA004F092FC0DB1012D00D104E0D6
:100D70004FF4E67109A004F089FC25B1A06840F4A5
:100D8000A000A06003E0A06820F4A000A06070BDF7
:100D90000024014000280140003C01402E2E5C4C04
:100DA00069627261726965735C53544D33324631C6
:100DB00030785F5374645065726970685F4472691B
:100DC0007665725C7372635C73746D333266313056
:100DD000785F6164632E630010B50446094884425D
:100DE00005D00948844202D00848844200D104E07A
:100DF00040F2A31106A004F049FCA06840F00400F2
:100E0000A06010BD0024014000280140003C0140CA
:100E10002E2E5C4C69627261726965735C53544D2D
:100E20003332463130785F5374645065726970684C
:100E30005F4472697665725C7372635C73746D3360
:100E400032663130785F6164632E630010B503F061
:100E5000C7F910BD00BFFEE770B504460D46244833
:100E600084422AD022481430844226D02048283098
:100E7000844222D01E483C3084421ED01C48503050
:100E800084421AD01A486430844216D01848783008
:100E9000844212D0174884420FD01648143084423E
:100EA0000BD014482830844207D012483C3084428A
:100EB00003D010485030844200D104E04FF49471C4
:100EC0000DA004F0E3FB0DB1012D00D104E040F2D0
:100ED000291109A004F0DAFB25B1206840F00100D7
:100EE000206004E020684FF6FE710840206070BD6D
:100EF00008000240080402402E2E5C4C69627261B8
:100F0000726965735C53544D3332463130785F53A8
:100F100074645065726970685F4472697665725C6A
:100F20007372635C73746D3332663130785F646DF5
:100F3000612E630010B504466A4884422AD069488D
:100F40001430844226D067482830844222D0654835
:100F50003C3084421ED06348503084421AD06148ED
:100F60006430844216D05F487830844212D05E48A4
:100F700084420FD05C48143084420BD05A48283049
:100F8000844207D058483C30844203D05648503001
:100F9000844200D103E06E2154A004F077FB206866
:100FA0004FF6FE7108402060002020606060A06065
:100FB000E0604C48844208D14A480838406840F014
:100FC0000F004849083948608AE046481430844296
:100FD00008D144480838406840F0F00041490839D9
:100FE00048607DE03F482830844208D13D480838B9
:100FF000406840F470603B490839486070E0394807
:101000003C30844208D137480838406840F470408A
:1010100034490839486063E032485030844208D18E
:1010200030480838406840F470202E49083948603C
:1010300056E02C486430844208D12A480838406879
:1010400040F4700027490839486049E02548783065
:10105000844208D123480838406840F07060214934
:10106000083948603CE02048844206D1001F0068EF
:1010700040F00F00211F086032E01B48143084420A
:1010800008D11948001F006840F0F0001649091FF8
:10109000086025E014482830844208D11248001F17
:1010A000006840F470601049091F086018E00E489D
:1010B0003C30844208D10C48001F006840F4704066
:1010C0000949091F08600BE007485030844207D1E6
:1010D0000548001F006840F470200349091F08609C
:1010E00010BD000008000240080402402E2E5C4C97
:1010F00069627261726965735C53544D3332463173
:1011000030785F5374645065726970685F447269C7
:101110007665725C7372635C73746D333266313002
:10112000785F646D612E630070B505460C4600263D
:101130005E4885422AD05D481430854226D05B48FF
:101140002830854222D059483C3085421ED057482D
:10115000503085421AD055486430854216D05348E5
:101160007830854212D0524885420FD05048143012
:1011700085420BD04E482830854207D04C483C3041
:10118000854203D04A485030854200D103E0CE2149
:1011900048A004F07BFAA068102801D0A06800B92C
:1011A00003E0CF2143A004F071FAE06820B1E068C9
:1011B000B0F5803F00D203E0D0213EA004F066FAF3
:1011C0002069402801D0206900B903E0D12139A06D
:1011D00004F05CFA6069802801D0606900B903E01E
:1011E000D22134A004F052FAA06938B1A069B0F558
:1011F000807F03D0A069B0F5007F00D103E0D32148
:101200002CA004F043FAE06938B1E069B0F5806FD2
:1012100003D0E069B0F5006F00D103E0D42125A030
:1012200004F034FA206A202801D0206A00B903E0D3
:10123000D52120A004F02AFA606AB0F5405F09D0F9
:10124000606AB0F5005F05D0606AB0F5805F01D0DC
:10125000606A00B903E0D62116A004F017FAA06A6C
:10126000B0F5804F01D0A06A00B903E0D72111A0EA
:1012700004F00CFA2E6847F6F0708643216AA068E5
:1012800008432169084361690843A1690843E1698A
:101290000843616A0843A16A084306432E60E06878
:1012A00068602068A8606068E86070BD080002405F
:1012B000080402402E2E5C4C69627261726965738B
:1012C0005C53544D3332463130785F53746450650B
:1012D000726970685F4472697665725C7372635C90
:1012E00073746D3332663130785F646D612E6300E4
:1012F0007047000038B500200090802000F04EF8C4
:1013000090B16B4601220A4801680A4806F0DCFCED
:1013100004464CB1009838B14FF08050064908603F
:10132000BFF34F8FBFF36F8F802000F007F838BDF9
:101330001C0100204566000804ED00E010B50446DD
:10134000200D000508B904B103E0FB2102A004F060
:101350009DF91148046010BD2E2E5C4C69627261CB
:10136000726965735C53544D3332463130785F5344
:1013700074645065726970685F4472697665725C06
:101380007372635C73746D3332663130785F657885
:1013900074692E63000000001404014070B5044617
:1013A00000250026012C31D0022C2FD0042C2DD06A
:1013B000082C2BD0102C29D0202C27D0402C25D025
:1013C000802C23D0B4F5807F20D0B4F5007F1DD0D1
:1013D000B4F5806F1AD0B4F5006F17D0B4F5805F04
:1013E00014D0B4F5005F11D0B4F5804F0ED0B4F531
:1013F000004F0BD0B4F5803F08D0B4F5003F05D0C6
:10140000B4F5802F02D0B4F5002F00D103E0E42121
:1014100008A004F03BF91748006800EA04061548E4
:1014200014300068204010B10EB1012500E0002505
:10143000284670BD2E2E5C4C6962726172696573BC
:101440005C53544D3332463130785F537464506589
:10145000726970685F4472697665725C7372635C0E
:1014600073746D3332663130785F657874692E63DA
:10147000000000000004014070B5044600252079FA
:1014800010B12079042800D103E0692135A004F0CF
:10149000FDF86079082805D060790C2802D06079C1
:1014A000102800D103E06A212EA004F0EFF8206894
:1014B0006FF3130010B9206800B103E06B2129A07D
:1014C00004F0E4F8A07910B1A079012800D103E07C
:1014D0006C2124A004F0DAF8324DA07990B32846AC
:1014E00000682168884329460860081D0068216853
:1014F0008843291D0860207905442868216808432D
:101500002860284808300068216888432549083148
:101510000860081D00682168884322490C31086072
:10152000607910280FD1081F0068216808431D4901
:1015300008310860081D00682168084319490C310A
:1015400008600EE007E0174D6079054428682168BF
:101550000843286005E0207905442868216888430D
:10156000286070BD2E2E5C4C696272617269657371
:101570005C53544D3332463130785F537464506558
:10158000726970685F4472697665725C7372635CDD
:1015900073746D3332663130785F657874692E63A9
:1015A000000000000004014070B505460C4600260E
:1015B0005DB1012D09D0022D07D0032D05D0042DDA
:1015C00003D0052D01D0062D00D104E040F26221A8
:1015D00021A004F05BF8ECB1012C1BD0022C19D037
:1015E000032C17D0042C15D0052C13D0062C11D0A9
:1015F000072C0FD0082C0DD0092C0BD00A2C09D0A9
:101600000B2C07D00C2C05D00D2C03D00E2C01D0A8
:101610000F2C00D104E040F263210FA004F036F853
:10162000A007010F0F2000FA01F61B48A11050F887
:101630002100B0431849A21041F822000846A11029
:1016400050F82100A107090F05FA01F108431249DA
:10165000A21041F8220070BD2E2E5C4C69627261AE
:10166000726965735C53544D3332463130785F5341
:1016700074645065726970685F4472697665725C03
:101680007372635C73746D3332663130785F677088
:10169000696F2E6300000000080001402DE9F05F33
:1016A00005460C464FF00009CA4600260027B04602
:1016B000B3465948854211D0584885420ED0584803
:1016C00085420BD05748854208D05748854205D0FF
:1016D0005648854202D05648854200D103E0B121E8
:1016E00054A003F0D3FFE078A0B1E078042811D033
:1016F000E07828280ED0E07848280BD0E07814282D
:1017000008D0E078102805D0E0781C2802D0E078D6
:10171000182800D103E0B22146A003F0B7FF002053
:1017200010B9208800B103E0B32142A003F0AEFF5E
:10173000E07800F00F09E07800F0100080B1A078A8
:10174000012805D0A078022802D0A078032800D173
:1017500003E0BA2137A003F099FFA07840EA090915
:10176000207838B3D5F8008000261FE0012000FA69
:1017700006F7208800EA070ABA4516D1B7000F20FD
:1017800000FA07FB28EA0B0809FA07F040EA080804
:10179000E078282803D10120B040686105E0E078B6
:1017A000482802D10120B0402861761C082EDDD3E4
:1017B000C5F800802088FF282BDDD5F8048000269E
:1017C00023E006F10800012101FA00F7208800EA71
:1017D000070ABA4518D1B7000F2000FA07FB28EA1C
:1017E0000B0809FA07F040EA0808E078282803D136
:1017F00006F1080081406961E078482804D106F1CB
:101800000800012181402961761C082ED9D3C5F832
:101810000480BDE8F09F000000080140000C01407A
:10182000001001400014014000180140001C01405C
:10183000002001402E2E5C4C6962726172696573F2
:101840005C53544D3332463130785F537464506585
:10185000726970685F4472697665725C7372635C0A
:1018600073746D3332663130785F6770696F2E63E1
:101870000000000070B504460D461348844211D0A4
:10188000124884420ED0124884420BD01148844240
:1018900008D01148844205D01048844202D0104834
:1018A000844200D104E04FF4BC710EA003F0EEFEC0
:1018B000002008B905B104E040F2791109A003F055
:1018C000E5FE656170BD000000080140000C0140AC
:1018D000001001400014014000180140001C0140AC
:1018E000002001402E2E5C4C696272617269657342
:1018F0005C53544D3332463130785F5374645065D5
:10190000726970685F4472697665725C7372635C59
:1019100073746D3332663130785F6770696F2E6330
:101920000000000070B504460D461348844211D0F3
:10193000124884420ED0124884420BD0114884428F
:1019400008D01148844205D01048844202D0104883
:10195000844200D104E04FF4B4710EA003F096FE6F
:10196000002008B905B104E040F2691109A003F0B4
:101970008DFE256170BD000000080140000C014093
:10198000001001400014014000180140001C0140FB
:10199000002001402E2E5C4C696272617269657391
:1019A0005C53544D3332463130785F537464506524
:1019B000726970685F4472697665725C7372635CA9
:1019C00073746D3332663130785F6770696F2E6380
:1019D000000000000148024908607047D12A000851
:1019E000300000202DE9F04705460E461746984680
:1019F0001748D0F81100B0F5005F14D34FF000097C
:101A000008E01349D1F8090002F0A6F981464846DA
:101A100004F0CAFE0E49D1F8090002F079F9002855
:101A2000EFD0BDE8F087102004F0A0FB044625604D
:101A30006660781B401CA060A8EB0600401CE060BC
:101A40000349D1F80900214602F0B6F900BFE8E7E2
:101A50002405002070474FF47A71484300BF011EEF
:101A6000A0F10100FBD1704710B5029C10BD70477A
:101A700010B511481149086008460068104908600F
:101A80000E4908684FF48061FEF744FD00200B49C1
:101A90000872486002F01AF90849C1F809000020EC
:101AA000C1F80D00C1F81100C1F8150001F046FFA2
:101AB00001F0F6FD10BD00002401002024050020E7
:101AC0004000002010B500243F237F22002108465B
:101AD00000F05EF808E00849D1F8090002F03CF98E
:101AE0000446204604F060FE0349D1F8090002F0E4
:101AF0000FF90028EFD010BD2405002070B5234851
:101B0000D0F8090000B970BD00242048D0F81100B9
:101B1000B0F5005F17D33F237F220021084600F075
:101B200037F808E01949D1F8090002F015F9044620
:101B3000204604F039FE1549D1F8090002F0E8F812
:101B40000028EFD01CE014E01049D1F8090002F0A1
:101B500003F90446E668656835446B1EA668256887
:101B600035446A1ED4E9000100F012F8204604F062
:101B70001BFE0649D1F8090002F0CAF80028E3D09C
:101B800000200249C1F8110000BFBCE72405002075
:101B90002DE9F04F87B004468846154699462248FD
:101BA000006848B3281B00F1010A4FEAE8064FEA33
:101BB000E907B81B401C0690069A0AFB02F004F0E5
:101BC000D5FA05901948CDE90257CDE900460168DC
:101BD00080230122059803F0C0FB83464B462A462A
:101BE000414600902046DFF840C0DCF800C0E047E6
:101BF000059804F0D9FD14E0464610E027460BE0B6
:101C00000A480068F11000EBC110C25D3146384649
:101C1000074B1B6898477F1CAF42F1DD761C4E4591
:101C2000ECDD07B0BDE8F08F300000202405002077
:101C30003400002070B504464C2004F097FA0546A5
:101C400005B104E040F6970109A003F01FFD04B1BF
:101C500004E040F6980106A003F018FD2C2221466E
:101C60002846FEF707FC0020A864284670BD000047
:101C70002E2E5C2E2E5C636F72655C52485F67751A
:101C8000692E63002DE9FC4105460E4605B104E0CE
:101C900040F6D90110A003F0F9FC2C4601F03EFEFD
:101CA00001F09AFB8EB102201049CDE90010D4F862
:101CB00010C0A76967447B1ED4F80CC067696744ED
:101CC0007A1E6046216901F09BFF01F0DFFF01F001
:101CD0004DFD0020BDE8FC812E2E5C2E2E5C636F36
:101CE00072655C52485F6775692E63004000002092
:101CF0002DE9F04106463446A56A01F00FFE01F0D9
:101D00006BFB607A01F0A8FD35BB072004F02EFACA
:101D1000054605B104E040F6B50126A003F0B6FC87
:101D2000A5620C20A870E8700020287095F90210B8
:101D3000A069B0FBF1F040B2A87108202871687169
:101D400095F90310A069401A95F90210B0FBF1F063
:101D500040B2A87100206870204602F001FC2046C5
:101D600002F098FA01F092FF01F000FD1648007AA7
:101D700070B1D4F810C0A76967447B1ED4F80CC0BA
:101D8000676967447A1E60462169FFF701FF0DE02D
:101D9000D4F810C0A76967447B1ED4F80CC06769EB
:101DA00067447A1E60462169FFF71CFE0020BDE8EB
:101DB000F08100002E2E5C2E2E5C636F72655C52EB
:101DC000485F6775692E6300240500202DE9F04106
:101DD00005460E462C46A06A10B90020BDE8F081E9
:101DE00001F09CFD01F0F8FAB6F1FF3F05D016B105
:101DF000012E06D000BF0020F0E7204602F0B6FF1B
:101E000003E0204602F088FC00BF00BF01F03EFF67
:101E100001F0ACFC1048007A70B1D4F810C0A7698A
:101E200067447B1ED4F80CC0676967447A1E60461D
:101E30002169FFF7ADFE0DE0D4F810C0A769674433
:101E40007B1ED4F80CC0676967447A1E604621691E
:101E5000FFF7C8FD0020C1E7240500202DE9FC4163
:101E600004460D4616461F4602200D493B463246A3
:101E7000CDE900102946204601F0C2FE0948007A4B
:101E800030B13B46324629462046FFF781FE05E049
:101E90003B46324629462046FFF7A4FDBDE8FC81BB
:101EA000400000202405002000BFFEE72DE9F04798
:101EB00005460C460027B9460026B0463348854201
:101EC00002D03348854200D104E040F2DF3131A036
:101ED00003F0DCFB3E4884423DD0B4F1021F3AD00F
:101EE0003C48844237D0B4F5020F34D0B4F5901F8B
:101EF00031D0394884422ED0384884422BD03848DB
:101F0000844228D03248801C844224D03148001DAD
:101F1000844220D0334884421DD0102C1BD032483C
:101F2000844218D03148844215D02F48401C844246
:101F300011D02D483F3084420DD02C48801C844263
:101F400009D0001F844206D02748C01D844202D019
:101F5000B4F5806F00D104E04FF478710DA003F068
:101F600095FBB5F814902E8B360449EA060020F054
:101F70007F4707EA0400A04202D14FF0010801E0C8
:101F80004FF000084046BDE8F087000000540040D4
:101F9000005800402E2E5C4C696272617269657354
:101FA0005C53544D3332463130785F53746450651E
:101FB000726970685F4472697665725C7372635CA3
:101FC00073746D3332663130785F6932632E63002B
:101FD000820006008000860040000200400082006F
:101FE0004000120084001600010003008200070078
:101FF00070B504460D461048844202D00F48844212
:1020000000D104E04FF4A2710DA003F03FFB0DB12D
:10201000012D00D104E040F2451109A003F036FB88
:1020200025B1208840F00100208004E020884FF690
:10203000FE710840208070BD0054004000580040F0
:102040002E2E5C4C69627261726965735C53544DEB
:102050003332463130785F5374645065726970680A
:102060005F4472697665725C7372635C73746D331E
:1020700032663130785F6932632E630010B50446F2
:102080001048844202D01048844200D103E0A421C9
:102090000EA003F0FBFA0B48844209D10121480548
:1020A00000F020FC00214FF4001000F01BFC08E0C1
:1020B0000121880500F016FC00214FF4800000F09B
:1020C00011FC10BD00540040005800402E2E5C4C06
:1020D00069627261726965735C53544D3332463183
:1020E00030785F5374645065726970685F447269D8
:1020F0007665725C7372635C73746D333266313013
:10210000785F6932632E630070B504460D4610484F
:10211000844202D00F48844200D104E04FF4C671DB
:102120000DA003F0B3FA0DB1012D00D104E040F28F
:102130008D1109A003F0AAFA25B1208840F480701F
:10214000208004E020884FF6FF610840208070BDA9
:1021500000540040005800402E2E5C4C69627261B1
:10216000726965735C53544D3332463130785F5336
:1021700074645065726970685F4472697665725CF8
:102180007372635C73746D3332663130785F6932B9
:10219000632E630070B504460D461048844202D099
:1021A0000F48844200D104E04FF4D2710DA003F037
:1021B0006DFA0DB1012D00D104E040F2A51109A086
:1021C00003F064FA25B1208840F40070208004E018
:1021D00020884FF6FF510840208070BD0054004019
:1021E000005800402E2E5C4C696272617269657302
:1021F0005C53544D3332463130785F5374645065CC
:10220000726970685F4472697665725C7372635C50
:1022100073746D3332663130785F6932632E6300D8
:102220007CB505460C4600260020019000903648FB
:10223000854202D03548854200D104E040F2454154
:1022400033A003F023FAB4F5000F3FD0B4F5800FAC
:102250003CD0B4F5001F39D0B4F5801F36D0B4F5AA
:10226000802F33D0B4F5003F30D0B4F5803F2DD06F
:10227000364884422AD03648844227D0B4F1102F01
:1022800024D03448844221D0334884421ED033487D
:1022900084421BD03248844218D03148803884426E
:1022A00014D02F48C038844210D02D48F0388442D2
:1022B0000CD02B48F838844208D0001F844205D047
:1022C000801E844202D0401E844200D104E040F2CD
:1022D00046410FA003F0DAF90095200F019024F099
:1022E0007F44019818B100981430009003E0240C4A
:1022F00000981830009000980068204008B101262E
:1023000000E0002630467CBD0054004000580040EC
:102310002E2E5C4C69627261726965735C53544D18
:102320003332463130785F53746450657269706837
:102330005F4472697665725C7372635C73746D334B
:1023400032663130785F6932632E6300008000109E
:1023500000400010000800100004001000020010EF
:10236000000100102DE9F04385B005460C4600261B
:10237000B1460427DFF870815C48854202D05C4892
:10238000854200D103E0C5215AA003F07FF92068FF
:1023900020B167492068884200D803E0C62155A0D3
:1023A00003F074F9A08828B1A088022802D0A08880
:1023B0000A2800D103E0C7214EA003F067F9E088A6
:1023C000B0F5804F04D0E0884BF6FF71884200D111
:1023D00003E0C82147A003F059F92089B0F5806FC8
:1023E00000DA03E0C92143A003F050F96089B0F599
:1023F000806F01D0608900B903E0CA213DA003F0DD
:1024000045F9A089B0F5804F03D0A089B0F5404FC1
:1024100000D103E0CB2137A003F038F9AE884FF6A6
:10242000C0700640684600F0E9FADDF808804148CF
:10243000B8FBF0F01FFA80F946EA0906AE8028885A
:102440004FF6FE710840288000263B4920688842EC
:102450000CD820684000B8FBF0F087B2042F00DAF7
:1024600004273E4309F10100288427E0E0884BF669
:10247000FF71884206D1206800EB4000B8FBF0F005
:1024800087B209E0206800EBC00101EB0010B8FB47
:10249000F0F087B247F48047C7F30B0008B947F064
:1024A000010747F4004006434FF4967009FB00F023
:1024B0004FF47A7190FBF1F0401C2884AE83288899
:1024C00040F0010028802E884FF6F5300640A088A5
:1024D0006189084306432E80A08921890843288109
:1024E00005B0BDE8F083000000127A0000540040FF
:1024F000005800402E2E5C4C6962726172696573EF
:102500005C53544D3332463130785F5374645065B8
:10251000726970685F4472697665725C7372635C3D
:1025200073746D3332663130785F6932632E6300C5
:10253000801A060040420F00A086010070B50446D4
:102540000E4615460E48844202D00E48844200D101
:1025500004E040F25B210CA003F098F80DB1012DCE
:1025600000D104E04FF4177107A003F08FF815B104
:1025700046F0010602E04FF6FE700640268270BD6E
:1025800000540040005800402E2E5C4C696272617D
:10259000726965735C53544D3332463130785F5302
:1025A00074645065726970685F4472697665725CC4
:1025B0007372635C73746D3332663130785F693285
:1025C000632E630070B504460D460748844202D06E
:1025D0000648844200D104E04FF40F7104A003F0D8
:1025E00055F8258270BD000000540040005800409E
:1025F0002E2E5C4C69627261726965735C53544D36
:102600003332463130785F53746450657269706854
:102610005F4472697665725C7372635C73746D3368
:1026200032663130785F6932632E630010B501F095
:102630008BFD01F079FD01F019FE01F045FD01F07F
:10264000FBFC10BD10B501F0AFFD10BD10B5044688
:102650002CB14FF400510548FFF70CF904E04FF49A
:1026600000510248FFF75EF910BD00000010014064
:1026700000BFFEE7704700002DE9F0410446002549
:1026800000270F26E07810B1E078012800D103E0A0
:10269000742121A002F0FAFF6078102800DA03E02C
:1026A00075211DA002F0F2FFA078102800DA03E0E7
:1026B000762119A002F0EAFFE07800B32348006811
:1026C00000F4E060C0F5E060050AC5F10407EE40E3
:1026D000607800FA07F5A078304005432D011C48CA
:1026E00022788554207800F01F010120884021784D
:1026F0004911890001F1E021C1F8000109E02078C9
:1027000000F01F010120884012492278521141F83F
:102710002200BDE8F08100002E2E5C4C69627261DF
:10272000726965735C53544D3332463130785F5370
:1027300074645065726970685F4472697665725C32
:102740007372635C6D6973632E6300000CED00E0CF
:1027500000E400E080E100E010B50446B4F5E06F6D
:102760000BD0B4F5C06F08D0B4F5A06F05D0B4F5A8
:10277000806F02D0B4F5407F00D103E0622104A055
:1027800002F084FF0F4820430F49086010BD00008D
:102790002E2E5C4C69627261726965735C53544D94
:1027A0003332463130785F537464506572697068B3
:1027B0005F4472697665725C7372635C6D697363A2
:1027C0002E6300000000FA050CED00E070B5044631
:1027D0000D4640F2575024EA000008B904B104E065
:1027E00040F22A410CA002F051FF0DB1012D00D1A1
:1027F00004E040F22B4108A002F048FF2DB115483B
:10280000406920431349486104E012484069A043ED
:102810001049486170BD00002E2E5C4C69627261E7
:10282000726965735C53544D3332463130785F536F
:1028300074645065726970685F4472697665725C31
:102840007372635C73746D3332663130785F7263B8
:10285000632E63000010024070B504460D46104818
:10286000204008B904B104E04FF48D610DA002F0DE
:102870000DFF0DB1012D00D104E040F2694109A026
:1028800002F004FF2DB11648C06920431449C86105
:1028900004E01348C069A0431149C86170BD00003D
:1028A000003601812E2E5C4C69627261726965731B
:1028B0005C53544D3332463130785F537464506505
:1028C000726970685F4472697665725C7372635C8A
:1028D00073746D3332663130785F7263632E6300D8
:1028E0000010024070B504460D461048204008B95B
:1028F00004B104E040F2C2410DA002F0C7FE0DB1E8
:10290000012D00D104E040F2C34109A002F0BEFE57
:102910002DB11648006920431449086104E01348AA
:102920000069A0431149086170BD000000360181B3
:102930002E2E5C4C69627261726965735C53544DF2
:102940003332463130785F53746450657269706811
:102950005F4472697665725C7372635C73746D3325
:1029600032663130785F7263632E6300001002407C
:1029700070B504460D461048204008B904B104E083
:1029800040F249410DA002F081FE0DB1012D00D1B0
:1029900004E040F24A4109A002F078FE2DB1164849
:1029A000806920431449886104E013488069A0438A
:1029B0001149886170BD00000200C0FF2E2E5C4CE2
:1029C00069627261726965735C53544D333246318A
:1029D00030785F5374645065726970685F447269DF
:1029E0007665725C7372635C73746D33326631301A
:1029F000785F7263632E63000010024030B50021DF
:102A00000022002400232D4D6D6805F00C0121B13A
:102A1000042905D0082923D105E0294D056022E0CD
:102A2000274D05601FE0254D6D6805F47012234D9C
:102A30006D6805F48034022505EB92421CB9214DE6
:102A4000554305600BE01D4D6D6805F400351DB163
:102A50001C4D5543056002E0194D5543056002E0E9
:102A6000174D056000BF00BF144D6D6805F0F00103
:102A70000909154D6B5C0568DD4045600F4D6D68BB
:102A800005F4E061090A104D6B5C4568DD40856026
:102A90000A4D6D6805F46051C90A0B4D6B5C4568C1
:102AA000DD40C560054D6D6805F44041890B074D5B
:102AB0006B5CC568B5FBF3F5056130BD00100240E5
:102AC00000127A0000093D000400002014000020DC
:102AD0002DE9FE4F04460D4616461F46DDF830A090
:102AE000002C02DB802C00DA03E0AB212EA002F0E8
:102AF000CDFD002E02DB802E00DA03E0AC212AA0FF
:102B000002F0C4FD002D02DB402D00DA03E0AD2110
:102B100025A002F0BBFD002F02DB402F00DA03E00E
:102B2000AE2121A002F0B2FDB44201DA204600E05D
:102B300030468046B44201DD204600E03046029037
:102B4000BD4201DA284600E038464FEAE00BBD42BC
:102B500001DD284600E03846C0100190D9461EE04D
:102B600009F1B001C8B202F083FD08F00F0002F0D5
:102B70007FFD102141EA2811C8B202F079FDCDF89D
:102B8000008006E01AF8010B02F079FD0098401C65
:102B90000090029900988842F4DD09F1010901983A
:102BA0008145DDDDBDE8FE8F2E2E5C4253505C7307
:102BB0007364313330362E630000000070B500249A
:102BC00013E004F1B001C8B202F052FD002002F09F
:102BD0004FFD102002F04CFD002503E0002002F024
:102BE0004EFD6D1C802DF9D3641C082CE9D370BDFB
:102BF00010B501F00FFB642002F06AFDAE2002F078
:102C000037FD202002F034FD102002F031FDB0200D
:102C100002F02EFDC82002F02BFD002002F028FD5E
:102C2000102002F025FD402002F022FD812002F05C
:102C30001FFDFF2002F01CFDA12002F019FDA620BF
:102C400002F016FDA82002F013FD3F2002F010FD57
:102C5000A42002F00DFDD32002F00AFD002002F0B6
:102C600007FDD52002F004FDF02002F001FDD9207F
:102C700002F0FEFC222002F0FBFCDA2002F0F8FC5D
:102C8000122002F0F5FCDB2002F0F2FC202002F022
:102C9000EFFC8D2002F0ECFC142002F0E9FCAF20E8
:102CA00002F0E6FCFFF78AFF10BD10B500F002F855
:102CB00010BD00000CB50020019000903348006862
:102CC00040F480303149086000BF3048006800F4AB
:102CD000003000900198401C0190009818B90198AC
:102CE000B0F5A06FF1D12948006800F4003010B1B0
:102CF0000120009001E0002000900098012843D1BD
:102D00002348006840F01000214908600846006828
:102D100020F0030008600846006840F002000860E8
:102D20001A484068194948600846406848600846A3
:102D3000406840F4806048600846406820F47C1099
:102D400048600846406840F4E8104860084600685B
:102D500040F08070086000BF0C48006800F0007010
:102D60000028F9D00948406820F00300074948606E
:102D70000846406840F00200486000BF03484068D1
:102D800000F00C000828F9D10CBD00000010024032
:102D90000020024010B50446042C01D0601D00B98B
:102DA00003E0C8210BA002F071FC042C08D14FF005
:102DB000E020006940F004004FF0E021086107E0E6
:102DC0004FF0E020006920F004004FF0E02108619E
:102DD00010BD00002E2E5C4C6962726172696573D1
:102DE0005C53544D3332463130785F5374645065D0
:102DF000726970685F4472697665725C7372635C55
:102E00006D6973632E63000010B504F08DFA10BD78
:102E100010B51348006840F00100114908600846E9
:102E20004068104908400E494860084600680E494D
:102E300008400B4908600846006820F480200860BC
:102E40000846406820F4FE0048604FF41F00886088
:102E5000FFF72BFF4FF000600449086010BD000031
:102E6000001002400000FFF8FFFFF6FE08ED00E052
:102E700000BFFEE7F0B5044617461E685A689D6815
:102E8000944205D2A94203D2002C01DB002901DAC9
:102E90000020F0BD0C48D0F814C0006A081A0CFBE2
:102EA0000040DFF824C0DCF81CC0A0EB0C00DFF809
:102EB00018C0DCF810C01CF8000001FB026C0CF814
:102EC00004000020E5E700006C0000202DE9F84F29
:102ED00006460C4691461D4605B103E0EC212AA0AA
:102EE00002F0D4FB286800B103E0ED2126A002F037
:102EF000CDFB6F68D5F808A0BE4205D2544503D279
:102F0000002E01DB002C02DA0120BDE8F88FE11071
:102F100001FB0761286810F80180B9F1000F01D0AA
:102F2000012200E0002200922046E11704EB5171DB
:102F3000C910A4EBC10148FA01F101F0010B009A9C
:102F400082EA0B025AB92146E21704EB5272D21000
:102F5000A4EBC2020123934028EA03020AE02046C0
:102F6000E21704EB5272D210A4EBC20301229A4082
:102F700042EA08024FEAE40C0CFB076C2B6803F8EA
:102F80000C200020C1E700002E2E5C2E2E5C636F0B
:102F900072655C426C61636B486F7573655C524827
:102FA0005F677261706869632E6300002DE9F04706
:102FB00006460C4691461D4605B103E06C2120A053
:102FC00002F064FB286800B103E06D211CA002F050
:102FD0005DFB6F68D5F808A0BE4205D2544503D208
:102FE000002E01DB002C02DA0120BDE8F087E110A1
:102FF00001FB0761286810F80180B9F1000F0BD1BF
:103000002146E21704EB5272D210A4EBC203012254
:103010009A4028EA02020AE02046E21704EB5272C4
:10302000D210A4EBC20301229A4042EA08024FEAFE
:10303000E40C0CFB076C2B6803F80C200020D4E791
:103040002E2E5C2E2E5C636F72655C426C61636B2E
:10305000486F7573655C52485F6772617068696339
:103060002E6300002DE9F84F05460E4691461C469A
:1030700004B103E09B2112A002F008FB206800B11C
:1030800003E09C210EA002F001FBD4F800806768E9
:10309000D4F808A0BD4205D2564503D2002D01DB6D
:1030A000002E02DA4846BDE8F88F06FB0780405D37
:1030B00000909DF8000006FB078148550020F2E7CC
:1030C0002E2E5C2E2E5C636F72655C426C61636BAE
:1030D000486F7573655C52485F67726170686963B9
:1030E0002E6300002DE9F04706460C4692461D4629
:1030F00005B103E0372117A002F0C8FA286800B133
:1031000003E0382113A002F0C1FAD5F800806F68FF
:10311000D5F80890BE4205D24C4503D2002E01DB03
:10312000002C02DA0020BDE8F0872046E11704EB0E
:103130005171C910A4EBC10201219140E21002FBC0
:103140000782925D1143E21002FB07829155002035
:10315000E9E700002E2E5C2E2E5C636F72655C42E8
:103160006C61636B486F7573655C52485F67726131
:10317000706869632E6300002DE9F84F06460C461F
:1031800092461D4605B103E0C0212BA002F07EFA55
:10319000286800B103E0C12127A002F077FAD5F832
:1031A00000806F68D5F80890BE4205D24C4503D226
:1031B000002E01DB002C02DA0020BDE8F88FE010C1
:1031C00000FB0780805D00902246E31704EB5373F9
:1031D000DB10A4EBC30C9DF8003043FA0CF303F0B2
:1031E000010383F0010383B92146E31704EB537312
:1031F000DB10A4EBC30C012303FA0CF39DF800C011
:1032000043EA0C03DBB200930FE02046E31704EB24
:103210005373DB10A4EBC30C012303FA0CF39DF8EA
:1032200000C02CEA030CCDF800C09DF8000004FBA0
:10323000078188550020C0E72E2E5C2E2E5C636F20
:1032400072655C426C61636B486F7573655C524874
:103250005F677261706869632E6300002DE9F04753
:1032600006460C4692461D4605B103E0522117A0C2
:1032700002F00CFA286800B103E0532113A002F019
:1032800005FAD5F800806F68D5F80890BE4205D2DF
:103290004C4503D2002E01DB002C02DA0120BDE8F0
:1032A000F0872046E11704EB5171C910A4EBC1026D
:1032B00001219140E21002FB0782925D22EA0101A6
:1032C000E21002FB078291550020E8E72E2E5C2ECB
:1032D0002E5C636F72655C426C61636B486F7573E3
:1032E000655C52485F677261706869632E630000B5
:1032F0002DE9F04705460E4690461C4604B103E012
:10330000872112A002F0C2F9206800B103E08821F1
:103310000EA002F0BBF9D4F80090D4F804A0A7687E
:10332000554505D2BE4203D2002D01DB002E02DA44
:103330004046BDE8F08706FB0790405D18B906FBE4
:10334000079000F805800020F3E700002E2E5C2E89
:103350002E5C636F72655C426C61636B486F757362
:10336000655C52485F677261706869632E63000034
:1033700010B50D4803F0DCFD0C4908600C4803F063
:10338000D7FD0C4908600948006800B103E014212A
:1033900009A002F07BF90748006800B103E015219D
:1033A00005A002F073F910BD102B00201C010020B5
:1033B0002C2B0020200100202E2E5C2E2E5C636F13
:1033C00072655C536D61727450695C52485F7461E0
:1033D000736B2E630000000010B5B022034904484F
:1033E000FDF716F801200349087010BDF005002014
:1033F00040050020680000202DE9F04F8BB0824688
:103400008D48006830B18C49086803F0CDF9002080
:10341000894908605046FCF755FF06468648006A11
:1034200085494860002088600421304602F08FFE04
:1034300007460421304602F08AFE804604213046C9
:1034400002F085FE05460421304602F080FE8346E8
:10345000B00002F08BFE0A90B00002F087FE8146B9
:10346000002486E00020099008901AF904107248A0
:10347000D0F8AC0008AB09AAD0F80CC06E482830D0
:10348000E0470020079006900590049004A805A945
:1034900006AA07ABCDE90032CDE902106648436ABF
:1034A0001AF90410426AD0F8AC00D0F810C0624893
:1034B0002830E04707990598401A45F824000699F6
:1034C0000498401A4BF8240055F82400B8B904A811
:1034D00005A906AA07ABCDE90032CDE9021056488E
:1034E000436A426AD0F8AC006821D0F810C0524854
:1034F0002830E04707990598401A45F824000998B4
:1035000004F090FC01904C48416A019804F0B6FC2C
:10351000029003F023F8039004F068FC0A9941F844
:103520002400089804F07EFC01904348416A019809
:1035300004F0A4FC029003F011F8039004F056FC90
:1035400049F824003C48806855F8241008443A495A
:1035500088603CB1601E57F8201055F820000844E0
:1035600047F82400344800690699084448F82400C4
:10357000641CB442FFF476AF2F4989682E4A526822
:1035800001FB02F0012102F0E2FD2B49086000245A
:103590003AE00020099064B159F8240058F824104A
:1035A000254A926801FB020057F82410084409904C
:1035B0000BE059F8240058F824101F4A926801FBC8
:1035C000020057F82410084409901AF904101A4808
:1035D000406A194A526A184B9B68CDE90032CDE91E
:1035E00002015BF8243055F824201348D0F800E09D
:1035F00009980EEB00011048D0F8AC00D0F814C0C8
:103600000D482830E047641CB442C2D3384603F06A
:10361000CBF8404603F0C8F8284603F0C5F85846F2
:1036200003F0C2F80A9803F0BFF8484603F0BCF86C
:1036300001480BB0BDE8F08FF00500202DE9F04106
:1036400088B005460E460024002700BF04A805A93F
:1036500006AA07ABCDE90032CDE902100F48436A54
:10366000426A2046641C31560C48D0F8AC00D0F8B1
:1036700010C00A482830E04707990598401A0744C7
:103680003046FCF71FFEA04201D9AF42DED3AF4265
:1036900000D3641E204608B0BDE8F081F00500208C
:1036A00070B500202D490877182008622C48C1F811
:1036B000AC000846007F2B4951F820002749C1F88B
:1036C000A8000846D0F8A810D0F8AC000022036883
:1036D0002248283098472149086A04F0BBFB044679
:1036E0001E48D0F8AC00214642681C48283090475C
:1036F0001A4948620846D0F8AC0001F118031A1FB5
:103700001031846801F11800A0471449086904F0D9
:1037100089FB06461148416A304604F0AFFB054676
:1037200002F01CFF044604F061FB0C490861486983
:1037300004F078FB06460948416A304604F09EFBD7
:10374000054602F00BFF044604F050FB03494861B4
:10375000B0220548FCF75CFE70BD0000F0050020BB
:103760004C000020640000204005002010B50F48E8
:103770000078C8B10E48006830B10D49086803F000
:1037800013F800200A490860B0220A490848FCF7EB
:103790003FFE0749087F00F05FF80549086A00F01E
:1037A0000BF800200149087010BD000068000020DF
:1037B000F0050020400500202DE9F04106460820D4
:1037C000234908622348C1F8AC00087F00F044F8A0
:1037D0001F49086A04F03EFB04461D48D0F8AC00BF
:1037E000214642681A4828309047194948620846DD
:1037F000D0F8AC0001F118031A1F1031846801F1F0
:103800001800A0471249086904F00CFB074610484D
:10381000416A384604F032FB054602F09FFE04463A
:1038200004F0E4FA0A490861486904F0FBFA074623
:103830000748416A384604F021FB054602F08EFE37
:10384000044604F0D3FA02494861BDE8F081000063
:10385000F00500204C0000202DE9F04104462C48E2
:103860002C49C1F8AC007CB92B4850F82400C1F8B1
:10387000A8000846D0F8A810D0F8AC0000220368D1
:1038800024482830984701E0BDE8F08100BF214876
:1038900004770146086A04F0DDFA05461D48D0F8B1
:1038A000AC00294642681B482830904719494862B5
:1038B0000846D0F8AC0001F118031A1F10318568D2
:1038C00001F11800A8471349086904F0ABFA07464C
:1038D0001048416A384604F0D1FA064602F03EFE2E
:1038E000054604F083FA0B490861486904F09AFA26
:1038F00007460848416A384604F0C0FA064602F016
:103900002DFE054604F072FA0249486100BFBBE78C
:103910004C000020F00500206400002010B52C228F
:1039200003490448FCF774FD01200349087010BDE9
:103930006C000020A00600209800002064200849A8
:1039400088604AF64440C860FF2008700320486041
:103950000020086100210248816141610020704718
:103960006C0000202DE9F05F80460D4691461E4612
:103970000A9C0B9838B1012806D0022802D00728EB
:103980007ED194E000BF00BF4FEAE50A4FEAE60BA4
:10399000574688E0574536D1404631E08E49097890
:1039A000B1B9D4E9002307FB0303D25C2946EB1726
:1039B00005EB5373DB10A5EBC30CFF2303FA0CF3E9
:1039C0009A43D4E9003C07FB0C0C03F80C2016E0EA
:1039D000D4E9002307FB0303D25C2946EB1705EB70
:1039E0005373DB10A5EBC30CFF2303FA0CF3DBB21C
:1039F0001A43D4E9003C07FB0C0C03F80C20401CD4
:103A00004845CBDD4EE05F453ED1404637E0724948
:103A10000978C9B9D4E9002307FB0303D35C314615
:103A2000F21706EB5272D210A6EBC202521C4FF0F4
:103A3000010C0CFA02F2521E9343D4E9002C07FB4E
:103A40000C0C02F80C3019E0D4E9002307FB030347
:103A5000D35C3146F21706EB5272D210A6EBC202CB
:103A6000521C4FF0010C0CFA02F2521ED2B2134358
:103A7000D4E9002C07FB0C0C02F80C30401C00E0D1
:103A8000A0E04845C3DD0DE0D4E9003C07FB0C3362
:103A900003EB0800504B1A78A9EB0803591CFCF7FC
:103AA00031FD00BF7F1C5F457FF774AF90E00B983E
:103AB000072804D14848006908B9012000E0002027
:103AC0008246BAF1000F46D06068404501DC60686C
:103AD00005E0B8F1000F01DC002000E040463E495F
:103AE000C861A068A84201DCA06804E0002D01DCE8
:103AF000002000E02846384908626068484501DC3B
:103B0000606805E0B9F1000F01DC002000E04846E4
:103B10003149C969401A401C2F4948614862A06870
:103B2000B04201DCA06804E0002E01DC002000E0CF
:103B300030462949096A401A401C27498861886231
:103B4000496A254A926A01FB02F002F00FFB224902
:103B5000086100BFFEE72F461DE01F4BD3F810C0E1
:103B60001B6AA7EB030B1C4B5B690BFB03C3DFF862
:103B700068C0DCF81CC0A8EB0C0C03EB0C01D4E90A
:103B8000003C07FB0C3303EB0800A9EB08035A1CAD
:103B9000FCF7B7FB7F1CB742DFDDBAF1000F10D096
:103BA00000200D49C86100210B48016281628161DA
:103BB000416241610146086902F0F6FD00200649B4
:103BC000086105E04FF4787104A001F05FFD00BFCB
:103BD00000BF0020BDE8F09F6C0000202E2E5C2E60
:103BE0002E5C636F72655C426C61636B486F7573CA
:103BF000655C52485F677261706869632E6300009C
:103C00002DE9F0478046894615461E46DDE908A4A1
:103C1000072C01D100BFFEE7474612E019480278A1
:103C2000194850F824C0534649463846E0471548DD
:103C30000278154850F824C0534631463846E047CC
:103C40007F1CAF42EADD09F1010712E00D4802785E
:103C50000D4850F824C0534639464046E0470948CD
:103C60000278094850F824C0534639462846E047B0
:103C70007F1CB742EADB072C01D100BFFEE7002022
:103C8000BDE8F0876C000020FC86000810B50648EF
:103C9000007838B12C2205490548FCF7B9FB002013
:103CA0000149087010BD000098000020A006002007
:103CB0006C00002018B90021034A117002E0FF21B6
:103CC000014A1170704700006C00002070B5054675
:103CD0000C2002F04BFA044604B104E04FF4BE712C
:103CE00003A001F0D3FCA46064602560204670BD91
:103CF0002E2E5C2E2E5C636F72655C426C61636B72
:103D0000486F7573655C52485F646174612E63002F
:103D100010B5044604B104E04FF4E47106A001F0CC
:103D2000B5FCD4E90101884204D16068A04201D108
:103D3000012010BD0020FCE72E2E5C2E2E5C636F50
:103D400072655C426C61636B486F7573655C524869
:103D50005F646174612E630070B5044604B104E0D1
:103D600040F29D110CA001F091FCD4E901018842C0
:103D700004D16068A04201D1206870BDA568A06828
:103D80000668A06880684460A0688068A0602846D3
:103D900002F00AFD3046F0E72E2E5C2E2E5C636F9B
:103DA00072655C426C61636B486F7573655C524809
:103DB0005F646174612E630070B505460E4605B1FF
:103DC00004E04FF4C4710BA001F060FC0C2002F081
:103DD000CDF9044604B104E040F28D1105A001F0D4
:103DE00055FC2660A868A0606560A8684460AC6067
:103DF000204670BD2E2E5C2E2E5C636F72655C4279
:103E00006C61636B486F7573655C52485F64617485
:103E1000612E63000CE00120FEF718FC0A2002F07E
:103E2000E1FD0020FEF712FC4FF4FA7002F0DAFD1B
:103E3000F1E700001CB501203F49087200204872DC
:103E400079E03D48006810B1012870D163E002F0CC
:103E500037FC02203849887291F90A10880002F074
:103E600085F93549C8601F213448006803F02AF8F5
:103E700006213348006803F025F82F48C068032165
:103E80002D4B4FF48072CDE9001000212D4803F036
:103E9000A3FC012800D103E0BA212BA001F0F6FB1E
:103EA0002548C068001D0321234B8022CDE9001066
:103EB00000212D4803F090FC012800D103E0BB2134
:103EC00021A001F0E3FB02F03BFC4FF0FF300123A7
:103ED0001A46062100901A48006803F0E3F802F041
:103EE000EFFB002406E01449C96851F8240002F0F1
:103EF000B1FD641C104890F90A00A042F3DC0E49A1
:103F0000C86802F051FC02F01BFC01200A4908605D
:103F1000002088720BE00848007A38B128231A463E
:103F20001E210846FDF79AFFFDF7E8FD00BF00BF20
:103F30000A2002F057FD84E7482B00201C010020D6
:103F400020010020AD5400082E2E5C2E2E5C636FE5
:103F500072655C536D61727450695C52485F746144
:103F6000736B2E6300000000C553000802E00A20B6
:103F700002F038FDFBE700000EB54FF44070FEF78D
:103F8000EBFB1248124904220023CDE900210290E4
:103F9000120210A1144803F051FC144814490422E1
:103FA0000023CDE900210290920112A1184803F0EC
:103FB00045FC1848184904220023CDE9002102904D
:103FC000D20116A11B4803F039FC0EBDF0310020D0
:103FD0003C3200205F5F5461736B5374617469639A
:103FE0005F6D61696E000000353E00083C360020C0
:103FF000883600205F5F5461736B5374617469632A
:104000005F726164696F5F636865636B00000000E5
:104010006D3F000888370020D43700205F5F54616F
:10402000736B5374617469635F6C65645F68656129
:1040300072740000153E000800B585B001214802E9
:10404000FEF796FC0020009001208DF804008DF80A
:1040500005004FF4602002900020039002208DF8AC
:10406000100069461748FCF75BFC03230122082176
:104070001448FCF73FFD0323022209211148FCF7F5
:1040800039FD01210F48FCF785FB01210D48FCF7A4
:1040900037FB0C48FCF71CFE00BF0A48FCF700FC8D
:1040A0000028FAD10748FCF797FE00BF0548FCF747
:1040B000B7FB0028FAD101210248FCF743FE05B006
:1040C00000BD00000024014000B58BB0012108466E
:1040D000FEF77CFB1148FCF72DFF114800900020F3
:1040E000029010480190022003900020049080204C
:1040F0000590400006908000079020200890000264
:10410000099000200A9069460448FDF70DF8012146
:104110000248FCF7A1FE0BB000BD00000800024001
:104120004C2401402C0000201CB580200090002071
:104130008DF804000C208DF8050001208DF8060094
:104140006846FDF799F91CBD08B501210C20FEF762
:104150000FFC01210846FEF70BFC8020ADF80000A3
:1041600004208DF8030069460D48FDF797FA0120F9
:10417000ADF8000000208DF8030069460948FDF7FE
:104180008DFA0220ADF8000000208DF8030069468A
:104190000448FDF783FA07210020FDF705FA08BD62
:1041A00000080140000C014008B501211020FEF775
:1041B000DFFB4FF40050ADF8000010208DF8030035
:1041C00003208DF8020069460448FDF767FA4FF4B2
:1041D00000510248FDF74EFB08BD000000100140F1
:1041E00008B501210420FEF7C3FB0420ADF8000050
:1041F00010208DF8030003208DF802006946044862
:10420000FDF74CFA04210248FDF734FB08BD00001D
:104210000008014000B585B0114B0FCBCDE9032359
:10422000CDE901010E4810300068009001210820FE
:10423000FEF79EFB69460B48FDF730FA0121880521
:10424000FEF70AFB0848FDF719FF01210648FDF7B4
:10425000CFFE01A90448FEF785F805B000BD0000B7
:1042600060810008000C01400058004008B54FF480
:10427000C060FEF771FA17208DF8000001208DF85C
:1042800001008DF802008DF803006846FEF7F4F98E
:1042900008BD00002DE9F04F89B0EB460446A56A41
:1042A00095F90500FFF788FA95F9020095F90510D0
:1042B000401AE16801EB60007F2801D37F2013E002
:1042C00095F9020095F90510401AE16801EB6000CC
:1042D000002801DC002007E095F9020095F905109F
:1042E000401AE16801EB6000CBF8200095F903105B
:1042F0002069084495F9021095F90420891A00EB09
:1043000061003F2801D33F2019E095F9031020698F
:10431000084495F9021095F90420891A00EB610010
:10432000002801DC00200AE095F903102069084408
:1043300095F9021095F90420891A00EB61000746EF
:10434000E068401C7F2801D37F2007E0E068401C24
:10435000002801DC002001E0E068401CCBF81C00D4
:1043600095F90310206908443F2801D33F200BE052
:1043700095F9031020690844002801DC002003E0BF
:1043800095F90310206908448146E079CBF81800BC
:10439000714A07CACBE90412CBF80C006F480068D9
:1043A000CBF80C000026C9E095F900303344226AAE
:1043B00052F823106069FFF741F980460020CBF8DE
:1043C000080095F90100B0420AD1E07908B9FF2050
:1043D00000E00020CBF81800207AFFF76BFC05E026
:1043E000E079CBF81800A079FFF764FC02200BF10C
:1043F0000C0182B0CDE90010E16860690844821EBA
:1044000095F9020000EB09034946DBF81C00FFF7B1
:10441000A9FA02B0B8F1000F7EDD08F10B0020F020
:104420000700ADEB000DCBF808D095F90020324421
:10443000206A50F822104246DBF80800FCF7B3F877
:104440000021DBF8080000F80810DBF80800FEF790
:10445000D3FF8246DAF80000CBF8040000205DE0CC
:10446000002254E0DBF82030134407EB000C4FEA45
:10447000EC0CDBF810E00CFB0E31DBF804301B78A1
:10448000802B01DA012300E000239BF818C0BCF167
:10449000000F02D04FF0010C01E04FF0000C83EA56
:1044A0000C03BBB13B184FEAE37C03EB5C7C4FEAA7
:1044B000EC0CA3EBCC0E4FF0010C0CFA0EFCDBF86D
:1044C0000CE01EF801E04CEA0E0CDBF80CE00EF8F4
:1044D00001C016E03B184FEAE37C03EB5C7C4FEA3B
:1044E000EC0CA3EBCC0E4FF0010C0CFA0EFCDBF83D
:1044F0000CE01EF801E02EEA0C0EDBF80CC00CF804
:1045000001E0521CDBF80410491CCBF80410DAF867
:1045100008109142A6D800E008E0401CDAF8041028
:10452000814202D9A16981429AD800BF701C46B26B
:1045300095F90200074495F90200814495F90600B7
:10454000B04204DD94F91C00B0423FF72DAFDD46C8
:1045500009B0BDE8F08F0000988100082405002014
:104560002DE9F04F85B0EB460446A56A95F90400A5
:10457000FFF722F921686069FFF760F807464FF0FE
:10458000000A002F71DD07F10B0020F00700ADEBF2
:10459000000DEA463A4650462168FCF704F8002030
:1045A0000AF807005046FEF727FF06466069B16823
:1045B000401AE16801EB60007F2801D37F200FE003
:1045C0006069B168401AE16801EB6000002801DC15
:1045D000002005E06069B168401AE16801EB600005
:1045E000CBF8100095F9030095F90410411A2069E1
:1045F00000EB61003F2801D33F2013E095F9030051
:1046000095F90410411A206900EB6100002801DCD3
:10461000002007E095F9030095F90410411A20697C
:1046200000EB610080462079CBF80C00384A07CABD
:104630008BE8070037480068CBF80000D6F80090F8
:10464000002059E0002253E0DBF81030134408EB5F
:10465000000C4FEAEC0CDBF804E00CFB0E3199F88F
:104660000030802B02DA012301E04CE000239BF8AC
:104670000CC0BCF1000F02D04FF0010C01E04FF074
:10468000000C83EA0C03C3B108EB00034FEAE37CA0
:1046900003EB5C7C4FEAEC0CA3EBCC0E4FF0010C6F
:1046A0000CFA0EFCDBF800E01EF801E04CEA0E0C00
:1046B000DBF800E00EF801C017E008EB00034FEA5A
:1046C000E37C03EB5C7C4FEAEC0CA3EBCC0E4FF0ED
:1046D000010C0CFA0EFCDBF800E01EF801E02EEAFB
:1046E0000C0EDBF800C00CF801E0521C09F10109C6
:1046F000B1689142A8D8401C7168814202D9A16971
:1047000081429FD800BFDD4605B0BDE8F08F0000B4
:104710008C810008240500202DE9F04F89B0EA467D
:104720000546AC6A94F90500FFF746F894F90200D3
:1047300094F90510401AE96801EB60007F2801D365
:104740007F2013E094F9020094F90510401AE968FB
:1047500001EB6000002801DC002007E094F9020072
:1047600094F90510401AE96801EB6000CAF82000CE
:1047700094F903102869084494F9021094F904206C
:10478000891A00EB61003F2801D33F2019E094F91A
:1047900003102869084494F9021094F90420891A36
:1047A00000EB6100002801DC00200AE094F903100E
:1047B0002869084494F9021094F90420891A00EB3E
:1047C00061000646E868401C7F2801D37F2007E08F
:1047D000E868401C002801DC002001E0E868401C7B
:1047E000CAF81C0094F90310286908443F2801D333
:1047F0003F200BE094F9031028690844002801DCED
:10480000002003E094F90310286908440746E8797A
:10481000CAF81800FE4A07CACAE90412CAF80C000E
:10482000FC480068CAF80C0094F90100401C94F997
:10483000061088427ED195F91C0094F90610401AA2
:1048400094F90010884276DD2078401C40B2207038
:104850004FF00008CEE094F9003043442A6A52F841
:1048600023106869FEF7EAFE81460020CAF80800B6
:1048700094F90600401E40450AD1E87908B9FF20A6
:1048800000E00020CAF81800287AFFF713FA05E0C4
:10489000E879CAF81800A879FFF70CFA02210AF1A2
:1048A0000C0082B0CDE90001E96868690844821E05
:1048B00094F90200C3193946DAF81C00FFF752F8E0
:1048C00002B0B9F1000F7DDD09F10B0020F0070007
:1048D000ADEB000DCAF808D094F900204244286AD4
:1048E00050F822104A46DAF80800FBF75CFE002177
:1048F000DAF8080000F80910DAF80800FEF77CFD85
:104900008346DBF80000CAF80400002060E00022C3
:1049100057E0DAF82030134406EB000C4FEAEC0CB9
:10492000DAF810E00CFB0E31DAF804301B78802B3B
:1049300004DA01E06BE069E0012300E000239AF86B
:1049400018C0BCF1000F02D04FF0010C01E04FF095
:10495000000C83EA0C03BBB133184FEAE37C03EB92
:104960005C7C4FEAEC0CA3EBCC0E4FF0010C0CFA84
:104970000EFCDAF80CE01EF801E04CEA0E0CDAF856
:104980000CE00EF801C016E033184FEAE37C03EBAD
:104990005C7C4FEAEC0CA3EBCC0E4FF0010C0CFA54
:1049A0000EFCDAF80CE01EF801E02EEA0C0EDAF844
:1049B0000CC00CF801E0521CDAF80410491CCAF8CB
:1049C000041000E00CE0DBF808109142A1D8401C74
:1049D000DBF80410814202D9A969814297D800BF4F
:1049E00008F101004FFA80F894F90200064494F9A6
:1049F0000200074494F90600404507DD94F90000E1
:104A0000404495F91C108842FFF625AF9FE194F9C8
:104A10000100401C95F91C10884271D06078401C40
:104A200040B2607094F9002094F901301A44521E8B
:104A30002B6A53F822106869FEF700FE80464FF09B
:104A40000009E879CAF81800A879FFF733F994F952
:104A50000100401E94F9021000FB017794F9010057
:104A6000401E94F9021000FB016602200AF10C01BD
:104A700082B0CDE90010E96868690844821E94F9A3
:104A80000200C3193946DAF81C00FEF76BFF02B0CA
:104A9000B8F1000F7EDD08F10B0020F00700ADEB50
:104AA000000DE94694F9000094F901201044401EDD
:104AB0002A6A52F8201042464846FBF774FD00204F
:104AC00009F808004846FEF797FC8346DBF800002B
:104AD000CAF8080000205CE0002255E0DAF8203037
:104AE000134406EB000C4FEAEC0CDAF810E00CFB78
:104AF0000E31DAF808301B78802B02DA012301E04E
:104B000011E100239AF818C0BCF1000F02D04FF059
:104B1000010C01E04FF0000C83EA0C03BBB1331829
:104B20004FEAE37C03EB5C7C4FEAEC0CA3EBCC0E8E
:104B30004FF0010C0CFA0EFCDAF80CE01EF801E064
:104B40004CEA0E0CDAF80CE00EF801C016E033184F
:104B50004FEAE37C03EB5C7C4FEAEC0CA3EBCC0E5E
:104B60004FF0010C0CFA0EFCDAF80CE01EF801E034
:104B70002EEA0C0EDAF80CC00CF801E0521CDAF840
:104B80000810491CCAF80810DBF808109142A5D893
:104B9000401C00E007E0DBF80410814202D9A9695B
:104BA000814299D800BF94F9002094F901301A4449
:104BB0002B6A53F822106869FEF740FD80464FF0DB
:104BC0000009E87908B9FF2000E00020CAF81800C1
:104BD000287AFFF76FF894F90200074494F902006D
:104BE000064402200AF10C0182B0CDE90010E96808
:104BF00068690844821E94F90200C3193946DAF83C
:104C00001C00FEF7AFFE02B0B8F1000F7EDD03E03E
:104C1000B08100082405002008F10B0020F00700F7
:104C2000ADEB000DE94694F9000094F90120104421
:104C30002A6A52F8201042464846FBF7B4FC00208E
:104C400009F808004846FEF7D7FB8346DBF800006A
:104C5000CAF8080000205DE0002254E0DAF82030B5
:104C6000134406EB000C4FEAEC0CDAF810E00CFBF6
:104C70000E31DAF808301B78802B01DA012300E0CE
:104C800000239AF818C0BCF1000F02D04FF0010CBD
:104C900001E04FF0000C83EA0C03BBB133184FEA7C
:104CA000E37C03EB5C7C4FEAEC0CA3EBCC0E4FF007
:104CB000010C0CFA0EFCDAF80CE01EF801E04CEAEC
:104CC0000E0CDAF80CE00EF801C016E033184FEACB
:104CD000E37C03EB5C7C4FEAEC0CA3EBCC0E4FF0D7
:104CE000010C0CFA0EFCDAF80CE01EF801E02EEADA
:104CF0000C0EDAF80CC00CF801E0521CDAF80810BF
:104D0000491CCAF80810DBF8081000E00AE09142DC
:104D1000A4D8401CDBF80410814202D9A969814261
:104D20009AD800BF13E095F91C0094F90610884248
:104D300000DA04E040F68D0107A000F0A7FC20781F
:104D400000B904E040F68E0103A000F09FFCD546B8
:104D500009B0BDE8F08F00002E2E5C2E2E5C636F34
:104D600072655C52485F6775692E63002DE9F04FEC
:104D700089B0EA460546AC6A94F90500FEF71CFDC9
:104D800094F9020094F90510401AE96801EB6000FB
:104D90007F2801D37F2013E094F9020094F90510D5
:104DA000401AE96801EB6000002801DC002007E000
:104DB00094F9020094F90510401AE96801EB6000CB
:104DC000CAF8200094F903102869084494F90210E5
:104DD00094F90420891A00EB61003F2801D33F2099
:104DE00019E094F903102869084494F9021094F921
:104DF0000420891A00EB6100002801DC00200AE091
:104E000094F903102869084494F9021094F90420D5
:104E1000891A00EB61000646E868401C7F2801D330
:104E20007F2007E0E868401C002801DC002001E04A
:104E3000E868401CCAF81C0094F90310286908446B
:104E40003F2801D33F200BE094F903102869084460
:104E5000002801DC002003E094F9031028690844CD
:104E60000746E879CAF81800FE4A07CACAE90412D8
:104E7000CAF80C00FC480068CAF80C0060780028EA
:104E800078D194F90000002875DD2078401E40B2EA
:104E900020704FF00008CBE094F9003043442A6AB8
:104EA00052F823106869FEF7C9FB81460020CAF852
:104EB0000800B8F1000F0AD1E87908B9FF2000E036
:104EC0000020CAF81800287AFEF7F4FE05E0E87919
:104ED000CAF81800A879FEF7EDFE02200AF10C01CD
:104EE00082B0CDE90010E96868690844821E94F92F
:104EF0000200C3193946DAF81C00FEF733FD02B090
:104F0000B9F1000F7EDD09F10B0020F00700ADEBD9
:104F1000000DCAF808D094F900204244286A50F8DD
:104F200022104A46DAF80800FBF73DFB0021DAF8C8
:104F3000080000F80910DAF80800FEF75DFA834669
:104F4000DBF80000CAF8040000205FE0002256E011
:104F5000DAF82030134406EB000C4FEAEC0CDAF8D8
:104F600010E00CFB0E31DAF804301B78802B03DAEA
:104F7000012302E069E067E000239AF818C0BCF161
:104F8000000F02D04FF0010C01E04FF0000C83EA5B
:104F90000C03BBB133184FEAE37C03EB5C7C4FEAB4
:104FA000EC0CA3EBCC0E4FF0010C0CFA0EFCDAF873
:104FB0000CE01EF801E04CEA0E0CDAF80CE00EF8FA
:104FC00001C016E033184FEAE37C03EB5C7C4FEA48
:104FD000EC0CA3EBCC0E4FF0010C0CFA0EFCDAF843
:104FE0000CE01EF801E02EEA0C0EDAF80CC00CF80A
:104FF00001E0521CDAF80410491CCAF80410DBF86E
:10500000081000E00AE09142A2D8401CDBF804102E
:10501000814202D9A969814298D800BF08F10100F4
:105020004FFA80F894F90200064494F9020007440C
:1050300094F90600404507DD94F90000404495F9D5
:105040001C108842FFF628AF83E16078401E40B212
:10505000607094F9002094F901301A44521C2B6AB4
:1050600053F822106869FEF7E9FA80464FF000090C
:10507000E879CAF81800A879FEF71CFE94F9010037
:10508000401C94F9021000FB017794F90100401CC8
:1050900094F9021000FB016602200AF10C0182B0B3
:1050A000CDE90010E96868690844821E94F902009D
:1050B000C3193946DAF81C00FEF754FC02B0B8F107
:1050C000000F7DDD08F10B0020F00700ADEB000DB7
:1050D000E94694F9000094F901201044401C2A6A22
:1050E00052F8201042464846FBF75DFA002009F8C6
:1050F00008004846FEF780F98346DBF80000CAF84E
:10510000080000205BE0002254E0DAF8203013446D
:1051100006EB000C4FEAEC0CDAF810E00CFB0E3159
:10512000DAF808301B78802B01DA012300E0002335
:105130009AF818C0BCF1000F02D04FF0010C01E04A
:105140004FF0000C83EA0C03BBB133184FEAE37C49
:1051500003EB5C7C4FEAEC0CA3EBCC0E4FF0010CA4
:105160000CFA0EFCDAF80CE01EF801E04CEA0E0C2A
:10517000DAF80CE00EF801C016E033184FEAE37CD1
:1051800003EB5C7C4FEAEC0CA3EBCC0E4FF0010C74
:105190000CFA0EFCDAF80CE01EF801E02EEA0C0E18
:1051A000DAF80CC00CF801E0521CDAF80810491CBF
:1051B000CAF80810DBF808109142A6D8401C00E09D
:1051C00007E0DBF80410814202D9A96981429AD82C
:1051D00000BF94F9002094F901301A442B6A53F867
:1051E00022106869FEF72AFA80464FF00009E87934
:1051F00008B9FF2000E00020CAF81800287AFEF75E
:1052000059FD94F902003F1A94F90200361A02205F
:105210000AF10C0182B0CDE90010E9686869084420
:10522000821E94F90200C3193946DAF81C00FEF711
:1052300099FB02B0B8F1000F7EDD08F10B0020F001
:105240000700ADEB000DE94694F9000094F9012048
:1052500010442A6A52F8201042464846FBF7A3F948
:10526000002003E0A48100082405002009F80800BC
:105270004846FEF7C1F88346DBF80000CAF808008C
:1052800000205DE0002254E0DAF82030134406EB01
:10529000000C4FEAEC0CDAF810E00CFB0E31DAF8F7
:1052A00008301B78802B01DA012300E000239AF8F4
:1052B00018C0BCF1000F02D04FF0010C01E04FF01C
:1052C000000C83EA0C03BBB133184FEAE37C03EB19
:1052D0005C7C4FEAEC0CA3EBCC0E4FF0010C0CFA0B
:1052E0000EFCDAF80CE01EF801E04CEA0E0CDAF8DD
:1052F0000CE00EF801C016E033184FEAE37C03EB34
:105300005C7C4FEAEC0CA3EBCC0E4FF0010C0CFADA
:105310000EFCDAF80CE01EF801E02EEA0C0EDAF8CA
:105320000CC00CF801E0521CDAF80810491CCAF84D
:105330000810DBF8081000E00AE09142A4D8401CF5
:10534000DBF80410814202D9A96981429AD800BFD2
:1053500000BFD54609B0BDE8F08F2DE9F84F0446EF
:105360000D4616469B460A9F04B115B90020BDE8BC
:10537000F88F002F08DB0C98002805DB0B9800281D
:1053800002DB0D98002801DA0020F0E70C98C01B22
:10539000401C00FB06F8A146DDF82CA00CE00BFB3E
:1053A0000A70704300900098291842464846FAF760
:1053B000EDFFC1440AF1010A0D988245EFD920465C
:1053C000D5E700000446206800B903E077212CA04F
:1053D00000F05CF900254AE03148006801F0DCFD8E
:1053E000064606F0010000B101252E484088B0F5C0
:1053F0007A6F0ADD04212A48006801F063FD02216A
:105400002748006801F0DEFD0EE026484088B0F530
:105410007A7F09DA02212248006801F053FD042155
:105420001F48006801F0CEFD1E480088B0F57A6F75
:105430000ADD08211A48006801F044FD10211848CF
:10544000006801F0BFFD0EE016480088B0F57A7FD5
:1054500009DA10211248006801F034FD08211048D3
:10546000006801F0AFFD0A2001F0BCFA00BF002D7A
:10547000B2D004210C48006801F0A4FD00BFFEE793
:105480002E2E5C2E2E5C636F72655C536D617274A0
:1054900050695C52485F7461736B2E6300000000BA
:1054A0001C0100202C000020200100208EB00546A9
:1054B000286800B903E02F2139A000F0E7F80026A2
:1054C000B0462C2103A8FBF747F8002006900021E6
:1054D00007913F2109917F21089102208DF8280032
:1054E00037A00390FF208DF810000A208DF83100BE
:1054F00000208DF81200FF208DF814008DF81300A5
:1055000000200190029030A0019032A0029001A8EA
:105510000B9003A8FCF78EFB804600214046FCF769
:10552000B1FB4046FCF7E4FBFCF7CCFA2FE04FF070
:10553000FF3000231A46072100902848006801F038
:10554000B1FD044604F0010000B10126002704F07B
:10555000020030B17F1E02212048006801F0B2FC39
:105560000AE004F0040030B1012704211B48006860
:1055700001F0A8FC00E0002701F0A2F839464046FF
:10558000FCF724FCFCF79EFA01F0DAF800BF002ECD
:10559000CDD002211248006801F014FD00BFFEE7E3
:1055A0002E2E5C2E2E5C636F72655C536D6172747F
:1055B00050695C52485F7461736B2E630000000099
:1055C000536D6172745069004861726477617265ED
:1055D0000000000041626F75740000001C01002093
:1055E0002001002070B504460D4600BF4FF4003185
:1055F0001C48FCF715FE0028F8D101211948FCF7DA
:1056000083FD00BF18491748FCF750FC0028F9D06B
:10561000002278211348FCF791FF00BF134911487D
:10562000FCF744FC0028F9D021460E48FCF7CAFFDD
:1056300000BF0E49891C0B48FCF738FC0028F8D045
:1056400029460848FCF7BEFF00BF0849891C0548E9
:10565000FCF72CFC0028F8D001210248FCF79AFD49
:1056600070BD0000005800400100030082000700E8
:1056700010B5044621460020FFF7B4FF10BD10B559
:10568000044621464020FFF7ADFF10BD00BF00BF1C
:1056900000BFFEE710B504466FF00400FDF77AFB8B
:1056A000E11704EB5171C1F3C701074A11701046AD
:1056B000007800EB4001C1EBC0104FF6FF7101EA2A
:1056C000C0000249088010BD000000200200002038
:1056D0000146114A12884A434FF0E0235A610022E2
:1056E0009A611A46126942F001021A6100BF4FF036
:1056F000E022106900F001021AB100F48032002AA1
:10570000F5D04FF0E022126922F001024FF0E023C1
:105710001A6100229A617047020000204820FFF7BA
:10572000B9FFFDF765FAFCF781FFFCF78BFFFBF78C
:105730008DFBFCF74FF9FCF79BF9FDF719FEFEF71F
:105740001BFC01F0FDFA00BFFEE700002DE9F0416F
:1057500005460E461C4807681C480068001D00F0FE
:1057600036FF50B91948006890F82C100120884085
:1057700017490968814316480160681C38B936B179
:1057800012480168091D134800F08EFF1AE07C19C9
:105790000E4800684460BC4207D20C480168091DED
:1057A0000D48006800F066FF0CE008480168091D1C
:1057B0000A48006800F05EFF09480068844201D290
:1057C00007480460BDE8F081B00000209C00002084
:1057D000B4000020EC090020A4000020A00000205C
:1057E000CC00002010B5044600F06AFF2348006892
:1057F000401C224908602248006840B920480460E3
:105800000846006801280DD100F006FA0AE01D489C
:10581000006838B91A480068C06AE16A884201D84D
:105820001748046018480068401C1749086094F83D
:105830002C10012088401549096808431349086065
:10584000E16A01EB8101124A02EB8100211D00F0A7
:105850002BFF00F075FF0B48006868B1084800682E
:10586000C06AE16A884207D24FF080500949086057
:10587000BFF34F8FBFF36F8F10BD0000AC0000204F
:105880009C000020B8000020C8000020B4000020C8
:105890001C07002004ED00E008B500F011FF1248DD
:1058A0000068E8B9114800F0D5FE114800F0D2FEBA
:1058B0000E48104908600E480F49086000200F4B41
:1058C0000F4A102100900A2001F048FD06490860A7
:1058D0000846006820B10BA10348006801F020F8D9
:1058E00000F02EFF08BD0000E4000020000A0020A8
:1058F000140A0020DC000020E0000020280A00201C
:10590000700A0020546D72510000000010B516E0BE
:1059100000F0D6FE0C48C068C468201D00F057FE99
:105920000A480068401E0949086009480068401E8E
:105930000749086000F004FF204600F055F80448CD
:1059400000680028E4D110BDD8090020AC00002078
:10595000A800002070B504460D46206C70B1216C83
:10596000E0680144E160D4E90210884201D3216873
:10597000E1602846226CE168FAF7C3FC70BD2DE9AE
:10598000F04104460F4615464FF00008A66B206C08
:1059900028B37DB93946226C6068FAF7B2FC216CF5
:1059A000606808446060D4E90101884217D3206828
:1059B000606014E03946226CE068FAF7A2FC216CC2
:1059C000E068411AE1602168E068884203D2216CF6
:1059D000A068411AE160022D01D106B1761E701C4B
:1059E000A0634046BDE8F08110B5044694F8490034
:1059F00030B9206B00F0D8FE204600F0D5FE14E050
:105A000094F84900012803D1204600F0CDFE0CE0B7
:105A100094F84900022801D1012000E0002020B9BB
:105A20004FF4796101A0FFF731FE10BD2E2E5C4CC2
:105A300069627261726965735C6672656552544F22
:105A4000535C7461736B732E630000000146084A57
:105A5000126812680AB9012200E000220A600A688E
:105A600022B9034A1268D268106800E0002070472B
:105A7000DC00002030B54FF40053174800F0070455
:105A80002CB1C01D20F00700134C041B1B1B024649
:105A9000124C22600024114D6C60D018083820F0A0
:105AA00007000F4C206000240D4D2D686C600C4DDC
:105AB0002D682C601146441A4C60094C24680C6017
:105AC000084D4C682C60084D4C682C604FF0004429
:105AD000064D2C6030BD0000100B0020FC000020A3
