:020000040800F2
:10000000B84C002091020008113900084531000861
:100010000D390008392000080D41000800000000DB
:10002000000000000000000000000000F9010008CE
:10003000D5240008000000003D020008A54000088B
:10004000AB020008AB020008AB020008AB020008DC
:10005000AB020008AB020008AB020008AB020008CC
:10006000AB020008AB020008AB020008AB020008BC
:10007000AB020008AB020008AB020008AB020008AC
:10008000AB020008AB020008AB020008AB0200089C
:10009000AB020008AB020008AB020008D72400083E
:1000A000AB020008AB020008AB020008AB0200087C
:1000B000AB020008AB020008AB020008AB0200086C
:1000C000AB020008AB020008AB020008AB0200085C
:1000D000AB020008AB020008AB020008AB0200084C
:1000E000AB020008AB020008AB020008AB0200083C
:1000F000AB020008AB020008AB020008AB0200082C
:10010000AB020008AB020008AB020008AB0200081B
:10011000AB020008AB020008AB020008AB0200080B
:10012000AB020008AB020008AB020008AB020008FB
:1001300000F002F800F050F80AA090E8000C8244A9
:100140008344AAF10107DA4501D100F045F8AFF286
:10015000090EBAE80F0013F0010F18BFFB1A43F0A5
:1001600001031847C8BA0000E8BA0000103A24BFDB
:1001700078C878C1FAD8520724BF30C830C144BF0C
:1001800004680C607047000000230024002500264E
:10019000103A28BF78C1FBD8520728BF30C148BFEA
:1001A0000B60704766290BF0A281642900F0B480CF
:1001B000002070471FB500F079FB040000200021EB
:1001C0000AF02AFE401C6060002000210AF03AFE7E
:1001D000E0601FBD10B510BD00F088FF1146FFF7AD
:1001E000E9FF09F05FFB00F0A6FF03B4FFF7F2FFA1
:1001F00003BC00F0A9FF0000224B19680868B0E8B2
:10020000F00F80F30988BFF36F8F4FF0000080F389
:1002100011884EF00D0E704700000000064800687F
:10022000006880F3088862B661B6BFF34F8FBFF3F2
:100230006F8F00DF00BF00BF08ED00E0EFF3098023
:10024000BFF36F8F0F4B1A6820E9F00F106008B5ED
:100250004FF0500080F31188BFF34F8FBFF36F8FC3
:100260000AF010FB4FF0000080F31188BDE8084051
:1002700019680868B0E8F00F80F30988BFF36F8F42
:10028000704700BF9C000020EFF30580704700001E
:100290000948804709480047FEE7FEE7FEE7FEE71A
:1002A000FEE7FEE7FEE7FEE7FEE7FEE70448054956
:1002B000054A064B70470000AD40000831010008B8
:1002C000B8380020B84C0020B8480020B8480020BA
:1002D00010B500F0EBFA001D10BD00BF3DAB0000F3
:1002E0000FB47CB50C0009AA009001D02044401E38
:1002F000084B7B4469460190089800F054FD054680
:100300001CB10020694600F061FD28467CBC5DF808
:1003100014FB0000E10A00002DE9F041064600242C
:1003200010687529314616A510D0AFF3008000285B
:1003300002DA404213A507E031688A0701D512A509
:1003400002E0490704D511A5012401E0AFF30080C4
:1003500000210A2206F1240709E0B0FBF2FCB0FB01
:10036000F2F302FB1C00303078541846491C002878
:10037000F3D123462A463046BDE8F04100F0A5BA45
:10038000000000002D0000002B00000020000000F5
:100390002DE9F05F894604464FF0000ADFF874B19A
:1003A000FB44C0F820A02046E1688847002874D0AC
:1003B000252806D0D4E901219047206A401C2062FC
:1003C000F1E700265F462046E16888472028054679
:1003D00007DB312D05D2781910F8200C08B106433F
:1003E000F1E7B00701D526F00406C4F81CA00027E9
:1003F000C4F818A02A2D09D0284609F019F838B3F6
:1004000004EB8708303DC8F8185019E059F8041B70
:10041000204604EB87029161E1688847012F054679
:1004200018D1E069002820DA26F020061DE0D8F86F
:10043000180000EB800005EB40003038C8F81800C9
:100440002046E1688847054608F0F2FF0028EED113
:10045000012F0AD02E2D08D12046E16888477F1C45
:100460000546022F46F02006C4DBA069002803DA07
:10047000404246F00106A061F00701D026F01006C8
:100480006C2D0BD0682D09D04C2D39D06A2D35D06C
:10049000742D35D07A2D33D016E038E0E1682F4640
:1004A00020468847B842054609D16C2F26D04FF424
:1004B0008060E168064320468847054604E06C2FCB
:1004C0001AD04FF4807006430DB3A5F141001928EE
:1004D00002D8203546F400664A4629462046266062
:1004E0004E46FFF75FFE80B101280BD0F61D26F0C7
:1004F000070000F1080956E74020E4E78020D8E72C
:100500000020D6E706F104094DE7284652E7206AA5
:10051000BDE8F09FC0B70000014A00F065BC0000D4
:100520000801002040EA0103024630B59B0710D1C4
:100530004FF0013400E008C208C91D1B9D4315EAB5
:10054000C41FF8D013F0FF0102F8011B0DD01B0AE5
:10055000F8E711F8013B002B02F8013B05D011F838
:10056000013B002B02F8013BF3D130BD10B5431C19
:1005700002E010F8011B71B18107FAD14FF001328E
:1005800002C88C1A8C4314EAC211F9D0C01A0A06A8
:1005900003D0C01E10BDC01A10BD0A0401D0801EB9
:1005A00010BD0902FCD0401E10BD032A40F230806D
:1005B00010F0030C00F0158011F8013BBCF1020FA4
:1005C000624498BF11F801CB00F8013B38BF11F825
:1005D000013BA2F1040298BF00F801CB38BF00F83C
:1005E000013B11F0030300F06780083AC0F0088077
:1005F00051F8043B083A51F804CBA0E80810F5E79D
:10060000121D5CBF51F8043B40F8043BAFF300807F
:10061000D20724BF11F8013B11F801CB48BF11F8F4
:10062000012B24BF00F8013B00F801CB48BF00F8C4
:10063000012B7047431A28BF9A427FF6B6AF032AB0
:100640001044114440F2268010F0030F1EBF11F831
:10065000013D521E00F8013D10F0030F7FF4F6AF8C
:1006600011F0030300F06D80083AC0F00B8051F8E0
:10067000043D083A51F804CD40F8043D40F804CD5B
:10068000FFF7F3BF121D5CBF51F8043D40F8043D75
:10069000AFF30080D20724BF11F8013D11F801CD5E
:1006A00048BF11F8012C24BF00F8013D00F801CD2E
:1006B00048BF00F8012C704710B5203AC0F00B80FD
:1006C000B1E81850203AA0E81850B1E81850A0E856
:1006D0001850BFF4F5AF5FEA027C24BFB1E81850B0
:1006E000A0E8185044BF18C918C0BDE810405FEA20
:1006F000827C24BF51F8043B40F8043B08BF70479C
:10070000D20728BF31F8023B48BF11F8012B28BFA0
:1007100020F8023B48BF00F8012B7047431A28BF5E
:100720009A427FF6C9AF104410F0030F11441EBF68
:1007300011F8013D521E00F8013D10F0030F7FF447
:10074000F6AF103AC0F00A8010B531E91850103AEF
:1007500020E91850BFF4F9AFBDE81040530724BF9B
:1007600031E9081020E9081044BF51F8043D40F871
:10077000043D12F0030F08BF7047D20728BF31F8BD
:10078000023D48BF11F8012C28BF20F8023D48BFA8
:1007900000F8012C704701F0FF03114601B543EA50
:1007A000032242EA024200F00BF801BD02F0FF030F
:1007B00043EA032242EA024200F002B84FF000028C
:1007C0000429C0F0128010F0030C00F01B80CCF163
:1007D000040CBCF1020F18BF00F8012BA8BF20F8D1
:1007E000022BA1EB0C0100F00DB85FEAC17C24BF25
:1007F00000F8012B00F8012B48BF00F8012B7047CF
:100800004FF0000200B5134694469646203922BFA9
:10081000A0E80C50A0E80C50B1F12001BFF4F7AFF4
:10082000090728BFA0E80C5048BF0CC05DF804EBD6
:10083000890028BF40F8042B08BF704748BF20F844
:10084000022B11F0804F18BF00F8012B704710B534
:10085000044610F0030F08BF11F0030F40F015809D
:100860004FF0013E121FC0F20E8051F8043BA3EB83
:100870000E0C2CEA030C1CEACE1C08BF40F8043B0B
:10088000F0D0A1F1040102F10402521E08DB11F8BC
:10089000013B002B00F8013BF7D11146FFF78EFF1B
:1008A000204610BD704770477047000000487047F1
:1008B0007838002010B500F0BFFA006810BD10B500
:1008C000044600F0B9FA046010BD2DE9F0470D466A
:1008D00099469246044600F124080168880604D52A
:1008E000E06921F01001216000E00120A84201DD53
:1008F000471B00E00027A1697A1902EB0900081ADA
:10090000A0612078C00602D42046AFF30080002604
:1009100008E0D4E901211AF806009047206A401C3B
:10092000761C20624E45F4DB2078C0060AD52046AE
:10093000AFF3008006E0D4E9012130209047206A1F
:10094000401C2062381EA7F10107F4DC07E0D4E95F
:10095000012118F805009047206A401C2062281EDB
:10096000A5F10105F3DC2046AFF3008020780006F6
:1009700002D50220BDE8F0870120FBE770472DE992
:10098000FF4F0C461E464FF0FF378BB0D2E90001F7
:10099000DDF860800A908A46C1F30A5505B93D46E4
:1009A000002108464FF00000BAF1000F00F44000AB
:1009B00005DA00EB80004FF4400101EA50004FEAF5
:1009C0009059B9F1010F00DDB9460A9850EA4A0082
:1009D0000ED044F61050A5F2FF3545432F14B8F160
:1009E000000F1ED07542291E1EDDC9F100021CE059
:1009F000B8F1010F4FF0000001D0302103E0F243C5
:100A000005E02154401CB042FBDB304600220021AF
:100A100021540B99C1F80880C1E900200FB0BDE84E
:100A2000F08FBD1B6D1CDEE74A4600DA694206A85E
:100A300000F08CFA06AB93E8070003AB83E80700ED
:100A400050460A9900F086FB8DE80700A0F500509B
:100A50001F3800900398002D0ADD42F21F014A461C
:100A60000844002303A90390684600F0EFFD09E065
:100A7000A0F500504A461F38002303A9039068469A
:100A800000F0F9FD8DE807000004000C03D04FF0E2
:100A9000FF30410800E01046B8F1000F03D00022FB
:100AA000009215461EE0751E05D400F0C9F93032DB
:100AB00062556D1EF9D5B3460122084302D00022CB
:100AC0007F1C04E02078302801D100227F1E002AFC
:100AD000099784D01DE0112D07DA00F0B1F930320A
:100AE00062556D1C50EA0102F5D1084302D000980E
:100AF000C8B10EE00021681E05E0235C625C63540F
:100B00002254401E491C8142F7DBAB46A81B401E05
:100B10000990002004F80B000B98099AC0F808808F
:100B2000C0E9002B7AE711264FF0000857E72DE9BE
:100B3000F04F88460446D21D22F0070191B0D1E95A
:100B40000001CDE90A0103F0E3FA02460B98C00F59
:100B500001D02D2007E02068810701D52B2002E07D
:100B6000202101EAC000032A099001D0072A05DBF1
:100B700003464146204600F0A9F90BE120788006A3
:100B800001D5E06900E00620B8F1650F814606D086
:100B9000B8F1660F18D0B8F1670F70D131E00020BE
:100BA000B9F1110F009001DB112301E009F10103FC
:100BB0000AAA01A90CA8FFF7E2FEDDE90C700026E5
:100BC00009F10105834647E001204B4600904FF0B4
:100BD00000470AAA01A90CA8FFF7D1FEDDE90DB074
:100BE0000C995D46002610B909F101000D18B9EB0A
:100BF000050003D4C0F1FF3609F10105A5EB09009A
:100C00002BE0B9F1010F01DA4FF001090020B9F131
:100C1000110F0090484601DD112300E003460AAAA7
:100C200001A90CA8FFF7ABFEDDE90C704D460026CC
:100C30008346207800070AD4AB4500DA5D4601A858
:100C4000012D04DD411911F8011C302907D04F4551
:100C500002DA17F1040F04DA012082460FE06D1E5C
:100C6000EEE7002F02DCED1B3E4403E0781CA842B7
:100C700000DD7D1CB81B00F1010A4FF00047207811
:100C8000000703D4AA4501DB4FF0FF3A0021B7F17A
:100C9000004F0DF143088DF8431024D002202B2380
:100CA000002F01DA7F422D230A21021EA0F101004C
:100CB00000DC5FB197FBF1FC97FBF1F201FB1C7CC0
:100CC00017460CF1300C08F801CDEEE7A8F1010051
:100CD00003702188090501D5452100E06521A0F1B7
:100CE000010800F8011C09980FA9A1EB0807FF1DD6
:100CF00000B10120411901EBEA70A1693844081ADA
:100D0000401EA0612078C00602D42046AFF30080C8
:100D1000099828B1D4E901219047206A401C20623B
:100D20002078C00622D52046AFF300801EE0002EBA
:100D300004DBB34502DD01A8805D00E03020D4E98A
:100D400001219047206A401C2062761CAAF1010014
:100D50005FEA000A0AD1FFF7A9FDC0680168405C9C
:100D6000D4E901219047206A401C2062281EA5F189
:100D70000105DCDC07E0D4E9012118F8010B9047FC
:100D8000206A401C2062381EA7F10107F3DC2046D0
:100D9000AFF30080032011B041E6000001694A1C56
:100DA00002610878704700B58FB0CDE901310021AC
:100DB000059105497944CDE9031011466846FFF7CE
:100DC000E7FA0FB000BD0000E5FFFFFF0A6802F878
:100DD000010B0A607047D1E900239A4202D2531CEA
:100DE0000B601070704700002DE9F04115460E466B
:100DF000040002D12C6804B90BA4204600F028F9A5
:100E00000444207870B127463146384600F010F986
:100E10000444207810B1002004F8010B38462C60FF
:100E2000BDE8F0810027F9E70000000000487047A6
:100E3000583800207047000000487047583800209C
:100E400030B5B0F10A024FEA900E71F100034EEA9C
:100E5000817EB0EB0E0061EB91014FEA101E4EEA6D
:100E6000017E10EB0E0041EB11114FEA102E4EEAFD
:100E7000016E10EB0E0041EB11214FEA104E4EEACD
:100E8000014E10EB0E0041EB1141401841F1000101
:100E90004FEAD00040EA41704FEAD10110EB8005E3
:100EA0004FEA810444EA907444EB01046D1944EB69
:100EB0000404521BA3414FF0000348BF0A3200D57F
:100EC00030BD401C41F1000130BD00002DE9F04172
:100ED0001F46044603260168072A01F4006004DB6C
:100EE00008B116A505E016A503E008B115A500E0B8
:100EF00015A521F010002060A069C01EA0610FB1EF
:100F0000401EA0612046AFF300804FB1D4E901211B
:100F100038469047206A401C2062C01C206206E0D0
:100F2000206AFAE7D4E9012115F8010B9047761EF3
:100F3000F8D22046AFF30080BDE8F0814E414E006C
:100F40006E616E00494E4600696E66002DE9F047FD
:100F5000814616468AB0354878440DC88DE80D00A4
:100F600032487844801C03AC0DC884E80D0041F67B
:100F70009B300844372190FBF1F290FBF1F5A5F18D
:100F8000800501FB12041B3C02D56442012000E0F5
:100F90000020DFF898A080460027FA44AAF1BE0A94
:100FA0000EE0E0070AD03246684607EB470101230E
:100FB0000AEB810100F05FFB8DE8070064107F1CE5
:100FC000002CEED1194F7F44AE3F19E0E80715D051
:100FD00007EB04100DF1180A90E80E008AE80E00E5
:100FE000C068F04201D1981908903246012306A941
:100FF00003A800F040FB03AB83E807006D10641CFE
:10100000002DE3D14FF0010332466946B8F1000FDD
:1010100003A802D000F01AFB01E000F02CFBC9E9A4
:101020000001C9F808200AB0BDE8F087B8AC00009C
:1010300030B503461D781DB10A4603E0AC4201D12C
:10104000181A30BD12F8014B002CF7D15B1CF1E7E8
:1010500030B503461D783DB10A4612F8014B1CB16C
:10106000AC42FAD15B1CF5E7181A30BD4FF0013CD9
:1010700050F8042B51F8043B9A4221D1A2EB0C0307
:10108000934313EACC1317D150F8042B51F8043BC7
:101090009A4215D1A2EB0C03934313EACC130BD164
:1010A00050F8042B51F8043B9A4209D1A2EB0C03EF
:1010B000934313EACC13DBD04FF00000704700BF1E
:1010C000D01A01BAB1FA81F101F0180122FA01F047
:1010D000CB40C1F12001DBB2C0B2C01A2CFA01F33F
:1010E000D11A914311EAC311E6D170477546FFF753
:1010F0009DFEAE4605006946534620F00700854632
:1011000018B020B5FFF7D2F8BDE820404FF0000638
:101110004FF000074FF000084FF0000B21F00701DF
:10112000AC46ACE8C009ACE8C009ACE8C009ACE822
:10113000C0098D46704710B50446AFF300802046C5
:10114000BDE81040FFF751B801491820ABBEFEE7DB
:10115000260002005FEA400C08BF91F0000F4FEA42
:101160008C234FEAC12243EA51514FEA1C5018BF69
:1011700000F5F0404FEA300018BF41F000415FEA4F
:101180006C5C00F02980BCF1FF3F08BF40F080405C
:101190007047130C06BF12044FF0100C4FF0000CF8
:1011A000130E04BF12020CF1080C130F04BF12013E
:1011B0000CF1040C930F04BF92000CF1020CD30F3E
:1011C00004BF52000CF1010C11464FF00002A0F1D7
:1011D0001F00A0EB0C00704711F0004F08BF7047D4
:1011E00031F000413FF4D5AF0B0C06BF09044FF0BE
:1011F000100C4FF0000C0B0E04BF09020CF1080C90
:101200000B0F04BF09010CF1040C8B0F04BF890004
:101210000CF1020CCB0F04BF49000CF1010CCCF116
:101220002003A0EB0C0022FA03F302FA0CF241EACD
:10123000030100F10100704720F07F4C80EA0300B9
:1012400023F07F47ACEB070303F57C5300F000402D
:1012500003F1FF032DE980494FEA154B09B44FEA2A
:10126000144325EA0B4E24EA03480FF2042606EB4A
:10127000132749083E785FEA320203FB0667C7F589
:10128000000707FB06F64FEA54374FEAD64606F149
:10129000020607FB066CCCF1005C4FEA1C472CEA07
:1012A000074C07FB06F40CFB06F504EB15464FEA6A
:1012B000961634BF00204FF000404FEAD13706FBAE
:1012C00007FC4FEA1C4C0CFB0BF7D21B03FB0CF783
:1012D00061EB07010CFB0EF7B0EB074072EB174216
:1012E0000CFB08F734BFA2EB0742B2EB074261EBFD
:1012F00017414FEA0C444FEA910706FB07FC4FEAFF
:101300001C4C0CFB0BF7B0EBC74072EB573203FBE6
:101310000CF734BFA2EBC742B2EBC74261EB5731C7
:101320000CFB0EF7B0EBC70072EB57720CFB08F723
:1013300034BFA2EBC702B2EBC70261EB5771039F48
:101340004FEA816141EA921104EBCC044FEAD137B4
:101350004FEA826206FB07FC42EA90124FEA806085
:101360004FEA1C4C0CFB0BF7D21B03FB0CF761EB99
:1013700007010CFB0EF7B0EB074072EB17420CFBBA
:1013800008F734BFA2EB0742B2EB074261EB17410B
:101390004FEA8C554FEA910704EB9C2406FB07FCAF
:1013A0004FEA1C4C0CFB0BF7B0EBC74072EB57320B
:1013B00003FB0CF734BFA2EBC742B2EBC74261EBB1
:1013C00057310CFB0EF7B0EBC70072EB57720CFBFA
:1013D00008F734BFA2EBC702B2EBC70261EB57714B
:1013E00015EB4C254FEA816141EA92114FEA826286
:1013F0004FEAD13742EA901206FB07FC44F10004A1
:101400004FEA80604FEA1C4C0CFB0BF7D21B03FB2E
:101410000CF761EB07010CFB0EF7B0EB074072EB2A
:1014200017420CFB08F734BFA2EB0742B2EB0742AE
:1014300061EB174115EB1C154FEA813141EA9241EE
:101440004FEA823242EA90424FEA80304FEA0C760D
:1014500044F1000448EA03434EEA0B484FF0000E03
:10146000B2EB080C71EB030724BF624639464EEB22
:101470000E0E4FF0000B0018524149414BEB0B0B85
:10148000B2EB080C71EB03077BF1000B24BF624643
:1014900039464EEB0E0E4FF0000B001852414941F9
:1014A0004BEB0B0BB2EB080C71EB03077BF1000B62
:1014B00024BF624639464EEB0E0E51EA020718BFB2
:1014C00046F0010616EB0E7655F1000254F10001CC
:1014D00003D5BDE88901BDE80088BDE88901BDE804
:1014E0000048B619524141EB0101A3F101037047D5
:1014F00080807F7E7D7C7B7A797877767675747351
:10150000727171706F6E6E6D6C6C6B6A6A6968680F
:10151000676666656464636362616160605F5F5EA5
:101520005E5D5D5C5C5B5B5A5A595958585757561B
:101530005655555554545353525252515150505080
:101540004F4F4F4E4E4D4D4D4C4C4C4B4B4B4A4AD2
:101550004A49494948484847474747464646454516
:10156000454444444443434343424242424141414F
:10157000002B9C4630D477002BD01CB54FEA3707A0
:1015800003B44FF010004FF01001BAF1000F06D075
:10159000BCF1000FDCBF40F0080040F008014FF044
:1015A00000000FBCBDE810400BF1010BBBF1010FB7
:1015B00008BF5FEA170722BF12F1010211F1010112
:1015C0004FF0004143F1000300F0004043EA000007
:1015D0007047F9D35708D0E746EA064613F1400FA3
:1015E0004FEA16461FDD13F1200FDFBF16430A46F0
:1015F000002120335B42BED0C3F1200746EA0646F5
:1016000002FA07F74FEA164646EA0706C3F1200733
:1016100022FA03F201FA07F721FA03F14FF000036F
:1016200042EA0702A7E746EA020646EA06464FEA0A
:10163000164646EA0106BCBF46EA0646360C4FF09F
:1016400000034FF000024FF0000194E72DE9804CB9
:101650009A46934670B491E8380007C831EA400CC6
:1016600048BF34EA430C03D5FFF7E6FDFFF780FFE0
:10167000F0BCBDE8008C2DE9804C9A46934670B4CE
:1016800091E8380007C810F0804F08BF13F0804F72
:1016900003D100F005F8FFF76BFFF0BCBDE8008C4C
:1016A00020F07F4780EA030023F07F4C07EB0C0318
:1016B000A3F57C5300F00040A3F1FE0392F0000F6D
:1016C00000F0B38095F0000F00F077802DE901491C
:1016D0004FEA11404FEA144621EA004800FB06FC9D
:1016E00024EA064708FB06F607FB08F800FB07F7A5
:1016F00018EB06484CEB164C4FEA124B18EB074818
:101700004FEA15464CEB174022EA0B4E0BFB06FC4A
:1017100025EA06470EFB06F607FB0EFE0BFB07F756
:101720001EEB064E4CEB164C4FF000061EEB074E20
:101730004CEB174B18EB0B0840F1000018EB0E0BAD
:1017400058EB000840F100008F1A4FF000013CBF39
:10175000C943661B14BFB5EB040C00213CBFC94351
:10176000F61B4FEA17444EEA8E0E27EA04454FEA6D
:101770001C4704FB07622CEA074C05FB07F70CFB30
:1017800005F604FB0CFC16EB074642EB174216EB82
:101790000C4642EB1C421BEB060658EB0202414191
:1017A00046EA9E0601D5BDE80189B619524141EBD2
:1017B0000101A3F10103BDE801894FEA14454FEA95
:1017C000114724EA054621EA074C05FB07F406FB0E
:1017D00007F70CFB06F105FB0CFC11EB074144EB92
:1017E00017444FEA124711EB0C4144EB1C4422EA28
:1017F000074C05FB07F206FB07F70CFB06F605FB9B
:101800000CFC16EB074642EB174216EB0C4642EB7C
:101810001C456A1854F1000148BF7047B61952417F
:1018200041EB0101A3F10103704795F0000F37D0A0
:101830004FEA11424FEA144721EA024624EA074CD4
:1018400002FB07F106FB07F70CFB06F402FB0CFC9E
:1018500014EB074441EB17414FEA154714EB0C44D6
:1018600041EB1C4125EA074C02FB07F506FB07F795
:101870000CFB06F602FB0CFC16EB074645EB174586
:1018800016EB0C4645EB1C42121951F1000148BF02
:101890007047B619524141EB0101A3F101037047B2
:1018A0004FEA14454FEA114724EA054621EA074C5E
:1018B00005FB07F106FB07F70CFB06F24FF00006ED
:1018C00005FB0CFC12EB074241EB174112EB0C42FB
:1018D00051EB1C4148BF7047921841EB0101A3F145
:1018E0000103704770B504460D461148844205D087
:1018F0001048844202D01048844200D104E040F2F3
:101900002D110EA007F09BFD0DB1012D00D104E0BB
:101910004FF4977109A007F092FD25B1A06840F03F
:101920000100A06003E0A06820F00100A06070BD8D
:101930000024014000280140003C01402E2E5C4C58
:1019400069627261726965735C53544D333246311A
:1019500030785F5374645065726970685F4472696F
:101960007665725C7372635C73746D3332663130AA
:10197000785F6164632E630070B504460D461048BD
:10198000844202D00F48844200D104E04FF4A37196
:101990000DA007F054FD0DB1012D00D104E040F27F
:1019A000471109A007F04BFD25B1A06840F48070F5
:1019B000A06003E0A06820F48070A06070BD00000B
:1019C00000240140003C01402E2E5C4C6962726193
:1019D000726965735C53544D3332463130785F53CE
:1019E00074645065726970685F4472697665725C90
:1019F0007372635C73746D3332663130785F616427
:101A0000632E630070B5044600250C48844205D05F
:101A10000B48844202D00B48844200D104E040F2DB
:101A2000B11109A007F00BFDA06800F0040008B197
:101A3000012500E00025284670BD0000002401407B
:101A400000280140003C01402E2E5C4C696272610E
:101A5000726965735C53544D3332463130785F534D
:101A600074645065726970685F4472697665725C0F
:101A70007372635C73746D3332663130785F6164A6
:101A8000632E630070B5044600250C48844205D0DF
:101A90000B48844202D00B48844200D104E040F25B
:101AA0008B1109A007F0CBFCA06800F0080008B17A
:101AB000012500E00025284670BD000000240140FB
:101AC00000280140003C01402E2E5C4C696272618E
:101AD000726965735C53544D3332463130785F53CD
:101AE00074645065726970685F4472697665725C8F
:101AF0007372635C73746D3332663130785F616426
:101B0000632E63002DE9F04105460C4600260027B0
:101B10005D48854205D05D48854202D05C488542DB
:101B200000D103E0DE215BA007F089FC206818B338
:101B30002068B0F5803F1FD02068B0F5003F1BD073
:101B40002068B0F5403F17D02068B0F5802F13D043
:101B50002068B0F5A02F0FD02068B0F5C02F0BD0B3
:101B60002068B0F5E02F07D02068B0F5002F03D033
:101B70002068B0F5102F00D103E0DF2145A007F069
:101B80005EFC207910B12079012800D103E0E0212A
:101B900040A007F054FC607910B16079012800D1B1
:101BA00003E0E1213BA007F04AFCA06888B3A068ED
:101BB000B0F5003F2DD0A068B0F5802F29D0A068E7
:101BC000B0F5C02F25D0A068B0F5002F21D0A068B7
:101BD000B0F5202F1DD0A068B0F5402F19D0A06817
:101BE000B0F5602F15D0A06898B1A068B0F5003F9F
:101BF0000FD0A068B0F5C02F0BD0A068B0F5002FB3
:101C000007D0A068B0F5202F03D0A068B0F5402F12
:101C100000D103E0E2211FA007F011FCE06818B139
:101C2000E068B0F5006F00D103E0E32119A007F0F0
:101C300006FC207C012803DB207C102800DC03E06C
:101C4000E42114A007F0FBFB6E68214806402179CF
:101C5000206840EA012006436E60AE681D480640D9
:101C6000D4E902100843617940EA41000643AE60BE
:101C7000EE6A26F47006207C401EC0B2074346EA96
:101C80000756EE62BDE8F0810024014000280140C3
:101C9000003C01402E2E5C4C696272617269657372
:101CA0005C53544D3332463130785F537464506521
:101CB000726970685F4472697665725C7372635CA6
:101CC00073746D3332663130785F6164632E630004
:101CD000FFFEF0FFFDF7F1FF2DE9F04706460C4649
:101CE000174698460025A9466048864205D06048B8
:101CF000864202D05F48864200D104E040F2512182
:101D00005DA007F09CFB0CB3012C1FD0022C1DD052
:101D1000032C1BD0042C19D0052C17D0062C15D061
:101D2000072C13D0082C11D0092C0FD00A2C0DD061
:101D30000B2C0BD00C2C09D00D2C07D00E2C05D061
:101D40000F2C03D0102C01D0112C00D104E040F254
:101D5000522149A007F073FB012F02DB102F00DC9A
:101D600004E040F2532144A007F069FBB8F1000FF2
:101D700014D0B8F1010F11D0B8F1020F0ED0B8F1A4
:101D8000030F0BD0B8F1040F08D0B8F1050F05D040
:101D9000B8F1060F02D0B8F1070F00D104E04FF4FC
:101DA000157135A007F04BFB092C13DDF568A4F184
:101DB0000A0000EB4001072000FA01F925EA0905B5
:101DC000A4F10A0000EB400008FA00F945EA090511
:101DD000F5600EE0356904EB4401072000FA01F9D3
:101DE00025EA090504EB440008FA00F945EA09056B
:101DF0003561072F11DA756B781E00EB80011F200B
:101E000000FA01F925EA0905781E00EB800004FAC2
:101E100000F945EA0905756326E00D2F11DA356BE7
:101E2000F81F00EB80011F2000FA01F925EA0905DF
:101E3000F81F00EB800004FA00F945EA0905356354
:101E400012E0F56AA7F10D0000EB80011F2000FAF7
:101E500001F925EA0905A7F10D0000EB800004FA5D
:101E600000F945EA0905F562BDE8F0870024014064
:101E700000280140003C01402E2E5C4C69627261DA
:101E8000726965735C53544D3332463130785F5319
:101E900074645065726970685F4472697665725CDB
:101EA0007372635C73746D3332663130785F616472
:101EB000632E630010B504460948844205D00948E2
:101EC000844202D00848844200D104E040F27D11EF
:101ED00006A007F0B4FAA06840F00800A06010BDAA
:101EE0000024014000280140003C01402E2E5C4CA3
:101EF00069627261726965735C53544D3332463165
:101F000030785F5374645065726970685F447269B9
:101F10007665725C7372635C73746D3332663130F4
:101F2000785F6164632E630070B504460D46114806
:101F3000844205D01048844202D01048844200D127
:101F400004E040F2CB110EA007F079FA0DB1012D9B
:101F500000D104E04FF4E67109A007F070FA25B152
:101F6000A06840F4A000A06003E0A06820F4A000F6
:101F7000A06070BD0024014000280140003C0140E9
:101F80002E2E5C4C69627261726965735C53544DAC
:101F90003332463130785F537464506572697068CB
:101FA0005F4472697665725C7372635C73746D33DF
:101FB00032663130785F6164632E630010B5044689
:101FC0000948844205D00948844202D00848844226
:101FD00000D104E040F2A31106A007F030FAA06897
:101FE00040F00400A06010BD002401400028014022
:101FF000003C01402E2E5C4C69627261726965730F
:102000005C53544D3332463130785F5374645065BD
:10201000726970685F4472697665725C7372635C42
:1020200073746D3332663130785F6164632E6300A0
:1020300010B505F049F910BD00BFFEE770B50446C4
:102040000D46244884422AD022481430844226D0A7
:1020500020482830844222D01E483C3084421ED082
:102060001C48503084421AD01A486430844216D03A
:1020700018487830844212D0174884420FD016484E
:10208000143084420BD014482830844207D01248C0
:102090003C30844203D010485030844200D104E0E8
:1020A0004FF494710DA007F0CAF90DB1012D00D1C4
:1020B00004E040F2291109A007F0C1F925B1206818
:1020C00040F00100206004E020684FF6FE710840F7
:1020D000206070BD08000240080402402E2E5C4CB7
:1020E00069627261726965735C53544D3332463173
:1020F00030785F5374645065726970685F447269C8
:102100007665725C7372635C73746D333266313002
:10211000785F646D612E630010B504466A4884429E
:102120002AD069481430844226D067482830844237
:1021300022D065483C3084421ED0634850308442EF
:102140001AD061486430844216D05F4878308442A7
:1021500012D05E4884420FD05C48143084420BD0C9
:102160005A482830844207D058483C30844203D033
:1021700056485030844200D103E06E2154A007F04D
:102180005EF920684FF6FE71084020600020206054
:102190006060A060E0604C48844208D14A4808383A
:1021A000406840F00F004849083948608AE04648D6
:1021B0001430844208D144480838406840F0F000A8
:1021C0004149083948607DE03F482830844208D1C1
:1021D0003D480838406840F470603B490839486021
:1021E00070E039483C30844208D1374808384068AC
:1021F00040F4704034490839486063E03248503058
:10220000844208D130480838406840F470202E4994
:102210000839486056E02C486430844208D12A4886
:102220000838406840F4700027490839486049E0A0
:1022300025487830844208D123480838406840F067
:1022400070602149083948603CE02048844206D14A
:10225000001F006840F00F00211F086032E01B489B
:102260001430844208D11948001F006840F0F00083
:102270001649091F086025E014482830844208D117
:102280001248001F006840F470601049091F086080
:1022900018E00E483C30844208D10C48001F00680A
:1022A00040F470400949091F08600BE007485030AE
:1022B000844207D10548001F006840F4702003499C
:1022C000091F086010BD0000080002400804024019
:1022D0002E2E5C4C69627261726965735C53544D59
:1022E0003332463130785F53746450657269706878
:1022F0005F4472697665725C7372635C73746D338C
:1023000032663130785F646D612E630070B50546CA
:102310000C4600265E4885422AD05D48143085422E
:1023200026D05B482830854222D059483C3085422F
:102330001ED05748503085421AD0554864308542E7
:1023400016D053487830854212D0524885420FD07B
:102350005048143085420BD04E482830854207D073
:102360004C483C30854203D04A485030854200D129
:1023700003E0CE2148A007F062F8A068102801D041
:10238000A06800B903E0CF2143A007F058F8E06847
:1023900020B1E068B0F5803F00D203E0D0213EA03C
:1023A00007F04DF82069402801D0206900B903E00A
:1023B000D12139A007F043F86069802801D0606915
:1023C00000B903E0D22134A007F039F8A06938B190
:1023D000A069B0F5807F03D0A069B0F5007F00D17F
:1023E00003E0D3212CA007F02AF8E06938B1E069B6
:1023F000B0F5806F03D0E069B0F5006F00D103E065
:10240000D42125A007F01BF8206A202801D0206ADB
:1024100000B903E0D52120A007F011F8606AB0F5FB
:10242000405F09D0606AB0F5005F05D0606AB0F522
:10243000805F01D0606A00B903E0D62116A006F0E3
:10244000FEFFA06AB0F5804F01D0A06A00B903E09A
:10245000D72111A006F0F3FF2E6847F6F0708643EF
:10246000216AA06808432169084361690843A1699A
:102470000843E1690843616A0843A16A08430643C7
:102480002E60E06868602068A8606068E86070BDE1
:1024900008000240080402402E2E5C4C6962726102
:1024A000726965735C53544D3332463130785F53F3
:1024B00074645065726970685F4472697665725CB5
:1024C0007372635C73746D3332663130785F646D40
:1024D000612E6300704710B5802000F035F8802031
:1024E00000F002F810BD000010B50446200D0005F4
:1024F00008B904B103E0FB2102A006F0A0FF1148D7
:10250000046010BD2E2E5C4C696272617269657345
:102510005C53544D3332463130785F5374645065A8
:10252000726970685F4472697665725C7372635C2D
:1025300073746D3332663130785F657874692E63F9
:10254000000000001404014070B504460025002678
:10255000012C31D0022C2FD0042C2DD0082C2BD0C4
:10256000102C29D0202C27D0402C25D0802C23D0F3
:10257000B4F5807F20D0B4F5007F1DD0B4F5806F16
:102580001AD0B4F5006F17D0B4F5805F14D0B4F54D
:10259000005F11D0B4F5804F0ED0B4F5004F0BD0D2
:1025A000B4F5803F08D0B4F5003F05D0B4F5802FD6
:1025B00002D0B4F5002F00D103E0E42108A006F01A
:1025C0003EFF1748006800EA04061548143000680A
:1025D000204010B10EB1012500E00025284670BD55
:1025E0002E2E5C4C69627261726965735C53544D46
:1025F0003332463130785F53746450657269706865
:102600005F4472697665725C7372635C73746D3378
:1026100032663130785F657874692E63000000009F
:102620000004014070B504460025207910B12079DE
:10263000042800D103E0692135A006F000FF60798D
:10264000082805D060790C2802D06079102800D1C4
:1026500003E06A212EA006F0F2FE20686FF313005B
:1026600010B9206800B103E06B2129A006F0E7FE55
:10267000A07910B1A079012800D103E06C2124A039
:1026800006F0DDFE324DA07990B32846006821683F
:10269000884329460860081D006821688843291D71
:1026A0000860207905442868216808432860284884
:1026B0000830006821688843254908310860081DF2
:1026C00000682168884322490C310860607910282D
:1026D0000FD1081F0068216808431D4908310860B0
:1026E000081D00682168084319490C3108600EE094
:1026F00007E0174D60790544286821680843286081
:1027000005E020790544286821688843286070BD69
:102710002E2E5C4C69627261726965735C53544D14
:102720003332463130785F53746450657269706833
:102730005F4472697665725C7372635C73746D3347
:1027400032663130785F657874692E63000000006E
:102750000004014070B505460C4600265DB1012D10
:1027600009D0022D07D0032D05D0042D03D0052D4F
:1027700001D0062D00D104E040F2622121A006F034
:102780005EFEECB1012C1BD0022C19D0032C17D00B
:10279000042C15D0052C13D0062C11D0072C0FD0EB
:1027A000082C0DD0092C0BD00A2C09D00B2C07D0EB
:1027B0000C2C05D00D2C03D00E2C01D00F2C00D1E9
:1027C00004E040F263210FA006F039FEA007010FDC
:1027D0000F2000FA01F61B48A11050F82100B04369
:1027E0001849A21041F822000846A11050F8210013
:1027F000A107090F05FA01F108431249A21041F897
:10280000220070BD2E2E5C4C696272617269657324
:102810005C53544D3332463130785F5374645065A5
:10282000726970685F4472697665725C7372635C2A
:1028300073746D3332663130785F6770696F2E6301
:1028400000000000080001402DE9F05F05460C463D
:102850004FF00009CA4600260027B046B346594843
:10286000854211D0584885420ED0584885420BD039
:102870005748854208D05748854205D0564885427A
:1028800002D05648854200D103E0B12154A006F0A1
:10289000D6FDE078A0B1E078042811D0E0782828AF
:1028A0000ED0E07848280BD0E078142808D0E078E3
:1028B000102805D0E0781C2802D0E078182800D134
:1028C00003E0B22146A006F0BAFD002010B920882E
:1028D00000B103E0B32142A006F0B1FDE07800F0C2
:1028E0000F09E07800F0100080B1A078012805D031
:1028F000A078022802D0A078032800D103E0BA21F2
:1029000037A006F09CFDA07840EA0909207838B38A
:10291000D5F8008000261FE0012000FA06F7208885
:1029200000EA070ABA4516D1B7000F2000FA07FBE4
:1029300028EA0B0809FA07F040EA0808E078282896
:1029400003D10120B040686105E0E078482802D159
:102950000120B0402861761C082EDDD3C5F8008028
:102960002088FF282BDDD5F80480002623E006F11F
:102970000800012101FA00F7208800EA070ABA4599
:1029800018D1B7000F2000FA07FB28EA0B0809FA54
:1029900007F040EA0808E078282803D106F108008B
:1029A00081406961E078482804D106F108000121DE
:1029B00081402961761C082ED9D3C5F80480BDE872
:1029C000F09F000000080140000C01400010014091
:1029D0000014014000180140001C0140002001408B
:1029E0002E2E5C4C69627261726965735C53544D42
:1029F0003332463130785F53746450657269706861
:102A00005F4472697665725C7372635C73746D3374
:102A100032663130785F6770696F2E6300000000A6
:102A200070B504460D461348844211D012488442C2
:102A30000ED0124884420BD01148844208D011486D
:102A4000844205D01048844202D01048844200D10C
:102A500004E04FF4BC710EA006F0F1FC002008B9B0
:102A600005B104E040F2791109A006F0E8FC6561C7
:102A700070BD000000080140000C01400010014042
:102A80000014014000180140001C014000200140DA
:102A90002E2E5C4C69627261726965735C53544D91
:102AA0003332463130785F537464506572697068B0
:102AB0005F4472697665725C7372635C73746D33C4
:102AC00032663130785F6770696F2E6300000000F6
:102AD00070B504460D461348844211D01248844212
:102AE0000ED0124884420BD01148844208D01148BD
:102AF000844205D01048844202D01048844200D15C
:102B000004E04FF4B4710EA006F099FC002008B95F
:102B100005B104E040F2691109A006F090FC2561BE
:102B200070BD000000080140000C01400010014091
:102B30000014014000180140001C01400020014029
:102B40002E2E5C4C69627261726965735C53544DE0
:102B50003332463130785F537464506572697068FF
:102B60005F4472697665725C7372635C73746D3313
:102B700032663130785F6770696F2E630000000045
:102B800001480249086070476D3D00083000002090
:102B90002DE9F04705460E46174698461748D0F8E7
:102BA0000D04B0F5005F14D34FF0000908E013499D
:102BB000D1F8050404F072F98146484607F0C6FCD6
:102BC0000E49D1F8050404F045F90028EFD0BDE81E
:102BD000F087102007F0FAF8044625606660781B3D
:102BE000401CA060A8EB0600401CE0600349D1F83F
:102BF0000504214604F082F900BFE8E7A40700209D
:102C000070474FF47A71484300BF011EA0F10100E4
:102C1000FBD1704710B5029C10BD704710B54FF442
:102C200080610D48FDF7CAFD00200B4981F80404BE
:102C3000C1F8000404F0ECF80749C1F805040020CD
:102C4000C1F80904C1F80D04C1F8110403F0A2FA97
:102C500002F0E4F810BD0000A407002070B523487E
:102C6000D0F8050400B970BD00242048D0F80D0448
:102C7000B0F5005F17D33F237F220021084600F004
:102C800037F808E01949D1F8050404F007F90446BB
:102C9000204607F05BFC1549D1F8050404F0DAF88A
:102CA0000028EFD01CE014E01049D1F8050404F02E
:102CB000F5F80446E668656835446B1EA668256825
:102CC00035446A1ED4E9000100F012F8204607F0EE
:102CD0003DFC0649D1F8050404F0BCF80028E3D017
:102CE00000200249C1F80D0400BFBCE7A407002082
:102CF0002DE9F04F87B0044688461546994621488D
:102D0000006840B3281B00F1010A4FEAE8064FEAC9
:102D1000E907B81B401C0690069A0AFB02F007F070
:102D200055F80590802301221749CDE90257CDE9D6
:102D30000046059806F07EFA83464B462A464146F1
:102D400000902046DFF83CC0DCF800C0E047059862
:102D500007F0FCFB13E046460FE027460AE0F010C0
:102D6000094901EBC010C25D31463846074B1B686C
:102D700098477F1CAF42F2DD761C4E45EDDD07B073
:102D8000BDE8F08F30000020A407002034000020B0
:102D90002DE9F04105460E4617462C4604B104E0E5
:102DA00040F2CB411DA006F04AFBE06B00B104E00D
:102DB00040F2CC4119A006F042FBA662E762204631
:102DC000616C88471A4890F8040490B1D4F804C0A4
:102DD000D4F80C80C444ACF10103D4F800C0D4F89A
:102DE0000880C444ACF10102D4E90001FFF780FF80
:102DF00011E0D4F804C0D4F80C80C444ACF1010351
:102E0000D4F800C0D4F80880C444ACF10102D4E97D
:102E10000001FFF7BDFE0020BDE8F0812E2E5C2EE4
:102E20002E5C636F72655C52485F6775692E630044
:102E3000A407002070B505464C2006F0C7FF0446E5
:102E400004B104E040F2734127A006F0F8FA05B19E
:102E500004E040F2744124A006F0F1FA284604F0A0
:102E6000ABFA4C2229462046FDF758FC0020A0640E
:102E7000207C07282FD2DFE800F0040B1219202E47
:102E800027001E48E0631E4820641E48606428E056
:102E90001D48E0631D4820641D48606421E01D4812
:102EA000E0631D4820641D4860641AE01C48E0632C
:102EB0001C4820641C48606413E01C48E0631C4804
:102EC00020641C4860640CE01B48E0631B482064DD
:102ED0001B48606405E040F29A4103A006F0AFFA97
:102EE00000BF00BF204670BD2E2E5C2E2E5C636F8F
:102EF00072655C52485F6775692E630059800008EF
:102F0000518F0008B7730008F17B0008418E00085C
:102F10009F73000855750008C98D00088773000865
:102F2000AD7E00084D8E0008AB7300082D740008BC
:102F3000B98C00087B7300084D780008D58D000817
:102F4000937300082DE9F04105462C4604B104E0D6
:102F500040F2B74116A006F072FAE06B00B104E04F
:102F60004FF4976112A006F06AFA2046E16B884799
:102F7000144890F8040460B1E76866683E44731E24
:102F8000A76826683E44721ED4E90001FFF7B0FE30
:102F90000BE0E76866683E44731EA76826683E44F7
:102FA000721ED4E90001FFF7F3FD0020BDE8F081B7
:102FB0002E2E5C2E2E5C636F72655C52485F6775C7
:102FC000692E6300A407002001460020704700001E
:102FD0002DE9F04106464C2006F0F8FE044601F0CB
:102FE0003DFB04B104E040F22C6147A006F027FA53
:102FF00006B104E040F22D6143A006F020FA00BFC4
:103000007069052800D904E04FF4C46143A006F0BC
:1030100016FAB06A052800DD04E040F221613FA005
:1030200006F00DFA307C022800DA04E040F222615A
:103030003AA006F004FA00BF4C2231462046FDF7C4
:103040003BFB207C10B101280ED106E038486064BB
:103050003848A064022020640CE037486064374898
:10306000A0640220206405E040F23F6126A006F043
:10307000E6F900BF00BF206A78B394F8240001F09D
:10308000A9FFA06A01F056FF0520E063D4E90F1004
:103090000844A168A1EB40073946206A01F010FC02
:1030A0000546D5E9012101FB02F006F08FFEE06242
:1030B000E06A00B104E040F24E6113A006F0BFF9EF
:1030C000D5E901C303FB0CF22968E06AFDF76DFA4C
:1030D00068682063A868606300BF1948D0F81104CD
:1030E00030B9204603F056FE1549C1F8110405E039
:1030F0001349D1F81104214603F020FE01F0F4FE3B
:103100002046BDE8F08100002E2E5C2E2E5C636F01
:1031100072655C52485F6775692E63002E2E5C2EC7
:103120002E5C636F72655C52485F6775692E630041
:103130006D830008AD90000889870008AF900008F3
:10314000A407002000BFFEE72DE9F04705460C4626
:103150000027B9460026B0463348854202D033489E
:10316000854200D104E040F2DF3131A006F067F97A
:103170003E4884423DD0B4F1021F3AD03C488442DC
:1031800037D0B4F5020F34D0B4F5901F31D03948A0
:1031900084422ED0384884422BD03848844228D0EC
:1031A0003248801C844224D03148001D844220D003
:1031B000334884421DD0102C1BD03248844218D092
:1031C0003148844215D02F48401C844211D02D48EC
:1031D0003F3084420DD02C48801C844209D0001F0F
:1031E000844206D02748C01D844202D0B4F5806FC7
:1031F00000D104E04FF478710DA006F020F9B5F885
:1032000014902E8B360449EA060020F07F4707EA27
:103210000400A04202D14FF0010801E04FF0000885
:103220004046BDE8F08700000054004000580040D0
:103230002E2E5C4C69627261726965735C53544DE9
:103240003332463130785F53746450657269706808
:103250005F4472697665725C7372635C73746D331C
:1032600032663130785F6932632E63008200060077
:1032700080008600400002004000820040001200F2
:1032800084001600010003008200070070B50446A8
:103290000D461048844202D00F48844200D104E019
:1032A0004FF4A2710DA006F0CAF80DB1012D00D1A6
:1032B00004E040F2451109A006F0C1F825B12088CC
:1032C00040F00100208004E020884FF6FE710840A5
:1032D000208070BD00540040005800402E2E5C4CF1
:1032E00069627261726965735C53544D3332463161
:1032F00030785F5374645065726970685F447269B6
:103300007665725C7372635C73746D3332663130F0
:10331000785F6932632E630010B50446104884421A
:1033200002D01048844200D103E0A4210EA006F090
:1033300086F80B48844209D10121480500F020FCA1
:1033400000214FF4001000F01BFC08E0012188056B
:1033500000F016FC00214FF4800000F011FC10BDBD
:1033600000540040005800402E2E5C4C696272618F
:10337000726965735C53544D3332463130785F5314
:1033800074645065726970685F4472697665725CD6
:103390007372635C73746D3332663130785F693297
:1033A000632E630070B504460D461048844202D077
:1033B0000F48844200D104E04FF4C6710DA006F01E
:1033C0003EF80DB1012D00D104E040F28D1109A0AD
:1033D00006F035F825B1208840F48070208004E0A4
:1033E00020884FF6FF610840208070BD00540040E7
:1033F000005800402E2E5C4C6962726172696573E0
:103400005C53544D3332463130785F5374645065A9
:10341000726970685F4472697665725C7372635C2E
:1034200073746D3332663130785F6932632E6300B6
:1034300070B504460D461048844202D00F488442BD
:1034400000D104E04FF4D2710DA005F0F8FF0DB1EA
:10345000012D00D104E040F2A51109A005F0EFFF15
:1034600025B1208840F40070208004E020884FF6C9
:10347000FF510840208070BD0054004000580040BB
:103480002E2E5C4C69627261726965735C53544D97
:103490003332463130785F537464506572697068B6
:1034A0005F4472697665725C7372635C73746D33CA
:1034B00032663130785F6932632E63007CB5054631
:1034C0000C4600260020019000903648854202D02C
:1034D0003548854200D104E040F2454133A005F073
:1034E000AEFFB4F5000F3FD0B4F5800F3CD0B4F57B
:1034F000001F39D0B4F5801F36D0B4F5802F33D0FB
:10350000B4F5003F30D0B4F5803F2DD0364884422A
:103510002AD03648844227D0B4F1102F24D0344822
:10352000844221D0334884421ED0334884421BD089
:103530003248844218D031488038844214D02F4811
:10354000C038844210D02D48F03884420CD02B482B
:10355000F838844208D0001F844205D0801E84427F
:1035600002D0401E844200D104E040F246410FA048
:1035700005F065FF0095200F019024F07F4401982D
:1035800018B100981430009003E0240C0098183013
:10359000009000980068204008B1012600E0002655
:1035A00030467CBD00540040005800402E2E5C4C3C
:1035B00069627261726965735C53544D333246318E
:1035C00030785F5374645065726970685F447269E3
:1035D0007665725C7372635C73746D33326631301E
:1035E000785F6932632E6300008000100040001095
:1035F000000800100004001000020010000100107C
:103600002DE9F04385B005460C460026B146042757
:10361000DFF870815C48854202D05C48854200D169
:1036200003E0C5215AA005F00AFF206820B16749D0
:103630002068884200D803E0C62155A005F0FFFEAF
:10364000A08828B1A088022802D0A0880A2800D12A
:1036500003E0C7214EA005F0F2FEE088B0F5804FF0
:1036600004D0E0884BF6FF71884200D103E0C82106
:1036700047A005F0E4FE2089B0F5806F00DA03E092
:10368000C92143A005F0DBFE6089B0F5806F01D051
:10369000608900B903E0CA213DA005F0D0FEA089F1
:1036A000B0F5804F03D0A089B0F5404F00D103E0C2
:1036B000CB2137A005F0C3FEAE884FF6C0700640A0
:1036C000684600F0E9FADDF808804148B8FBF0F000
:1036D0001FFA80F946EA0906AE8028884FF6FE7187
:1036E0000840288000263B49206888420CD8206882
:1036F0004000B8FBF0F087B2042F00DA04273E4305
:1037000009F10100288427E0E0884BF6FF71884228
:1037100006D1206800EB4000B8FBF0F087B209E06A
:10372000206800EBC00101EB0010B8FBF0F087B29D
:1037300047F48047C7F30B0008B947F0010747F487
:10374000004006434FF4967009FB00F04FF47A7185
:1037500090FBF1F0401C2884AE83288840F00100E3
:1037600028802E884FF6F5300640A08861890843EE
:1037700006432E80A08921890843288105B0BDE831
:10378000F083000000127A0000540040005800400E
:103790002E2E5C4C69627261726965735C53544D84
:1037A0003332463130785F537464506572697068A3
:1037B0005F4472697665725C7372635C73746D33B7
:1037C00032663130785F6932632E6300801A0600FA
:1037D00040420F00A086010070B504460E46154613
:1037E0000E48844202D00E48844200D104E040F2E8
:1037F0005B210CA005F023FE0DB1012D00D104E0EA
:103800004FF4177107A005F01AFE15B146F0010636
:1038100002E04FF6FE700640268270BD0054004064
:10382000005800402E2E5C4C6962726172696573AB
:103830005C53544D3332463130785F537464506575
:10384000726970685F4472697665725C7372635CFA
:1038500073746D3332663130785F6932632E630082
:1038600070B504460D460748844202D0064884429B
:1038700000D104E04FF40F7104A005F0E0FD2582B3
:1038800070BD000000540040005800402E2E5C4CDB
:1038900069627261726965735C53544D33324631AB
:1038A00030785F5374645065726970685F44726900
:1038B0007665725C7372635C73746D33326631303B
:1038C000785F6932632E630010B503F0B1FC03F03A
:1038D0009FFC03F03FFD03F06BFC03F021FC10BDE7
:1038E00010B503F0D5FC10BD10B504462CB14FF453
:1038F00000510548FFF794F804E04FF400510248E6
:10390000FFF7E6F810BD00000010014000BFFEE721
:10391000704700002DE9F0410446002500270F26DE
:10392000E07810B1E078012800D103E0742121A0F3
:1039300005F085FD6078102800DA03E075211DA0F0
:1039400005F07DFDA078102800DA03E0762119A0AB
:1039500005F075FDE07800B32348006800F4E060EE
:10396000C0F5E060050AC5F10407EE40607800FA92
:1039700007F5A078304005432D011C482278855476
:10398000207800F01F01012088402178491189002A
:1039900001F1E021C1F8000109E0207800F01F01E9
:1039A0000120884012492278521141F82200BDE8D6
:1039B000F08100002E2E5C4C696272617269657341
:1039C0005C53544D3332463130785F5374645065E4
:1039D000726970685F4472697665725C7372635C69
:1039E0006D6973632E6300000CED00E000E400E0FD
:1039F00080E100E010B50446B4F5E06F0BD0B4F5FB
:103A0000C06F08D0B4F5A06F05D0B4F5806F02D0B8
:103A1000B4F5407F00D103E0622104A005F00FFD62
:103A20000F4820430F49086010BD00002E2E5C4C4B
:103A300069627261726965735C53544D3332463109
:103A400030785F5374645065726970685F4472695E
:103A50007665725C7372635C6D6973632E630000DC
:103A60000000FA050CED00E070B504460D4640F28A
:103A7000575024EA000008B904B104E040F22A419A
:103A80000CA005F0DCFC0DB1012D00D104E040F2EA
:103A90002B4108A005F0D3FC2DB115484069204307
:103AA0001349486104E012484069A0431049486145
:103AB00070BD00002E2E5C4C696272617269657384
:103AC0005C53544D3332463130785F5374645065E3
:103AD000726970685F4472697665725C7372635C68
:103AE00073746D3332663130785F7263632E6300B6
:103AF0000010024070B504460D461048204008B939
:103B000004B104E04FF48D610DA005F098FC0DB1F7
:103B1000012D00D104E040F2694109A005F08FFCBD
:103B20002DB11648C06920431449C86104E0134808
:103B3000C069A0431149C86170BD00000036018111
:103B40002E2E5C4C69627261726965735C53544DD0
:103B50003332463130785F537464506572697068EF
:103B60005F4472697665725C7372635C73746D3303
:103B700032663130785F7263632E6300001002405A
:103B800070B504460D461048204008B904B104E061
:103B900040F2C2410DA005F052FC0DB1012D00D143
:103BA00004E040F2C34109A005F049FC2DB11648DC
:103BB000006920431449086104E013480069A043E8
:103BC0001149086170BD0000003601812E2E5C4C49
:103BD00069627261726965735C53544D3332463168
:103BE00030785F5374645065726970685F447269BD
:103BF0007665725C7372635C73746D3332663130F8
:103C0000785F7263632E63000010024070B5044653
:103C10000D461048204008B904B104E040F2494183
:103C20000DA005F00CFC0DB1012D00D104E040F217
:103C30004A4109A005F003FC2DB1164880692043D4
:103C40001449886104E013488069A04311498861E0
:103C500070BD00000200C0FF2E2E5C4C69627261D4
:103C6000726965735C53544D3332463130785F531B
:103C700074645065726970685F4472697665725CDD
:103C80007372635C73746D3332663130785F726364
:103C9000632E63000010024030B500210022002492
:103CA00000232D4D6D6805F00C0121B1042905D0CC
:103CB000082923D105E0294D056022E0274D056044
:103CC0001FE0254D6D6805F47012234D6D6805F4F5
:103CD0008034022505EB92421CB9214D5543056005
:103CE0000BE01D4D6D6805F400351DB11C4D5543AD
:103CF000056002E0194D5543056002E0174D05606F
:103D000000BF00BF144D6D6805F0F0010909154DA5
:103D10006B5C0568DD4045600F4D6D6805F4E06142
:103D2000090A104D6B5C4568DD4085600A4D6D6881
:103D300005F46051C90A0B4D6B5C4568DD40C560F8
:103D4000054D6D6805F44041890B074D6B5CC568F6
:103D5000B5FBF3F5056130BD0010024000127A009A
:103D600000093D0004000020140000202DE9FE4F52
:103D700004460D4616461F46DDF830A0002C02DB37
:103D8000802C00DA03E0AB212EA005F058FB002EBA
:103D900002DB802E00DA03E0AC212AA005F04FFB05
:103DA000002D02DB402D00DA03E0AD2125A005F057
:103DB00046FB002F02DB402F00DA03E0AE2121A0FA
:103DC00005F03DFBB44201DA204600E03046804673
:103DD000B44201DD204600E030460290BD4201DAE7
:103DE000284600E038464FEAE00BBD4201DD284698
:103DF00000E03846C0100190D9461EE009F1B0013C
:103E0000C8B205F007FB08F00F0005F003FB102116
:103E100041EA2811C8B205F0FDFACDF8008006E0AD
:103E20001AF8010B05F0FDFA0098401C0090029969
:103E300000988842F4DD09F1010901988145DDDD32
:103E4000BDE8FE8F2E2E5C4253505C737364313399
:103E500030362E630000000070B5002413E004F13A
:103E6000B001C8B205F0D6FA002005F0D3FA102050
:103E700005F0D0FA002503E0002005F0D2FA6D1C11
:103E8000802DF9D3641C082CE9D370BD10B503F064
:103E900035FA642005F0E0FCAE2005F0BBFA2020E6
:103EA00005F0B8FA102005F0B5FAB02005F0B2FA26
:103EB000C82005F0AFFA002005F0ACFA102005F09C
:103EC000A9FA402005F0A6FA812005F0A3FAFF2008
:103ED00005F0A0FAA12005F09DFAA62005F09AFAB7
:103EE000A82005F097FA3F2005F094FAA42005F0E9
:103EF00091FAD32005F08EFA002005F08BFAD52038
:103F000005F088FAF02005F085FAD92005F082FA4C
:103F1000222005F07FFADA2005F07CFA122005F065
:103F200079FADB2005F076FA202005F073FA8D206F
:103F300005F070FA142005F06DFAAF2005F06AFA6A
:103F4000FFF78AFF10BD10B500F002F810BD0000A9
:103F50000CB50020019000903348006840F4803098
:103F60003149086000BF3048006800F4003000901C
:103F70000198401C0190009818B90198B0F5A06F05
:103F8000F1D12948006800F4003010B10120009000
:103F900001E0002000900098012843D123480068E8
:103FA00040F01000214908600846006820F0030036
:103FB00008600846006840F0020008601A4840683F
:103FC000194948600846406848600846406840F41F
:103FD000806048600846406820F47C1048600846CD
:103FE000406840F4E81048600846006840F080707F
:103FF000086000BF0C48006800F000700028F9D08D
:104000000948406820F003000749486008464068B6
:1040100040F00200486000BF0348406800F00C0018
:104020000828F9D10CBD0000001002400020024019
:1040300010B50446042C01D0601D00B903E0C8216E
:104040000BA005F0FCF9042C08D14FF0E02000692A
:1040500040F004004FF0E021086107E04FF0E0205D
:10406000006920F004004FF0E021086110BD00005D
:104070002E2E5C4C69627261726965735C53544D9B
:104080003332463130785F537464506572697068BA
:104090005F4472697665725C7372635C6D697363A9
:1040A0002E63000010B506F0D7FC10BD10B5134804
:1040B000006840F001001149086008464068104956
:1040C00008400E494860084600680E4908400B4900
:1040D00008600846006820F48020086008464068B0
:1040E00020F4FE0048604FF41F008860FFF72BFFAC
:1040F0004FF000600449086010BD0000001002404D
:104100000000FFF8FFFFF6FE08ED00E000BFFEE74D
:10411000490050EAC12018BF04204A0D18BF40F0E2
:10412000010040F2FF72B2EB515F08BF40F00200A5
:10413000012808BF052070474100080218BF04206D
:104140000A0E18BF40F001004FF07F4232EA010131
:1041500008BF40F00200012808BF0520704700009A
:10416000F0B5044617461E685A689D68944205D209
:10417000A94203D2002C01DB002901DA0020F0BDA6
:104180000C48D0F814C0006A081A0CFB0040DFF895
:1041900024C0DCF81CC0A0EB0C00DFF818C0DCF871
:1041A00010C01CF8000001FB026C0CF80400002099
:1041B000E5E700006C0000202DE9F84F06460C46AC
:1041C00091461D4605B103E0EC212AA005F037F920
:1041D000286800B103E0ED2126A005F030F96F68F2
:1041E000D5F808A0BE4205D2544503D2002E01DB0B
:1041F000002C02DA0120BDE8F88FE11001FB076115
:10420000286810F80180B9F1000F01D0012200E008
:10421000002200922046E11704EB5171C910A4EB73
:10422000C10148FA01F101F0010B009A82EA0B0288
:104230005AB92146E21704EB5272D210A4EBC20223
:104240000123934028EA03020AE02046E21704EB28
:104250005272D210A4EBC20301229A4042EA080231
:104260004FEAE40C0CFB076C2B6803F80C200020D1
:10427000C1E700002E2E5C2E2E5C636F72655C42DF
:104280006C61636B486F7573655C52485F67726100
:10429000706869632E6300002DE9F04706460C46FE
:1042A00091461D4605B103E06C2120A005F0C7F83A
:1042B000286800B103E06D211CA005F0C0F86F680C
:1042C000D5F808A0BE4205D2544503D2002E01DB2A
:1042D000002C02DA0120BDE8F087E11001FB076144
:1042E000286810F80180B9F1000F0BD12146E217C0
:1042F00004EB5272D210A4EBC20301229A4028EAC6
:1043000002020AE02046E21704EB5272D210A4EB3C
:10431000C20301229A4042EA08024FEAE40C0CFB75
:10432000076C2B6803F80C200020D4E72E2E5C2E9F
:104330002E5C636F72655C426C61636B486F757372
:10434000655C52485F677261706869632E63000044
:104350002DE9F84F05460E4691461C4604B103E090
:104360009B2112A005F06BF8206800B103E09C21AE
:104370000EA005F064F8D4F800806768D4F808A0AF
:10438000BD4205D2564503D2002D01DB002E02DAD4
:104390004846BDE8F88F06FB0780405D00909DF819
:1043A000000006FB078148550020F2E72E2E5C2E08
:1043B0002E5C636F72655C426C61636B486F7573F2
:1043C000655C52485F677261706869632E630000C4
:1043D0002DE9F04706460C4692461D4605B103E01E
:1043E000372117A005F02BF8286800B103E0382129
:1043F00013A005F024F8D5F800806F68D5F8089070
:10440000BE4205D24C4503D2002E01DB002C02DA5D
:104410000020BDE8F0872046E11704EB5171C91078
:10442000A4EBC10201219140E21002FB0782925DE0
:104430001143E21002FB078291550020E9E70000DA
:104440002E2E5C2E2E5C636F72655C426C61636B1A
:10445000486F7573655C52485F6772617068696325
:104460002E6300002DE9F84F06460C4692461D4685
:1044700005B103E0C0212BA004F0E1FF286800B1E2
:1044800003E0C12127A004F0DAFFD5F800806F68AF
:10449000D5F80890BE4205D24C4503D2002E01DB70
:1044A000002C02DA0020BDE8F88FE01000FB078046
:1044B000805D00902246E31704EB5373DB10A4EBFE
:1044C000C30C9DF8003043FA0CF303F0010383F0B2
:1044D000010383B92146E31704EB5373DB10A4EB0C
:1044E000C30C012303FA0CF39DF800C043EA0C034C
:1044F000DBB200930FE02046E31704EB5373DB10AD
:10450000A4EBC30C012303FA0CF39DF800C02CEAC2
:10451000030CCDF800C09DF8000004FB078188550E
:104520000020C0E72E2E5C2E2E5C636F72655C420D
:104530006C61636B486F7573655C52485F6772614D
:10454000706869632E6300002DE9F04706460C464B
:1045500092461D4605B103E0522117A004F06FFFFB
:10456000286800B103E0532113A004F068FFD5F8D8
:1045700000806F68D5F80890BE4205D24C4503D242
:10458000002E01DB002C02DA0120BDE8F087204676
:10459000E11704EB5171C910A4EBC1020121914054
:1045A000E21002FB0782925D22EA0101E21002FBA7
:1045B000078291550020E8E72E2E5C2E2E5C636F5B
:1045C00072655C426C61636B486F7573655C5248E1
:1045D0005F677261706869632E6300002DE9F047C0
:1045E00005460E4690461C4604B103E0872112A002
:1045F00004F025FF206800B103E088210EA004F03C
:104600001EFFD4F80090D4F804A0A768554505D241
:10461000BE4203D2002D01DB002E02DA4046BDE887
:10462000F08706FB0790405D18B906FB079000F87D
:1046300005800020F3E700002E2E5C2E2E5C636FB9
:1046400072655C426C61636B486F7573655C524860
:104650005F677261706869632E63000010B5B022F5
:1046600003490448FCF728F801200349087010BDED
:104670006C0C0020BC0B0020680000202DE9F04FDE
:104680008BB082468D48006830B18C49086805F0CF
:104690005DFF0020894908605046FBF767FF06462A
:1046A0008648006A854948600020886004213046B9
:1046B00005F07CFB07460421304605F077FB804679
:1046C0000421304605F072FB05460421304605F012
:1046D0006DFB8346B00005F079FB0A90B00005F051
:1046E00075FB8146002486E00020099008901AF9A5
:1046F00004107248D0F8AC0008AB09AAD0F80CC07E
:104700006E482830E04700200790069005900490FE
:1047100004A805A906AA07ABCDE90032CDE902102D
:104720006648436A1AF90410426AD0F8AC00D0F81F
:1047300010C062482830E04707990598401A45F8AC
:10474000240006990498401A4BF8240055F82400D8
:10475000B8B904A805A906AA07ABCDE90032CDE98E
:1047600002105648436A426AD0F8AC006821D0F87B
:1047700010C052482830E04707990598401A45F87C
:104780002400099806F00CFD01904C48416A0198FC
:1047900006F032FD029005F011FD039006F0C4FC16
:1047A0000A9941F82400089806F0FAFC0190434861
:1047B000416A019806F020FD029005F0FFFC03908D
:1047C00006F0B2FC49F824003C48806855F82410F3
:1047D00008443A4988603CB1601E57F8201055F8EB
:1047E0002000084447F8240034480069069908442A
:1047F00048F82400641CB442FFF476AF2F4989685E
:104800002E4A526801FB02F0012105F0CFFA2B4934
:10481000086000243AE00020099064B159F82400AF
:1048200058F82410254A926801FB020057F824101A
:10483000084409900BE059F8240058F824101F4A46
:10484000926801FB020057F82410084409901AF9F5
:1048500004101A48406A194A526A184B9B68CDE9FD
:104860000032CDE902015BF8243055F824201348CA
:10487000D0F800E009980EEB00011048D0F8AC0029
:10488000D0F814C00D482830E047641CB442C2D3AD
:10489000384605F05BFE404605F058FE284605F018
:1048A00055FE584605F052FE0A9805F04FFE484660
:1048B00005F04CFE01480BB0BDE8F08F6C0C0020F9
:1048C0002DE9F34F9DB0EB4689460020CBF87000F0
:1048D000CBF86C0072220BF16C01081D00F006FA97
:1048E000DBF87400FBF742FEC01D20F00700ADEBC3
:1048F000000DCBF868D0DBF87410DBF86800FBF72C
:1049000011FE0020CBF86000CBF86400EDA1DBF8CD
:104910006800FBF701FECBF8600000210BF164009A
:10492000DBF8602000F008FA0BF1600002F086F975
:10493000CBF85C000020CBF8580015E082B0E846C8
:10494000DBF85800C8F800000020C8F80400002177
:1049500008F10400D8F8002000F0EEF94146DBF839
:104960005C0002F039F900BFD6A10020FBF7D4FDAE
:10497000CBF858000028E1D1DBF85C40DBF85C4064
:1049800025460026CBF854000027CBF85000CBF882
:104990004C00CBF84800CBF84400CBF8400000BFF7
:1049A000E4B1206840683044484517D22068406828
:1049B0000644DBF85400401CCBF854000020CBF830
:1049C0004000DBF870003044484505D2DBF8700049
:1049D00006440120CBF8400064687DE0DBF840002D
:1049E00010B1DBF87000361AA9EB0600CBF85000C6
:1049F000DBF85400471E0FB9012003E0DBF850003C
:104A0000B0FBF7F0CBF84C000FB9012005E0DBF864
:104A10005000B0FBF7F107FB1100CBF8480022E093
:104A200082B0EA460020CAF80000DBF87010DBF81C
:104A30004C000A18DBF8480008B9002008E0DBF851
:104A40004800411ECBF8481008B1012000E00020CA
:104A50001044CAF8040052462968DBF85C0002F0F2
:104A60000FF9456800BF381EA7F10107D8D14CB136
:104A7000A068A84200D10EE04FF41E7192A004F08D
:104A8000DEFC08E06868A04200D104E040F27A2130
:104A90008DA004F0D4FC82B0E84692A0C8F80000D3
:104AA0000020C8F8040042462968DBF85C0002F0E8
:104AB000E7F84568DBF84400401CCBF84400AC4202
:104AC00000D104E040F283217FA004F0B8FC00266E
:104AD0000020CBF8540000BF002C7FF461AF002D04
:104AE000FBD18148006830B17F49086805F02EFD90
:104AF00000207D4908607C48C0F80890006ADBF817
:104B000044104843784948604968774A926801FBF5
:104B100002F0012105F04AF973490860084600686F
:104B200000B104E040F2A32167A004F088FCDBF8A8
:104B30005C00CBF83C000020CBF83800CBF8340008
:104B400000BFDBF83C000068D0F80080B8F1000F2F
:104B500009D1DBF83C0000684168DBF83800084404
:104B6000CBF838009AE098F800000A280AD15E488D
:104B7000016ADBF834000844CBF834000020CBF89D
:104B800038008BE04FF0000A82E00020CBF82000D4
:104B9000CBF81C0018F90A105348D0F8AC000BF100
:104BA0001C031A1DD0F80CC04F482830E0470BF109
:104BB0002400011D0A1D131D84B0CDE90032CDE98A
:104BC00002104948436A18F90A10426AD0F8AC004A
:104BD000D0F810C044482830E04743488168026953
:104BE000DBF834001044DBF82C200244DBF83800FA
:104BF00001FB0200CBF8180018F90A103A48406A85
:104C0000394A526A384B9B68CDE90032CDE902013E
:104C1000DBF82CE0DBF82400A0EB0E03DBF830E03F
:104C2000DBF82800A0EB0E022F48D0F800E0DBF8FC
:104C300018000EEB00012C48D0F8AC00D0F814C0DE
:104C400029482830E04704B0DBF8200006F0A8FA35
:104C5000CBF804002448416ADBF8040006F0CCFAE3
:104C6000CBF8080005F0AAFACBF81000DBF8380002
:104C700006F0AEFACBF80C00DBF8101006F02AF9BB
:104C8000CBF8140006F06CFACBF838000AF1010AF0
:104C90004046FBF76BFC50453FF677AFDBF83C0036
:104CA0004068CBF83C00DBF83C0000287FF449AFBB
:104CB000DBF85C0002F01EF80B48DD461FB0BDE8D3
:104CC000F08F0000200000002E2E5C2E2E5C636F03
:104CD00072655C466F6E745C52485F666F6E742ED0
:104CE000630000000A0000006C0C0020F0B589B0E1
:104CF00004460D46164605A806A907AA08ABCDE945
:104D00000032CDE902100B48436A426AD0F8AC0089
:104D10003146076907482830B8471CB108990698FA
:104D2000401A20601DB107990598401A286009B003
:104D3000F0BD00006C0C00202DE9FE4F04460E462D
:104D400015460DB9BDE8FE8F002727E00020029030
:104D50000190E9571748D0F8AC0001AB02AAD0F88F
:104D60000CC014482830E047BCB1029806F018FA8D
:104D700083461048416A584606F03EFA824605F0DE
:104D80001DFA8146206806F023FA4946009006F095
:104D9000A1F8804606F0E4F920607F1C2846FBF766
:104DA000E5FBB842D2D816B10248006A306000BFB5
:104DB000C8E700006C0C00202DE9F04188B00546E2
:104DC0000E460024002700BF04A805A906AA07ABC9
:104DD000CDE90032CDE902100F48436A426A20460D
:104DE000641C31560C48D0F8AC00D0F810C00A480A
:104DF0002830E04707990598401A07443046FBF7EA
:104E0000B5FBA04201D9AF42DED3AF4200D3641E4E
:104E1000204608B0BDE8F0816C0C002070B5002081
:104E20002D490877182008622C48C1F8AC000846C4
:104E3000007F2B4951F820002749C1F8A8000846F7
:104E4000D0F8A810D0F8AC0000220368224828301F
:104E500098472149086A06F0BBF904461E48D0F875
:104E6000AC00214642681C48283090471A494862E5
:104E70000846D0F8AC0001F118031A1F10318468FD
:104E800001F11800A0471449086906F089F906469F
:104E90001148416A304606F0AFF9054605F08EF933
:104EA000044606F041F90C490861486906F078F9B2
:104EB00006460948416A304606F09EF9054605F067
:104EC0007DF9044606F030F903494861B0220548EF
:104ED000FBF7F2FB70BD00006C0C00204C000020C2
:104EE00064000020BC0B002010B50F480078C8B14A
:104EF0000E48006830B10D49086805F027FB002016
:104F00000A490860B0220A490848FBF7D5FB07495F
:104F1000087F00F05FF80549086A00F00BF80020F0
:104F20000149087010BD0000680000206C0C0020D2
:104F3000BC0B00202DE9F0410646082023490862F9
:104F40002348C1F8AC00087F00F044F81F49086A04
:104F500006F03EF904461D48D0F8AC0021464268F0
:104F60001A4828309047194948620846D0F8AC00E2
:104F700001F118031A1F1031846801F11800A047CD
:104F80001249086906F00CF907461048416A38468C
:104F900006F032F9054605F011F9044606F0C4F8AA
:104FA0000A490861486906F0FBF807460748416A64
:104FB000384606F021F9054605F000F9044606F0EA
:104FC000B3F802494861BDE8F08100006C0C002094
:104FD0004C0000202DE9F04104462C482C49C1F832
:104FE000AC007CB92B4850F82400C1F8A800084652
:104FF000D0F8A810D0F8AC0000220368244828306C
:10500000984701E0BDE8F08100BF214804770146E0
:10501000086A06F0DDF805461D48D0F8AC002946C0
:1050200042681B4828309047194948620846D0F822
:10503000AC0001F118031A1F1031856801F1180046
:10504000A8471349086906F0ABF807461048416ABB
:10505000384606F0D1F8064605F0B0F8054606F0E9
:1050600063F80B490861486906F09AF80746084852
:10507000416A384606F0C0F8064605F09FF8054636
:1050800006F052F80249486100BFBBE74C0000201F
:105090006C0C00206400002010B52C220349044849
:1050A000FBF70AFB01200349087010BD6C000020CB
:1050B0001C0D0020980000202DE9FF5F05460E46DC
:1050C00014469846DDF83890601003900321039849
:1050D000A1EB400002904FF0000ADDF80CB0204632
:1050E00004EBD0714910A4EB410109B9012100E0A2
:1050F00000210191B9F1070F04D18948006908B96D
:10510000012000E000200090009800286CD0A5EB62
:105110006400401ED8F80410884202DBD8F804006E
:1051200009E0A5EB6400401E002801DC002002E03D
:10513000A5EB6400401E7A49C861A6EB6400401EDE
:10514000D8F80810884202DBD8F8080009E0A6EB7E
:105150006400401E002801DC002002E0A6EB640091
:10516000401E6F49086205EB6400401ED8F8041029
:10517000884202DBD8F8040009E005EB6400401E19
:10518000002801DC002002E005EB6400401E6449B9
:10519000C969401A401C62494861486206EB6400D4
:1051A000401CD8F80810884202DBD8F8080009E053
:1051B00006EB6400401C002801DC002002E006EB46
:1051C0006400401C5649096A401A401C54498861D1
:1051D0008862496A524A926A01FB02F004F0F6FDC5
:1051E0004F49086100BFFEE783E00BF101072FE0A4
:1051F0004B4B1A78F11905EB0A004A4B53F829C0BA
:105200004346E047464B1A78F119019B2B44A3EB28
:105210000A00444B53F829C04346E047404B1A78F4
:10522000019B3344D91B05EB0A003E4B53F829C0C0
:105230004346E0473A4B1A78019B3344D91B019B04
:105240002B44A3EB0A00374B53F829C04346E047F1
:10525000381EA7F10107CBD10AF101072FE0304B2F
:105260001A78F11905EB0B002E4B53F829C0434671
:10527000E0472B4B1A78F119019B2B44A3EB0B0051
:10528000284B53F829C04346E047254B1A78019B29
:105290003344D91B05EB0B00224B53F829C043467E
:1052A000E0471F4B1A78019B3344D91B019B2B44C9
:1052B000A3EB0B001B4B53F829C04346E047381EB5
:1052C000A7F10107CBD10298002806DC062000EBED
:1052D0008A0102980844029009E0AAEB0B000A2117
:1052E00001EB8001029808440290ABF1010B0AF136
:1052F000010ADA457FF779AF009860B1084908697B
:1053000005F024F906480021C16101624162816211
:10531000016141618161002004B0BDE8F09F00009F
:105320006C00002040BB00082DE9FC5F05460E46DE
:1053300014461F46DDF830B0601E0321A1EB40008B
:1053400001904FF00008A4F10109BBF1070F04D14F
:105350005948006908B9012000E000200090009839
:10536000002858D0281B401E7968884201DB7868E5
:1053700007E0281B401E002801DC002001E0281B5C
:10538000401E4D49C861301B401EB968884201DB90
:10539000B86807E0301B401E002801DC002001E057
:1053A000301B401E444908622819401E7968884213
:1053B00001DB786807E02819401E002801DC002086
:1053C00001E02819401E3C49C969401A401C3A496D
:1053D000486148623019401CB968884201DBB868EE
:1053E00007E03019401C002801DC002001E03019E2
:1053F000401C3149096A401A401C2F498861886263
:10540000496A2D4A926A01FB02F004F0DFFC2A4946
:10541000086100BFFEE73BE009F1010A0AE0264B04
:105420001A78A6EB0A0105EB0800244B53F82BC0B1
:105430003B46E047BAF10000AAF1010AEFD108F1BA
:10544000010A0AE01C4B1A78A6EB0A0105EB0900D9
:105450001A4B53F82BC03B46E047BAF10000AAF1C3
:10546000010AEFD10198002806DC062000EB880134
:1054700001980844019009E0A8EB09000A2101EB1A
:105480008001019808440190A9F1010908F101087F
:10549000C845C1DD009860B10749086905F056F8B4
:1054A00005480021C161016241628162016141617F
:1054B00081610020BDE8FC9F6C00002040BB00081B
:1054C0002DE9F84F05460E4614461F46DDF828A084
:1054D000601E0321A1EB400B4FF000088146BAF19A
:1054E000070F04D14F48006908B9012000E00020EF
:1054F00000900098002858D0281B401E79688842E8
:1055000001DB786807E0281B401E002801DC002032
:1055100001E0281B401E4349C861301B401EB9688A
:10552000884201DBB86807E0301B401E002801DC20
:10553000002001E0301B401E3A4908622819401E35
:105540007968884201DB786807E02819401E002846
:1055500001DC002001E02819401E3249C969401AC7
:10556000401C3049486148623019401CB968884283
:1055700001DBB86807E03019401C002801DC00207E
:1055800001E03019401C2749096A401A401C25498E
:1055900088618862496A234A926A01FB02F004F03A
:1055A00015FC2049086100BFFEE727E01D4B1A7873
:1055B000A6EB090105EB08001B4B53F82AC03B463C
:1055C000E047184B1A78A6EB080105EB0900164BCB
:1055D00053F82AC03B46E047BBF1000F04DC06202D
:1055E00000EB8800834407E0A8EB09000A2101EBE7
:1055F00080008344A9F1010908F10108C845D5DDFF
:10560000009860B10749086904F0A0FF054800212F
:10561000C161016241628162016141618161002079
:10562000BDE8F88F6C00002040BB00082DE9FC5F4E
:1056300005460E4614461F46DDF830B0601E0321B5
:10564000A1EB400001904FF00008A4F10109BBF16B
:10565000070F04D15948006908B9012000E0002073
:1056600000900098002858D0281B401E7968884276
:1056700001DB786807E0281B401E002801DC0020C1
:1056800001E0281B401E4D49C861301B401EB9680F
:10569000884201DBB86807E0301B401E002801DCAF
:1056A000002001E0301B401E444908622819401EBA
:1056B0007968884201DB786807E02819401E0028D5
:1056C00001DC002001E02819401E3C49C969401A4C
:1056D000401C3A49486148623019401CB968884208
:1056E00001DBB86807E03019401C002801DC00200D
:1056F00001E03019401C3149096A401A401C2F4909
:1057000088618862496A2D4A926A01FB02F004F0BE
:105710005DFB2A49086100BFFEE73BE009F1010A91
:105720000AE0264B1A78A6EB0A01A5EB0800244BE9
:1057300053F82BC03B46E047BAF10000AAF1010A3A
:10574000EFD108F1010A0AE01C4B1A78A6EB0A0116
:10575000A5EB09001A4B53F82BC03B46E047BAF1C2
:105760000000AAF1010AEFD10198002806DC06200A
:1057700000EB880101980844019009E0A8EB0900BA
:105780000A2101EB8001019808440190A9F1010967
:1057900008F10108C845C1DD009860B107490869F2
:1057A00004F0D4FE05480021C161016241628162BA
:1057B0000161416181610020BDE8FC9F6C00002017
:1057C00040BB00082DE9F84F05460E4614461F461B
:1057D000DDF828A0601E0321A1EB400B4FF000086C
:1057E0008146BAF1070F04D14F48006908B901207A
:1057F00000E0002000900098002858D0281B401E90
:105800007968884201DB786807E0281B401E002881
:1058100001DC002001E0281B401E4349C861301B09
:10582000401EB968884201DBB86807E0301B401EA3
:10583000002801DC002001E0301B401E3A490862CC
:105840002819401E7968884201DB786807E028192A
:10585000401E002801DC002001E02819401E3249CA
:10586000C969401A401C3049486148623019401CDF
:10587000B968884201DBB86807E03019401C00288D
:1058800001DC002001E03019401C2749096A401A58
:10589000401C254988618862496A234A926A01FB53
:1058A00002F004F093FA2049086100BFFEE727E008
:1058B0001D4B1A78A6EB0901A5EB08001B4B53F80A
:1058C0002AC03B46E047184B1A78A6EB0801A5EB27
:1058D0000900164B53F82AC03B46E047BBF1000FC6
:1058E00004DC062000EB8800834407E0A8EB0900F5
:1058F0000A2101EB80008344A9F1010908F10108A4
:10590000C845D5DD009860B10749086904F01EFE5E
:1059100005480021C161016241628162016141610A
:1059200081610020BDE8F88F6C00002040BB0008BA
:105930002DE9FC5F05460E4614461F46DDF830B0E3
:10594000601E0321A1EB400001904FF00008A4F17C
:105950000109BBF1070F04D15948006908B90120BA
:1059600000E0002000900098002858D0281B401E1E
:105970007968884201DB786807E0281B401E002810
:1059800001DC002001E0281B401E4D49C861301B8E
:10599000401EB968884201DBB86807E0301B401E32
:1059A000002801DC002001E0301B401E4449086251
:1059B0002819401E7968884201DB786807E02819B9
:1059C000401E002801DC002001E02819401E3C494F
:1059D000C969401A401C3A49486148623019401C64
:1059E000B968884201DBB86807E03019401C00281C
:1059F00001DC002001E03019401C3149096A401ADD
:105A0000401C2F4988618862496A2D4A926A01FBCD
:105A100002F004F0DBF92A49086100BFFEE73BE031
:105A200009F1010A0AE0264B1A7806EB0A01A5EBF8
:105A30000800244B53F82BC03B46E047BAF1000066
:105A4000AAF1010AEFD108F1010A0AE01C4B1A7809
:105A500006EB0A01A5EB09001A4B53F82BC03B4695
:105A6000E047BAF10000AAF1010AEFD1019800283D
:105A700006DC062000EB880101980844019009E04B
:105A8000A8EB09000A2101EB80010198084401906C
:105A9000A9F1010908F10108C845C1DD009860B10C
:105AA0000749086904F052FD05480021C1610162FF
:105AB000416281620161416181610020BDE8FC9F1A
:105AC0006C00002040BB00082DE9F84F05460E464B
:105AD00014461F46DDF828A0601E0321A1EB400BF1
